:100000000C945A010C9482010C9482010C94EB160E
:100010000C94E3160C94DB160C9482010C94A1163C
:100020000C9482010C9482010C9482010C94820144
:100030000C9482010C9482010C945E160C941B1695
:100040000C94D1150C9482010C949F150C94791585
:100050000C9482010C9482010C9482010C94820114
:100060000C9482010C948201071626374858677F4A
:1000700097A6B5C7D8E7F6300031005442200020DB
:100080000020004952200020636D002000475220CC
:1000900000202D2000202D2000202D200042205067
:1000A000200042204C2000FEFDF77FBFFBFFFF0039
:1000B00000204E00005C20BE023018C300F60F3B4B
:1000C00000A10A1500600708005C05040011040285
:1000D0000035030100000041542B4E414D45004CBA
:1000E00065616E626F7420004C42000600010203DD
:1000F0000405000403020106050000000024002797
:10010000002A00454550524F4D207772697474653E
:100110006E207375636365737366756C6C792E20DE
:1001200048616E672070726F6772616D2100544282
:100130003141202B205442314220746F7563686531
:10014000642E2043616C6962726174696F6E207302
:10015000657474696E67732073617665642E2043DD
:10016000616C6962726174696F6E20446F6E652E96
:100170000029002C20002C20002C2000476574430F
:10018000616C6962726174696F6E28004F70656E90
:10019000506F736974696F6E00436C6F7365506F55
:1001A000736974696F6E0029002C20002C20002CCC
:1001B000200053657443616C6962726174696F6E8B
:1001C0002800546F7563682054423141202B20541D
:1001D00042314220746F207065726D616E656E747D
:1001E0006C7920736176652063616C6962726174F9
:1001F000696F6E2073657474696E677300646567F8
:1002000052203D200009006465674C203D200052CB
:10021000656D6F7465436F6E74726F6C0049524CFC
:10022000696E65004C696E65466F6C6C6F77004750
:100230007269707065720053747261696768744D99
:100240006F74696F6E004F626A656374666F6C6C81
:100250006F77005247424C6564730042757A7A6545
:1002600072004D6F74696F6E000000000025002859
:10027000002B000404040404040404020202020229
:10028000020303030303030102040810204080015A
:1002900002040810200102040810200000000800D9
:1002A000020100000304070000000000000000003D
:1002B0005A17212311241FBECFEFD8E0DEBFCDBFD8
:1002C00012E0A0E0B1E0E8EAF2E502C005900D928C
:1002D000AC36B107D9F723E0ACE6B2E001C01D921D
:1002E000A23BB207E1F711E0C9E5D1E004C02197D4
:1002F000FE010E947924C835D107C9F70E94A117D1
:100300000C9447290C940000CF92DF92EF92FF9259
:100310002091200130912101E0912601F0912701E7
:10032000C0902401D0902501CE16DF065CF52F5F2A
:100330003F4FCC0CDD1CCE1ADF0A0D2C000CEE0852
:10034000FF08032E000C440B550B2C193D094E09D8
:100350005F09A4EBB0E00E94DA239F01FF0F440B7A
:10036000550B2C193D094E095F090E94BB23DA0188
:10037000C9018A559109A109B109FF90EF90DF9059
:10038000CF90089521503109D4CFCF92DF92EF92D0
:10039000FF922091220130912301E0912A01F091F6
:1003A0002B01C0902801D0902901CE16DF065CF504
:1003B0002F5F3F4FCC0CDD1CCE1ADF0A0D2C000C3A
:1003C000EE08FF08032E000C440B550B2C193D09B9
:1003D0004E095F09A4EBB0E00E94DA239F01FF0FF2
:1003E000440B550B2C193D094E095F090E94BB2394
:1003F000DA01C9018A559109A109B109FF90EF906D
:10040000DF90CF90089521503109D4CFCF92DF9261
:10041000EF92FF920F931F93CF93DF938B01C0E274
:10042000D1E028EE33E0DC010E9487242AE5C22EC9
:10043000D12CE12CF12CA70196010E94BB2328515D
:100440003C4F4F4F5F4F3987288728EE33E0D80164
:100450000E948724A70196010E94BB2328513C4F8C
:100460004F4F5F4F3B872A87DF91CF911F910F91AD
:10047000FF90EF90DF90CF900895CF92DF92EF92B0
:10048000FF920F931F93CF93DF938B01C0E2D1E0D4
:100490009C01A8E1BCEF0E947F242AE5C22ED12C4A
:1004A000E12CF12CA70196010E94BB232053384F69
:1004B0004F4F5F4F3D832C839801A8E1BCEF0E9412
:1004C0007F24A70196010E94BB232053384F4F4F32
:1004D0005F4F3F832E83DF91CF911F910F91FF904C
:1004E000EF90DF90CF900895DF92EF92FF920F93FD
:1004F0001F93CF93DF938B011092FD021092FC02A9
:10050000EC018AE0D82ECE01F8010995803304F180
:10051000CE01F80109958A33DCF48091FC029091B8
:10052000FD02D89E7001D99EF00C1124E0911E01AD
:10053000F0911F01CE010995082E000C990BC09770
:100540008E0D9F1D9093FD028093FC022196DBCFC0
:10055000CE01DF91CF911F910F91FF90EF90DF902F
:1005600008952091AC033091AD038217930738F4BE
:100570002091A8033091A9032115310529F4109287
:10058000EB028BEE92E00895820F931F0895FC0119
:10059000808108950895AF92BF92CF92DF92EF923B
:1005A000FF920F931F93CF93DF936C017B018B011D
:1005B000040F151FEB015E01AE18BF08C017D1076D
:1005C00059F06991D601ED91FC910190F081E02DF7
:1005D000C6010995892B79F7C501DF91CF911F914C
:1005E0000F91FF90EF90DF90CF90BF90AF90089564
:1005F000FC01538D448D252F30E0842F90E0821B29
:10060000930B541710F0CF96089501970895FC01AD
:10061000918D828D981761F0A28DAE0FBF2FB11D05
:100620005D968C91928D9F5F9F73928F90E008955D
:100630008FEF9FEF0895FC01918D828D981731F017
:10064000828DE80FF11D858D90E008958FEF9FEF6B
:100650000895FC01918D228D892F90E0805C9F4F41
:10066000821B91098F739927089580E093E00E947F
:10067000290321E0892B09F420E0822F089580E0EE
:1006800090E0892B29F00E94350381110C94000021
:100690000895FC01A48DA80FB92FB11DA35ABF4F17
:1006A0002C91848D90E001968F739927848FA68971
:1006B000B7892C93A089B1898C91837080648C93C5
:1006C000938D848D981306C00288F389E02D808174
:1006D0008F7D80830895EF92FF920F931F93CF93A6
:1006E000DF93EC0181E0888F9B8D8C8D98131AC06D
:1006F000E889F989808185FF15C09FB7F894EE8954
:10070000FF896083E889F9898081837080648083B0
:100710009FBF81E090E0DF91CF911F910F91FF90FB
:10072000EF900895F62E0B8D10E00F5F1F4F0F73A3
:100730001127E02E8C8D8E110CC00FB607FCFACF5E
:10074000E889F989808185FFF5CFCE010E944903B0
:10075000F1CFEB8DEC0FFD2FF11DE35AFF4FF0822F
:100760009FB7F8940B8FEA89FB8980818062CFCF95
:10077000682F80E093E00C946B03682F80E093E097
:100780000C946B030F931F93CF93DF938C01D0E0F6
:10079000C0E0F801EC0FFD1F6491662341F080E09A
:1007A00093E00E946B03892B11F02196F2CFCE01CA
:1007B000DF91CF911F910F910895CF93DF93EC01BB
:1007C000888D8823B9F0AA89BB89E889F9898C9139
:1007D00085FD03C0808186FD0DC00FB607FCF7CFF5
:1007E0008C9185FFF2CF808185FFEDCFCE010E94F5
:1007F0004903E9CFDF91CF9108953FB7F8948091F5
:10080000870290918802A0918902B0918A0226B550
:10081000A89B05C02F3F19F00196A11DB11D3FBF38
:10082000BA2FA92F982F8827BC01CD01620F711D07
:10083000811D911D42E0660F771F881F991F4A9501
:10084000D1F708958F929F92AF92BF92CF92DF928D
:10085000EF92FF926B017C010E94FD034B015C0152
:10086000C114D104E104F104B9F00E94FD03681938
:1008700079098A099B09683E73408105910580F3D7
:1008800021E0C21AD108E108F10888EE880E83E061
:10089000981EA11CB11CE4CFFF90EF90DF90CF9089
:1008A000BF90AF909F908F9008952FB7F89460916C
:1008B00083027091840280918502909186022FBFFD
:1008C00008950F931F930E9455046093080370933B
:1008D000090380930A0390930B0380E093E00E9446
:1008E000070397FF1DC00E94550400910803109153
:1008F000090320910A0330910B03601B710B820BDB
:10090000930B00910403109105032091060330918D
:1009100007036017710782079307F8F28FEF9FEFC5
:100920001F910F9108956F927F928F929F92AF9235
:10093000BF92CF92DF92EF92FF920F931F93CF93CC
:10094000DF93EC016B010E94FD032A813B81621B56
:10095000730B6A307105B8F3F894E0919A02F09144
:100960009B0275B1706205B10F7D05B9259AD6015C
:100970001196EC9011978C911296CC90E394DD2413
:10098000D394D80EC394618143E050E080E0A7E0A7
:100990006A2E712CD301282F982FF82EB82E182FDD
:1009A000382F318166278894A12E122F2A2D3111DC
:1009B000390F08F43FEF91958894E0FC630F679539
:1009C0008894E1FC630F67958894E2FC630F679558
:1009D0008894E3FC630F67958894E4FC630F679544
:1009E0008894E5FC630F67958894E6FC630F679530
:1009F0008894E7FC630F67958894132FE110162FF6
:100A0000980F612F002C75B900C067FF05B93081C0
:100A10001127889400C000C0002C05B931113F0D8A
:100A200000C0002C75B900C066FF05B908F43FEF9F
:100A3000F194889400C000C0002C05B9D0FC130FBD
:100A400000C0002C75B900C065FF05B917958894E2
:100A5000D1FC130F00C000C0002C05B91795889475
:100A600000C0002C75B900C064FF05B9D2FC130F9B
:100A70001795889400C000C0002C05B9D3FC130F53
:100A800000C0002C75B900C063FF05B917958894A4
:100A9000D4FC130F00C000C0002C05B91795889432
:100AA00000C0002C75B900C062FF05B9D5FC130F5A
:100AB0001795889400C000C0002C05B9D6FC130F10
:100AC00000C0002C75B900C061FF05B91795889466
:100AD000D7FC130F00C000C0002C05B917958894EF
:100AE00000C0002C75B900C060FF05B9632FD1109C
:100AF000612FF80E00C000C0002C05B900C000C076
:100B0000002C75B900C067FF05B9328111278894A0
:100B100000C000C0002C05B931113B0D00C0002CF5
:100B200075B900C066FF05B908F43FEFE40FF51F83
:100B300000C000C0002C05B9C0FC130F00C0002C81
:100B400075B900C065FF05B917958894C1FC130FEE
:100B500000C000C0002C05B91795889400C0002C77
:100B600075B900C064FF05B9C2FC130F17958894CE
:100B700000C000C0002C05B9C3FC130F00C0002C3E
:100B800075B900C063FF05B917958894C4FC130FAD
:100B900000C000C0002C05B91795889400C0002C37
:100BA00075B900C062FF05B9C5FC130F179588948D
:100BB00000C000C0002C05B9C6FC130F00C0002CFB
:100BC00075B900C061FF05B917958894C7FC130F6C
:100BD00000C000C0002C05B91795889400C0002CF7
:100BE00075B900C060FF05B9632FC110612FB194C2
:100BF00000C000C0002C05B9B80E00C000C075B917
:100C000000C067FF05B931811127889400C000C07A
:100C1000002C05B93111390F00C0002C75B900C086
:100C200066FF05B908F43FEF9195889400C000C0B5
:100C3000002C05B9E0FC130F00C0002C75B900C0F2
:100C400065FF05B917958894E1FC130F00C000C03B
:100C5000002C05B91795889400C0002C75B900C008
:100C600064FF05B9E2FC130F1795889400C000C01B
:100C7000002C05B9E3FC130F00C0002C75B900C0AF
:100C800063FF05B917958894E4FC130F00C000C0FA
:100C9000002C05B91795889400C0002C75B900C0C8
:100CA00062FF05B9E5FC130F1795889400C000C0DA
:100CB000002C05B9E6FC130F00C0002C75B900C06C
:100CC00061FF05B917958894E7FC130F00C000C0B9
:100CD000002C05B91795889400C0002C75B900C088
:100CE00060FF05B9632FE110612F980F00C000C0AD
:100CF000002C05B9119709F086CE30E020E0C9013B
:100D00004AE9649E060C811D749E800D911D11247C
:100D1000870D911DB0E0A0E0AC01BD014E525F4FC8
:100D20006F4F7F4F493E53406105710508F434C051
:100D300086519340A109B10942E0B695A7959795D0
:100D400087954A95D1F747E0849F080E211D949F0F
:100D5000200D311D1124290F311D4091810250E0D9
:100D6000840F951F820F931F40918302509184023C
:100D70006091850270918602292F3327420F531FFD
:100D8000611D711D4093830250938402609385021C
:100D9000709386028093810278940E94FD037B8386
:100DA0006A83DF91CF911F910F91FF90EF90DF90B9
:100DB000CF90BF90AF909F908F907F906F9008954D
:100DC00080E991E00895CF93DF9300D01F92CDB7D3
:100DD000DEB749835A836B83DC01ED91FC9104807B
:100DE000F581E02DBE016F5F7F4F09950F900F9049
:100DF0000F90DF91CF910895CF93DF93D62F24B535
:100E0000237039F020EA24BD23E025BD2AB1206FEC
:100E10002AB9F8949C01C9B197FF04C03195219576
:100E20003109C095211588E0380710F02FEF37E021
:100E30002F31310510F42FE130E0C90196958795E7
:100E4000A0E0805C9D4BA04FBC018A2F90E050E059
:100E500040E00E942424C901609199026111C0956B
:100E6000CD2311F0C9019058DF91CF9108950F93D0
:100E70001F93CF93DF93EC0145BD8A819B81AC81A9
:100E8000BD818A179B0711F13981432F50E0440F30
:100E9000551F41555F4FFA0105911491FA01A817AA
:100EA000B90708F03DC0329645915491801B910BD3
:100EB000012B09F4CA01A817B90708F4DC014A1785
:100EC0005B0708F03E5F3983BB83AA83B7FF07C087
:100ED00080E88B0FB9F18D8369B9A0E0B3E02E8172
:100EE0003F81488589B16823A9F121503109410921
:100EF0002E833F83488788818A0F9B2F911D282F3F
:100F0000237028839695879596958795803410F45D
:100F1000806890689987DF91CF911F910F91089514
:100F2000329745915491800F911F012B09F4CA010A
:100F30008A179B0708F4DC01A417B50708F4C3CF90
:100F40003250C1CFF89480916E00282320936E0018
:100F50007894C5CF2F5F3F4F4F4FCACFE0910B0121
:100F6000F0910C01E80FF11DE49123E0E29FC00134
:100F7000112484569D4F0895CF92DF92EF92CF9324
:100F80006A01E62EC22F0E94AE07FC01CC2341F07D
:100F9000C082D182E282CF91EF90DF90CF9008950E
:100FA000108211821282F7CFCF92DF92EF920F93CD
:100FB0001F93CF936B01E82EC0E0042F10E040FF99
:100FC00007C08C2F0E94AE07FC01C082D182E28252
:100FD000A80155954795CF5F4111EFCFCF911F9154
:100FE0000F91EF90DF90CF9008954FE760E070E0B1
:100FF00080E00C94D407CF93DF93EB01009711F1BD
:1010000060E80E94FC069093C1028093C002809128
:101010006E00826080936E00789480E090E8209764
:1010200021F060E1CE010E94FC069093B70280930C
:10103000B60280916E00846080936E007894DF9198
:10104000CF91089580E090E8DECFF8948091B702C8
:101050009091B802A091B902B091BA02789420910F
:101060009902222339F0B095A095909581959F4FD4
:10107000AF4FBF4F692F7A2F8B2F992787FD9A95F6
:101080000895F8948091C1029091C202A091C30288
:10109000B091C402789420919902222339F0B0953E
:1010A000A095909581959F4FAF4FBF4F692F7A2F95
:1010B0008B2F992787FD9A950895CF92DF92EF9213
:1010C000FF920E9441086B017C010E942508A70144
:1010D0009601261B370B480B590BCA01B901FF902B
:1010E000EF90DF90CF900895CF92DF92EF92FF9232
:1010F0000E9441086B017C010E9425086C0D7D1D3A
:101100008E1D9F1DFF90EF90DF90CF90089596B5B4
:1011100088E026B5291304C0815000000000F9CFF3
:101120008093730290937402089597B19C6097B96D
:1011300098B1937F492F486028E034E087FF07C0CB
:1011400048B936B9880F2150C9F798B9089598B9A8
:10115000F8CF1F93CF93DF93FC0197FD3196F59560
:10116000E795E955FF4FE491C8E080FFC4E08E2F7A
:101170000E94950880E093E00E94DD03F89486B514
:1011800096B58917E9F39CE096B990916E009E7F21
:1011900090936E00D2E0D80F8E598093740286B57A
:1011A000D813FDCF87B1837F87B98CE086B987E8F4
:1011B00098E090930A018093090182E08BBB8091B3
:1011C0006800826080936800C0936C00789486B554
:1011D0008D1B8036E0F310926C00F89480916E00C5
:1011E000816080936E007894C091740210917302B4
:1011F0008FEC0E9495088CE086B9CD1B28E0C29F39
:10120000C0011124812B813023E0920710F080E08F
:1012100093E0DF91CF911F9108958F7390E0C09676
:101220000C94BD03CF93DF93D0918002DD2379F13D
:1012300082EA90E00E94C2038091A1038695869580
:101240000E940D09C0E08C2F0E94AE07FC01808136
:10125000869586950E940D098C2F0E94AE07FC0191
:101260008181869586950E940D098C2F0E94AE077C
:10127000FC018281869586950E940D09CF5FC7305B
:1012800011F78AE090E00E94BD03109280028D2F3A
:10129000DF91CF910895CF93DF9320910701309193
:1012A00008012F3F320769F1AFEFBFE00E944624EB
:1012B00025E033E440E050E00E94BB23E901211522
:1012C000304110F0CFEFDFE08DE990E00E94C203E3
:1012D000CE0126E0969587952A95E1F70E940D09A3
:1012E0008C2F0E940D098AE090E00E94BD038FEFD1
:1012F0009FEF909308018093070181E0DF91CF91E8
:10130000089580E0FBCFFF920F931F93CF93DF935D
:10131000F62EC72F082F10E0869586950E940D099E
:10132000D0E084E0000F111F8A95E1F7CE0124E0A0
:10133000959587952A95E1F7802B0E940D09CC0F92
:10134000DD1FCC0FDD1F8F2D8295869586958370CE
:101350008C2B0E940D098F2DDF91CF911F910F9142
:10136000FF900C940D09109270001092B30081E070
:101370008093B00084E08093B1000895CF92DF9213
:10138000EF92FF9269017A01239A9B0150E040E0BD
:1013900060E472E48FE090E00E94BB2382E091E180
:1013A000332361F036952795492F417002C0369559
:1013B00027954A95E2F796958F5FF2CF10927000CD
:1013C00092E49093B0008093B10021502093B30039
:1013D000C114D104E104F10489F00E945504C60E41
:1013E000D71EE81EF91EC0926F02D0927002E092E2
:1013F0007102F092720282E080937000FF90EF9091
:10140000DF90CF9008951895209114013091150127
:101410008091E5029091E602289FB001299F700D0E
:10142000389F700D112477FF02C06D5F7F4F759557
:101430006795759567954091E7025091E802249F62
:10144000C001259F900D349F900D112497FD0396A8
:1014500095958795959587950C94FB0780917A00D3
:10146000806480937A0080917A0086FDFCCF809121
:1014700078009091790008950F931F93CF93DF9395
:10148000CCE7D0E08EE488830E942E0A0E942E0AC8
:101490000E942E0A0E942E0A0E942E0A8C01188297
:1014A0008EE088830E942E0A0E942E0A0E942E0A35
:1014B0000E942E0A0E942E0A18829C01A4EEBCE013
:1014C0000E944624980150E040E00E942424C90173
:1014D000DF91CF911F910F9108950E94FD03189BFA
:1014E00005C070936E0260936D02089510926B00B8
:1014F00020916D0230916E02621B730BF2CF9B0143
:1015000050E040E0BC018BE00C94BE09CF93DF9328
:10151000EC01219768F069E170E080EE96E00E94AE
:101520007F0A62E370E080E090E00E942204F1CF45
:10153000DF91CF9108958F929F92AF92BF92CF92F9
:10154000DF92EF92FF92CF93DF93EC0126EF37E02B
:10155000DB010E9487242CE3C22ED12CE12CF12C3C
:10156000A70196010E94BB23490126EF37E0DE0167
:101570000E948724A70196010E94BB23B401C901E0
:10158000DF91CF91FF90EF90DF90CF90BF90AF9021
:101590009F908F900C94FB074091030150910401A0
:1015A00025E038E0429FC001439F900D529F900D6F
:1015B0001124875E994C9093040180930301890F55
:1015C00008951092020187E080937C0080917A0058
:1015D000806480937A0080917A0086FDFCCF9091A0
:1015E0007800809179008927982789279695879593
:1015F00096958795982FE8E6F0E080E02491921781
:1016000020F08F5F31968F30C9F708950895CF92FB
:10161000DF92EF92FF920F931F93CF93DF93C091CE
:10162000A1038091A4039091A503A091A603B0917A
:10163000A703892B8A2B8B2BD9F00E94FD030091E5
:101640007C0210917D0220917E0230917F02601B0E
:10165000710B820B930B0091A4031091A5032091B1
:10166000A6033091A7036017710782079307C8F29A
:101670000E94FD0360937C0270937D0280937E0242
:1016800090937F024C2F5C2F6C2F8DE993E00E948A
:10169000E30680917A0290917B02EC012196D0932F
:1016A0007B02C0937A024997E4F10E9455040091AD
:1016B00076021091770220917802309179026B01C5
:1016C0007C01C01AD10AE20AF30AA701960121158A
:1016D00031054105510521F421E030E040E050E0C2
:1016E00088EE93E0C89FB001C99F700DD89F700D20
:1016F0001124072E000C880B990B0E942424309390
:10170000A3032093A20310927B0210927A020E94FC
:1017100055046093760270937702809378029093D9
:101720007902DF91CF911F910F91FF90EF90DF90A1
:10173000CF900895CF92DF92EF92CF93C82F6A0196
:10174000E62E83FB222720F984E00E94BC07C2FB1F
:10175000222720F96E2DA60183E00E94BC07C1FB61
:10176000222720F96E2DA60182E00E94BC072C2FB3
:1017700021706E2DA60181E00E94BC07CF91EF90F1
:10178000DF90CF900C94070BCF93DF93EC010E9476
:10179000070B8AB1806F8AB99E01220F331F220F77
:1017A000331F255031098FEF9FE740E650EF49B9CD
:1017B00059B9C230D10518F0F9013197F1F78C1BF6
:1017C0009D0B97FFF4CFDF91CF910895CF93DF93D7
:1017D000EC01209741F061E070E080E090E00E9431
:1017E00022042197F6CFDF91CF910895CF92DF9217
:1017F000EF92FF920E945D086B017C010E945D08E0
:101800006C197D098E099F09161617061806190608
:1018100094F40E945D08DC01CB018C199D09AE098E
:10182000BF098E339D40A105B10584F481E090E0AD
:101830000E94E60BE3CF0E945D08A7019601261BDC
:10184000370B480B590BDA01C901EBCFFF90EF9032
:10185000DF90CF90089570E060E090E080E00E941B
:10186000FB078091BF02803821F48091B502803857
:1018700029F081E090E00E94E60BF3CF08954F92AB
:101880005F926F927F928F929F92AF92BF92CF9210
:10189000DF92EF92FF920F931F93CF934C017B0146
:1018A0002A01390182E090E00E94A9085C0190E0E1
:1018B00080E00E94A9086C0181E090E00E94A908E4
:1018C0008C0183E090E00E94A908C8E08A149B0480
:1018D00008F0C0E0EC14FD0408F4C46040165106A2
:1018E00008F4C2606816790608F4C160C0937502F6
:1018F00090E080E00E94E60BC093E2028C2FCF9133
:101900001F910F91FF90EF90DF90CF90BF90AF901D
:101910009F908F907F906F905F904F900895ECEE26
:10192000F2E0268137814481558162817381808113
:1019300091810C943F0C0E943C0A2091FE02309150
:10194000FF02A901481B590BCA011816190644F4D5
:1019500095958795281B390B3093FF022093FE0243
:1019600090E080E00C94E60B009761F0813629E06E
:10197000920714F080E699E0883522E0920714F48B
:1019800088E592E022EB2093800090938900809379
:10199000880080E286BBB59903C00E949B0CFBCFF8
:1019A0000895CF92DF92EF92FF92C0902801D090DD
:1019B00029010D2C000CEE08FF088937910514F061
:1019C00088E790E0823E2FEF920714F482EE9FEFBB
:1019D00020912A0130912B01032E000C440B550B52
:1019E0002C193D094E095F09DC010E94E5232AE517
:1019F00030E040E050E00E94BB23DA01C9018C0DC9
:101A00009D1DAE1DBF1D9093230180932201FF9069
:101A1000EF90DF90CF900C94B40C009761F081367A
:101A200029E0920714F080E699E0883542E09407B7
:101A300014F488E592E02091860030918700A90196
:101A4000481B590B20EB2093800050938B00409350
:101A50008A0081E086BBB09903C00E949B0CFBCF3B
:101A6000089590E080E00E940D0D90E080E00C94DD
:101A7000B40CCF92DF92EF92FF92C0902401D090ED
:101A800025010D2C000CEE08FF088937910514F094
:101A900088E790E0823E2FEF920714F482EE9FEFEA
:101AA0002091260130912701032E000C440B550B89
:101AB0002C193D094E095F09DC010E94E5232AE546
:101AC00030E040E050E00E94BB23DA01C9018C0DF8
:101AD0009D1DAE1DBF1D9093210180932001FF909D
:101AE000EF90DF90CF900C940D0DFF920F931F930A
:101AF000CF93DF93C62FF72E8C01D42F0E94F507CA
:101B00008C2F9F2DD8018D0122273327892F9A2FC3
:101B1000AB2FBB274D2F602F782F8C2F0E94D4071F
:101B20000E94070B84EF91E0DF91CF911F910F91FD
:101B3000FF900C94E60B8F929F92AF92BF92CF9240
:101B4000DF92EF92FF927C010E9474084B015C01CE
:101B500024E63DEFD7010E94872428EB3BE040E0DC
:101B600050E00E94BB2357FF07C050954095309529
:101B700021953F4F4F4F5F4F69017A01CC0CDD1C1F
:101B8000EE1CFF1C0E947408681979098A099B09D8
:101B9000161617061806190694F40E947408DC013C
:101BA000CB0188199909AA09BB098C159D05AE05B9
:101BB000BF0584F481E090E00E94E60BE3CF0E9431
:101BC0007408A5019401261B370B480B590BDA0149
:101BD000C901EBCFFF90EF90DF90CF90BF90AF9017
:101BE0009F908F900895CF93DF93EC012898209ACF
:101BF00081E083B9E3E2F0E03197F1F783B920980F
:101C00002DE63AE030930601209305018BBB9091BD
:101C1000680091609093680080936B000E94FD03C0
:101C2000C60FD71F80916B00882379F00E94FD03B7
:101C30006C1B7D0B64367105A8F710926B0088EA67
:101C40009EED90936E0280936D0280916D02909153
:101C50006E02DF91CF9108952F923F924F925F9243
:101C60006F927F928F929F92AF92BF92CF92DF92AC
:101C7000EF92FF920F931F93CF93DF93CDB7DEB711
:101C80006C970FB6F894DEBF0FBECDBF8C0169878D
:101C90007D831A018FE799E10E94F30DC090200126
:101CA000D0902101E0902201F09023014090240186
:101CB00050902501052C000C66087708D8010937DB
:101CC000110514F0A8E7B0E0A23E0FEFB00714F43E
:101CD000A2EEBFEF2091260130912701032E000CC8
:101CE000440B550B24193509460957090E94E52371
:101CF0002AE530E040E050E00E94BB23DA01C90150
:101D0000840D951DA61DB71D89839A83AB83BC8363
:101D100009811A818090280190902901092C000CDA
:101D2000AA08BB08A985BD81A937B10514F0A8E7A9
:101D3000B0E0A23E9FEFB90714F4A2EEBFEF2091EE
:101D40002A0130912B01032E000C440B550B28194E
:101D500039094A095B090E94E5232AE530E040E0A1
:101D600050E00E94BB23DA01C901880D991DAA1D0C
:101D7000BB1D8D839E83AF83B887AD81BE81BA873B
:101D8000A9870E945504698B7A8B8B8B9C8B8FE083
:101D900097E29093FF028093FE02809186009091DB
:101DA000870064EF71E00E9465244601DD0CAA08FB
:101DB000BB082101032C000C66087708012E000CDB
:101DC000220B330BD901C80188199909AA09BB094B
:101DD0008D8B9E8BAF8BB88F8701FF0C220B330B43
:101DE0000D871E872F87388BE984FA84C701FF0C83
:101DF000AA0BBB0B7C018D012D853E854F85588933
:101E0000E21AF30A040B150BE98EFA8E0B8F1C8F66
:101E1000621573050CF06EC06B01770FEE08FF08BA
:101E20002D893E894F89588DC701B6010E945524DE
:101E3000A30192010E94BB23DA01C901880D991DFB
:101E4000AA1DBB1D89879A87AB87BC87298D3A8DD0
:101E50004B8D5C8DC701B6010E945524A3019201F0
:101E60000E94BB23CD84DE84EF84F888C20ED31E8B
:101E7000E41EF51EA985BA85B0932101A093200127
:101E8000D0922301C0922201CD010E940D0DC60106
:101E90000E94B40C8091FE029091FF028C3C904114
:101EA00014F50E94310D8091FE029091FF029195F0
:101EB000819591096C960FB6F894DEBF0FBECDBF29
:101EC000DF91CF911F910F91FF90EF90DF90CF9016
:101ED000BF90AF909F908F907F906F905F904F904A
:101EE0003F902F9008950E945504E988FA886E1952
:101EF0007F098ECF09811A8110932101009320015F
:101F00002D813E813093230120932201C8010E943C
:101F10000D0D8D819E810E94B40C0E94310D8FE7C2
:101F200099E10E94F30D8091FE029091FF02C2CFD1
:101F30000F931F93CF93DF938C010E948401E801DC
:101F4000C81BD90B1C161D061CF0EC01C01BD10BC5
:101F50000E94C501A801481B590B141615061CF058
:101F6000AC01401B510B2091860030918700DE01AF
:101F7000C417D5070CF4DA010E94872428EE33E059
:101F800040E050E00E942424A901B801C801DF917B
:101F9000CF911F910F910C942C0ECF93DF93EC01F6
:101FA0000E94E10A90916C02282F30E02C233D23FF
:101FB000232B59F08C2F892B80936C02C92381E04D
:101FC00009F080E0DF91CF910895C095C923C093B7
:101FD0006C02F7CFCF93DF93EC010E94E10A282F28
:101FE00030E02C233D2381E0232B09F480E0DF91B6
:101FF000CF910895CF92DF92EF926B01E82E88E0A7
:1020000090E00E94EA0F811118C04EE18E2DB601BA
:102010000E94D4070E94070B6AE070E080E090E025
:102020000E9422040E94F5070E94070B6AE570E0F7
:1020300080E090E00E942204E2CF88E090E00E94DD
:10204000EA0F8130D1F3EF90DF90CF900895FC013B
:1020500001900020E9F73197AF01481B590BBC01F3
:1020600080E093E00C94CB0286EE91E00C94271074
:10207000CF93DF930E94C203EC010E9434108C0FB7
:102080009D1FDF91CF9108958F929F92AF92BF9243
:102090000F931F93CF93DF93CDB7DEB7A1970FB602
:1020A000F894DEBF0FBECDBF19A2423008F44AE05B
:1020B0008E010F5D1F4F842E912CB12CA12CA501F8
:1020C00094010E942424E62FB901CA01EA30F4F4F5
:1020D000E05DD801EE938D01232B242B252B79F77E
:1020E00090E080E0109719F0CD010E942710A19692
:1020F0000FB6F894DEBF0FBECDBFDF91CF911F9119
:102100000F91BF90AF909F908F900895E95CE1CFC1
:10211000CF92DF92EF92FF92CF93DF936C01990FF2
:10212000EE08FF086A307105D1F44AE0F7FE18C0E6
:102130008DE20E94B803EC0166277727CB016C196A
:102140007D098E099F094AE00E9444108C0F9D1F53
:10215000DF91CF91FF90EF90DF90CF900895462FC1
:10216000C701B601DF91CF91FF90EF90DF90CF9044
:102170000C9444108F929F92AF92BF92EF92FF9275
:102180000F931F93CF93DF93CDB7DEB760970FB652
:10219000F894DEBF0FBECDBF88E0E2E3F1E0DE01E0
:1021A000119601900D928A95E1F78BE790E00E94DD
:1021B000C2038E010F5F1F4F7E0189E0E80EF11C04
:1021C000F801819191918F010E94EA0F813009F409
:1021D000B6C087E790E00E94C203E016F10681F7DF
:1021E00089E990E00E94C20383E890E00E94C20364
:1021F00024E630E044E650E064E670E084E690E0F7
:102200000E943F0CF82E6AE070E083FB882780F97B
:1022100090E00E9488106AE070E0F2FA882780F966
:1022200090E00E9488106AE070E0F1FA882780F957
:1022300090E00E9488106AE070E08F2D817090E03D
:102240000E94881081E890E00E94C20380E1EAE3E6
:10225000F1E0DE01119601900D928A95E1F78E0171
:102260000F5F1F4FF12CE12C812C83E0982EA12CC5
:10227000B12CF801819191918F010E94A9089C01D4
:10228000AFEFB0E00E944624A50194010E94BB2359
:102290006AE070E0C9010E948810F7E0EF16F104CF
:1022A00021F08FE790E00E94C2038FEFE81AF80A4E
:1022B000E8E0EE16F104E9F685E990E00E94C20339
:1022C00081E19AE50E94F30D69E370E00E946524C4
:1022D000CB016AE070E00E94881087E890E00E94DD
:1022E000C20381E990E00E94C2038DE890E00E9461
:1022F000C2030E9484017C010E94C5018C016AE036
:1023000070E0C7010E9488108BE890E00E94C20331
:102310006AE070E0C8010E94881060960FB6F894D9
:10232000DEBF0FBECDBFDF91CF911F910F91FF9008
:10233000EF90BF90AF909F908F900C94341089E7EE
:1023400090E049CF2091AC033091AD03DC011496AD
:102350004D915C91159724173507D9F4E091A803A6
:10236000F091A9036D917C913097D1F061157105C1
:1023700099F4232BC1F0808190E008C0232B99F0C1
:10238000FB01808190E091958195910921E0892B55
:1023900009F020E0822F0895CF010E947926F6CF20
:1023A0006115710559F721E0F5CF2091AC0330910B
:1023B000AD03232B39F421E0FC018081882361F0F7
:1023C00020E00AC0BC018091A8039091A9030E945B
:1023D000792621E0892BA1F7822F0895FC01448101
:1023E00055818091AC039091AD038417950780F0DF
:1023F0008091A8039091A903009751F060817181A9
:102400006115710529F00E94892621E0892B09F0C8
:1024100020E0822F0895EF92FF920F931F93CF93A6
:10242000DF937C0110E000E0C2EADEE7C701800F25
:10243000911F0E94A523C82788E09C2F9170D695F4
:10244000C795992321F091E0C92790EAD9278150B7
:10245000A1F70F5F1F4F0E30110541F7CE01DF913D
:10246000CF911F910F91FF90EF9008951F93CF93FD
:10247000DF93EC010E94A523182FCE0101960E9444
:10248000A523912FDF91CF911F9108950F931F9353
:10249000CF93DF93EC010E940B128C01CE010E96BC
:1024A0000E94361221E00817190709F020E0822F58
:1024B000DF91CF911F910F910895EF92FF920F93AB
:1024C0001F93CF93DF937C01C0E0D2E0CE010E9446
:1024D00036128E159F0531F48E01CE010E944612F0
:1024E000811107C06096C11584E0D80779F70FEF16
:1024F0001FEFC801DF91CF911F910F91FF90EF90D7
:102500000895CF92DF92EF92FF920F931F93CF9394
:10251000DF93F62EC72EE42E0E945D1297FD1AC09F
:10252000EC012296DF2C0F2D1C2DCE010E94A5233D
:10253000F80181938F0121968E2F8D198E15A8F3A6
:1025400081E0DF91CF911F910F91FF90EF90DF908D
:10255000CF90089580E0F5CFCF93DF93EC01888191
:102560009981009711F00E942A25198218821D82F4
:102570001C821B821A82DF91CF910895FC01808119
:102580009181009711F00C942A2508958BE892E030
:102590000C94BE120F931F93CF93DF938C01EB012A
:1025A000FC01808191810097E1F06881798161155A
:1025B0007105A9F0428153812C813D814217530757
:1025C00070F00E9482268C819D81F801958384831E
:1025D0001D821C82DF91CF911F910F9108950E945F
:1025E0002A2588819981F801918380838A819B8142
:1025F000938382838C819D81958384831982188241
:102600001B821A82E5CF0F931F93CF93DF93EC01C8
:1026100088819981009759F02A813B8126173707D5
:1026200030F081E0DF91CF911F910F9108958B01E0
:102630006F5F7F4F0E94B325009759F0998388837D
:102640001B830A832C813D81232B59F7FC011082C7
:10265000E8CF80E0E7CFEF92FF920F931F93CF93E5
:10266000DF9300D0CDB7DEB78C0169831A82FC01FD
:10267000E480F580FFEFEF1AFF0AB7010E94031311
:10268000882381F0F8012081318184819581BE0108
:102690006F5F7F4F820F931F0E948226F801F582A1
:1026A000E48281E00F900F90DF91CF911F910F9105
:1026B000FF90EF900895EF92FF920F931F93CF93A7
:1026C000DF93EC017B018A01BA010E94031381119F
:1026D0000BC0CE010E94AC12CE01DF91CF911F91B1
:1026E0000F91FF90EF9008951D830C83B7018881AF
:1026F00099810E948226F0CFFB0101900020E9F72A
:102700003197AF01461B570B0C945B13CF92DF92AE
:10271000EF92FF920F931F93CF93DF93EC016B0126
:102720007A014617570720F48D2D6A01E62EF82E00
:10273000198218821B821A821D821C8268EE71E047
:10274000CE010E947C130091AC031091AD03C01622
:10275000D10640F5E016F10608F48701E091A803E0
:10276000F091A903E00FF11FF08010826091A8039F
:102770007091A9036C0D7D1D61157105E9F0FB01D8
:1027800001900020E9F73197AF01461B570BCE01AE
:102790000E945B138091A8039091A903080F191F51
:1027A000F801F082CE01DF91CF911F910F91FF9040
:1027B000EF90DF90CF900895CE010E94AC12EACF47
:1027C000CF93DF93EC01198218821B821A821D823B
:1027D0001C8268EE71E00E947C130E94610497FDE8
:1027E00008C08A30910529F0682FCE010E942B1372
:1027F000F4CFCE01DF91CF910895EF92FF920F9326
:102800001F93CF93DF93EC018B01198218821B82F7
:102810001A821D821C82CB010E9471237C01BC01A3
:10282000CE010E940313811109C0CE01DF91CF9127
:102830001F910F91FF90EF900C94AC12FD82EC82EF
:10284000B80188819981DF91CF911F910F91FF90FD
:10285000EF900C946A23FF920F931F93CF93DF9313
:10286000EC01F62E08811981C8010E94A523F816F3
:1028700021F06F2DC8010E94AD23CE01DF91CF91D1
:102880001F910F91FF9008950F931F93CF93DF93A4
:10289000CDB7DEB7C055D1090FB6F894DEBF0FBE75
:1028A000CDBFFB019F938F9387818F9386818F93F9
:1028B00085818F9384818F9383818F9382818F937E
:1028C00081818F9380818F9389EE91E09F938F9385
:1028D0008E010F5F1F4F1F930F930E94A626C80102
:1028E0000E9427100E9434100FB6F894DEBF0FBE6E
:1028F000CDBFC05BDF4F0FB6F894DEBF0FBECDBFBC
:10290000DF91CF911F910F9108952F923F924F9297
:102910005F926F927F928F929F92AF92BF92CF926F
:10292000DF92EF92FF920F931F93CF93DF93CDB778
:10293000DEB76A970FB6F894DEBF0FBECDBFCE01EB
:1029400001966C0180E1D6011D928A95E9F770E24B
:10295000B72E61E070E080EE96E00E947F0A6AE0A8
:1029600070E080E090E00E9422040E948F0C82E0E0
:1029700090E00E94A9089A8B898B90E080E00E94E9
:10298000A9089C8B8B8B81E090E00E94A9089E8B0C
:102990008D8B83E090E00E94A908988F8F8B760141
:1029A000FE017196CF018601E98FFA8FD8014D9112
:1029B0005D916D917D918D01219131911497420F1F
:1029C000531F611D711D4D935D936D937C93139700
:1029D0008017910759F7BA94B110BBCF898C9A8CA4
:1029E00034EFA32E32E0B32E46E1C42E41E0D42EC4
:1029F0005CEE252E52E0352E60E2462E512C612CE5
:102A0000712CF70161917191819191917F01A301E5
:102A100092010E94BB23D4012D933D934D01F501FA
:102A2000819191915F01B901281739070CF4BC011C
:102A3000D50112976D937C93D6018D919D916D0177
:102A4000F901821793070CF4FC01D6011297ED935C
:102A5000FC93AB014950510939979A01DF010E945B
:102A60004624660F771F881F991F4E0F5F1F9A011C
:102A700050E040E00E942424275F3F4FF101219362
:102A800031931F010E151F0509F0BBCF698D7A8D9B
:102A900082E092E00E94441464EF72E08BE092E0E6
:102AA0000E94441466E171E084E192E00E944414C3
:102AB0006CEE72E08DE192E00E9444140E943410AA
:102AC0006A960FB6F894DEBF0FBECDBFDF91CF91EF
:102AD0001F910F91FF90EF90DF90CF90BF90AF903C
:102AE0009F908F907F906F905F904F903F902F902E
:102AF00008951F920F920FB60F9211242F933F93B8
:102B00004F935F936F937F938F939F93AF93BF93F5
:102B1000EF93FF9380E093E00E944903FF91EF91D0
:102B2000BF91AF919F918F917F916F915F914F91E5
:102B30003F912F910F900FBE0F901F9018951F92ED
:102B40000F920FB60F9211242F938F939F93EF93B1
:102B5000FF93E0911003F09111038081E09116033F
:102B6000F091170382FD1BC09081809119038F5F44
:102B70008F7320911A03821741F0E0911903F0E05E
:102B8000E050FD4F958F80931903FF91EF919F9136
:102B90008F912F910F900FBE0F901F9018958081ED
:102BA000F4CF1F920F920FB60F9211242F933F93E1
:102BB0008F939F93AF93BF938091830290918402F0
:102BC000A0918502B09186023091820223E0230F0A
:102BD0002D3758F50196A11DB11D209382028093D7
:102BE000830290938402A0938502B0938602809121
:102BF000870290918802A0918902B0918A02019681
:102C0000A11DB11D8093870290938802A093890231
:102C1000B0938A02BF91AF919F918F913F912F9175
:102C20000F900FBE0F901F90189526E8230F029665
:102C3000A11DB11DD2CF78941F920F920FB60F92A3
:102C400011242F933F934F935F936F937F938F93B1
:102C50009F93AF93BF93EF93FF9304B405FC0AC017
:102C60002BEF43E460E182EB92E00E94370798B5D6
:102C7000890F88BD8091BB02982F9F77D1F498B5BA
:102C8000890F88BD90E1F89484B58F7C892B84BD31
:102C9000FF91EF91BF91AF919F918F917F916F9134
:102CA0005F914F913F912F910F900FBE0F901F900A
:102CB000189581508093BB0290E2E5CF78941F92E3
:102CC0000F920FB60F9211242F933F934F935F9360
:102CD0006F937F938F939F93AF93BF93EF93FF93E4
:102CE00004B407FC0AC02DEF43E860E88CEB92E0E7
:102CF0000E94370797B5890F87BD8091C502982F2D
:102D00009F77D1F497B5890F87BD90E4F89484B587
:102D10008F73892B84BDFF91EF91BF91AF919F91EC
:102D20008F917F916F915F914F913F912F910F9074
:102D30000FBE0F901F90189581508093C50290E8A8
:102D4000E5CF1F920F920FB60F9211242F933F934E
:102D50004F935F936F937F938F939F93AF93BF93A3
:102D6000EF93FF934091830250918402609185021A
:102D70007091860280916F0290917002A091710211
:102D8000B0917202481759076A077B0718F080E074
:102D90000E94B309FF91EF91BF91AF919F918F91E5
:102DA0007F916F915F914F913F912F910F900FBE47
:102DB0000F901F901895EF93FF93E0910001F09111
:102DC00001010C94F116EF93FF93E0910901F0914A
:102DD0000A010C94F116EF93FF93E0910501F09135
:102DE00006011F920F920FB60F9211242F933F935B
:102DF0004F935F936F937F938F939F93AF93BF9303
:102E00000995BF91AF919F918F917F916F915F9144
:102E10004F913F912F910F900FBE0F901F90FF91F8
:102E2000EF911895E8EAF2E02491E4E9F2E0949158
:102E3000E0E8F2E0E491EE23C9F0222339F02330F8
:102E400001F1A8F4213019F1223029F1F0E0EE0F60
:102E5000FF1FE759FD4FA591B4912FB7F894EC915E
:102E6000811126C090959E239C932FBF08952730F3
:102E7000A9F02830C9F0243049F7209180002F7D37
:102E800003C0209180002F7720938000DFCF24B5EE
:102E90002F7724BDDBCF24B52F7DFBCF2091B00051
:102EA0002F772093B000D2CF2091B0002F7DF9CFA3
:102EB0009E2BDACFE0E0F3E01382128288EE93E0FB
:102EC000A0E0B0E084839583A683B7838EEC91E085
:102ED0009183808385EC90E09587848784EC90E0F3
:102EE0009787868780EC90E0918B808B81EC90E0D7
:102EF000938B828B82EC90E0958B848B86EC90E0B8
:102F0000978B868B118E128E138E148EE1EAF3E06E
:102F10008FEF808312821182EDE9F3E080EE91E081
:102F20009183808313821282E8EAF3E01182108297
:102F3000138212821582148268EE71E0CF010C9424
:102F40007C13CF93DF93CDB7DEB72E970FB6F894EF
:102F5000DEBF0FBECDBF789484B5826084BD84B5DA
:102F6000816084BD85B5826085BD85B5816085BD84
:102F700080916E00816080936E001092810080913C
:102F800081008260809381008091810081608093C4
:102F90008100809180008160809380008091B100E9
:102FA00084608093B1008091B00081608093B00014
:102FB00080917A00846080937A0080917A008260A8
:102FC00080937A0080917A00816080937A0080916A
:102FD0007A00806880937A001092C100E09110031B
:102FE000F091110382E08083E0910C03F0910D03D6
:102FF0001082E0910E03F0910F0380E18083109224
:103000001803E0911403F091150386E08083E091AA
:103010001203F0911303808180618083E091120399
:10302000F0911303808188608083E0911203F09116
:103030001303808180688083E0911203F091130371
:1030400080818F7D80830E94341062E370E080E095
:1030500090E00E94220487ED90E00E943810809159
:10306000910281110FC010928C0210928B0210926B
:103070008E0210928D021092900210928F0281E0C7
:10308000809391026CE170E08BE892E00E94031360
:10309000CE0101963C010E94E013B3018BE892E05F
:1030A0000E94CA12C3010E94BE121A8219821C8297
:1030B0001B821E821D8260918B0270918C026115B1
:1030C000710539F040918F0250919002C3010E9426
:1030D0005B134D815E8141155105B9F066E070E0EA
:1030E0004630510508F4BA0189819A81461B570B75
:1030F0005E834D83680F791F0E949726E981FA81CC
:103100008D819E81E80FF91F108209811A8148E0A4
:1031100050E06FED70E0C8010E947A23892B09F01E
:10312000B8C0C80108960E9443236B017C01C3010B
:103130000E94BE1288EE90E00E94C2034AE0C701DE
:10314000B6010E9444100E94341090E080E00E947A
:10315000A9080E94E10A6AE070E080E090E00E9425
:10316000220486E0EAE4F1E0D30101900D928A9511
:10317000E1F746E0B30184EE9BEF0E9481128111DA
:1031800090C082EF90E090930C0180930B0188E057
:10319000F30111928A95E9F748E0B30186E291E3E1
:1031A0000E9481126AEF70E080E090E00E942204A9
:1031B00087E69BE2909387008093860082EB809362
:1031C000800082E18093810084B1866084B990E0C0
:1031D00080E00E94390D68EC70E080E090E00E9491
:1031E000220490E080E00E94D10C68EC70E080E066
:1031F00090E00E9422040E94310D8CE992E09093AD
:103200009B0280939A028091A4039091A503A091C0
:10321000A603B091A703843CF9E09F07A105B1057F
:1032200020F484EC99E0A0E0B0E08093A4039093B4
:10323000A503A093A603B093A70380E38093A10303
:103240000E94F5070E94070B08EE13E061E270E0B0
:103250008CEB92E00E947F0AC8010E94C40B0E947E
:10326000F507C8010E94C40B4FE76FEF7FEF8FEFA8
:103270000E94D4070E943C0A8C339F4008F042C051
:10328000C801B4E096958795BA95E1F7081B190B2C
:10329000DDCF1FE3C12E12E4D12E1FE0E12EF12C71
:1032A00046CF0C81002E000C110B065A1F4FEB80ED
:1032B0000E2C000CFF086A81062E000C770B665A54
:1032C0007F4F8981082E000C990B0E943D02B801A6
:1032D000C7010E9406028D81813051F0823079F061
:1032E00081E09E81973709F080E0809399024FCF6B
:1032F00082EF90E090930C0180930B01F1CF8BEE65
:1033000090E0F8CF70E060E090E080E00E94FB0782
:1033100084E690E09093ED028093EC029093EF02AC
:103320008093EE029093F1028093F0029093F30267
:103330008093F202F0E68F2EFAEE9F2EA12CB12C94
:10334000ACEFEA2EFF24FA948091EA028823E9F197
:1033500088E090E00E94EA0F8823B9F184E090E0D1
:103360000E94EA0F882389F183E090E00E94860A98
:103370008EE291E00E9438108091CE022091CC0222
:103380009091CA023091C80239879A559A872B8743
:103390008A558C8782E08D878FEF8E8784EE9BEF36
:1033A0000E945D128C0197FF38C0C12CE2E0DE2E36
:1033B0008601C6010E944612882379F180E1C80E79
:1033C000D11CC11494E0D90699F78091E9028111CA
:1033D00064C188E090E00E94CD0F882309F48EC17B
:1033E0008091BF02803809F037C18091B5028038E2
:1033F00009F032C164E670E080E090E00E942204AF
:1034000084E090E00E94CD0F81112FC11092E8025C
:103410001092E70282E090E02EC11A8309836BEFDD
:10342000C3010E942B14C80101969A83898364EE1C
:10343000C3010E942B147E01E9E0EE0EF11C68012D
:10344000F2E0CF0ED11C480128E0820E911C5701FA
:10345000F50161915F01DA82C982C3010E942B14D8
:10346000FFEFCF1ADF0A8C149D0491F7C8010E9468
:103470000B12D82E9801225F3F4F3A832983692F80
:10348000C3010E942B14015F1F4F1A8309836D2D06
:10349000C3010E942B1484EE9BEF0E945D128C01ED
:1034A00097FDA3C046E0B30184EE9BEF0E9481121A
:1034B0008EE292E00E94271089E00E94B80340E16A
:1034C00064EE7BEF80E090E00E94441089E00E946F
:1034D000B80382E392E00E942710570126E0A20E73
:1034E000B11C6701F60161916F0170E090E080E02E
:1034F00040E10E94441080E20E94B803AC14BD0475
:1035000089F70E943410C8010E944612882309F4EA
:1035100041C08BE50E94B80360E170E0C8010E94E1
:1035200088108DE50E94B80389E00E94B803C801A5
:103530000E943612BC0190E080E040E10E944410FD
:1035400089E00E94B803B12CA12CC501800F911F06
:103550000E94A523682F70E090E080E040E10E9487
:10356000441080E20E94B803FFEFAF1ABF0A20E1C7
:10357000A216B10451F789E00E94B803C8010E9663
:103580000E943612BC0190E080E040E10E944410AD
:103590000E94341089E392E00E94271089E00E9483
:1035A000B80340E164EE7BEF80E090E00E944410BD
:1035B00089E00E94B80382E392E00E942710F7019D
:1035C00091917F01F30181913F01981711F40C94BF
:1035D000162388E292E00E94271080E20E94B8033E
:1035E000CE14DF0461F70E9434100FB6F894DEBFEA
:1035F0000FBECDBF83E091E00E943810E4E9F2E015
:103600002491E0E8F2E08491882399F090E0880F1B
:10361000991FFC01E750FF4FA591B491FC01E759B8
:10362000FD4F859194918FB7F894EC91E22BEC9338
:103630008FBF68EC70E080E090E00E94220481E09F
:103640000E94121762E370E080E090E00E94220482
:1036500080E00E941217EDCF1092E8021092E7026C
:103660001092E6021092E5020AC082E090E0909388
:10367000E8028093E7029093E6028093E5020E94BD
:10368000040A62E370E08CED95E00E947F0A62E339
:1036900070E080E090E00E94220480E093E00E94CD
:1036A000290318161906BCF480E093E00E94070372
:1036B000A82F8A3409F4FFC00CF0A9C0823409F4A1
:1036C000E0C00CF081C08E3209F41EC10CF060C065
:1036D0008C3209F4C5C50E94BA1084E690E00E94BD
:1036E000E60B80E090E0892B09F42ECE0E94350392
:1036F000882309F429CE0E94000026CE84E090E0C1
:103700000E94CD0F8823E9F08091BF02803809F034
:10371000A3CF8091B502803809F09ECF64E670E0B7
:1037200080E090E00E94220488E090E00E94CD0FAB
:1037300081119BCF82E090E09093E8028093E702B2
:103740008FCF82E090E00E94EA0F882309F4A5CF92
:1037500081E090E00E94EA0F882309F49ECF62E3A3
:1037600070E08CED95E00E947F0A8091B102882381
:1037700039F090E080E00E94980F1092B1028DCF56
:103780008AE590E00E94980F81E08093B10285CF96
:1037900080ED8A0F8A3008F09ECF0A2E000CBB0BFA
:1037A000D09722E736E00E9487242AE030E040E00C
:1037B00050E00E94BB23225A3E4F4F4F5F4F309341
:1037C00015012093140111C0873409F46AC084F4F0
:1037D000863409F080CF84E090E09093E8028093F3
:1037E000E7029093E6028093E5020E94040A73CFF9
:1037F000883409F45DC0893409F06DCF84E090E02D
:103800009093E8028093E70282E090E0EACF873568
:1038100009F465C0D4F48235E9F154F48C3409F02C
:103820005ACFF092E802E092E70284E090E0D9CF2C
:10383000833509F44BC0863509F04DCF68E873E154
:103840008CED95E00E947F0A46CF863709F455C07B
:103850006CF4883509F455C0813709F03CCF80ED10
:1038600097E09093150180931401BFCF873709F437
:103870003FC090E080E0A83709F02DCF0E94980F5C
:103880002ACFF092E802E092E702F092E602E0929C
:10389000E502ABCF84E090E09093E8028093E702EA
:1038A000F4CF82E090E09093E8028093E702BDCFEE
:1038B0008EEF9FEFF1CFF092E802E092E702EEEF99
:1038C000FFEFF093E602E093E5028FCF1092E8025B
:1038D0001092E7021092E6021092E50286CF4FE7BF
:1038E0006FEF7FEF8FEF0E94D4070E94070BF3CE9C
:1038F0004FE760E070E080E0F6CF8BE00E94B30914
:10390000EACE8AE590E0BACFC3010E94E013B3018A
:1039100088EA93E00E94CA12C3010E94BE1262E6C6
:1039200072E0C3010E94FD13C3010E94A211182F6F
:10393000C3010E94BE12112339F16EE170E08EE1E5
:1039400090E00E949B0A84E690E00E949B0D62EE4C
:103950007FEF82EE9FEF0E949B0A84E690E00E9438
:103960009B0D62EE7FEF8EE190E00E949B0A0E9429
:10397000F60B6EE170E082EE9FEF0E949B0A0E94C0
:10398000F60B0E942B0C8FC26BE572E0C3010E9404
:10399000FD13C3010E94EE11182FC3010E94BE1235
:1039A000112309F4C5C14091AC035091AD0367E008
:1039B00070E0C3010E94861309811A81C3010E942D
:1039C000BE1284E08093130186E080931201EFE33E
:1039D000F0E0F0931101E093100110930F010093B8
:1039E0000E0187EC92E090931F0180931E01E091FD
:1039F0001E01F0911F0180910E0190910F01099518
:103A000020910E0130910F018A3339F02F5F3F4F23
:103A100030930F0120930E01EACFC90101969093D4
:103A20000F0180930E01E0911E01F0911F01099595
:103A30008436E9F480910E0190910F0102969093E3
:103A40000F0180930E0160911E0170911F010E9471
:103A500074022091FC023091FD021216130614F438
:103A600020931301019690930F0180930E01E09132
:103A70001E01F0911F0180910E0190910F01099597
:103A80008F3601F580910E0190910F01029690936F
:103A90000F0180930E0160911E0170911F010E9421
:103AA00074022091FC023091FD02A901435051099A
:103AB0004530510510F420931201019690930F01A7
:103AC00080930E01E0911E01F0911F0180910E0183
:103AD00090910F0109958236E1F480910E01909149
:103AE0000F01029690930F0180930E0160911E01C9
:103AF00070911F010E9474022091FC023091FD021E
:103B00003093110120931001019690930F0180933F
:103B10000E01209110013091110150E040E0C501EB
:103B2000B4010E94BB23220F331F220F331F309397
:103B3000E1022093E0026CE0D62EE0911E01F091AC
:103B40001F0180910E0190910F010995882309F4BE
:103B5000AAC160911E0170911F0180910E01909188
:103B60000F010E9474029C0190930F0180930E013B
:103B70006091FC027091FD028091E0029091E1025F
:103B80006115710509F4C6C00E9465247093DF02B7
:103B90006093DE02E0911E01F0911F01C9010995B9
:103BA000E0E5F1E030E020E09191891709F442C5A9
:103BB0002F5F3F4F28303105B9F780E08093DD0259
:103BC00080910E0190910F01019690930F018093C7
:103BD0000E01E0911E01F0911F010995833271F4ED
:103BE0008091DD028F5F8093DD0280910E019091C4
:103BF0000F01019690930F0180930E01E0911E0139
:103C0000F0911F0180910E0190910F0109958E3264
:103C1000B1F42091DE023091DF02C90196958795BB
:103C2000820F931F9093DF028093DE0280910E013A
:103C300090910F01019690930F0180930E01E091F6
:103C40001E01F0911F0180910E0190910F010995C5
:103C500080330CF463C0E0911E01F0911F0180914C
:103C60000E0190910F0109958A330CF057C0E09135
:103C70001E01F0911F0180910E0190910F01099595
:103C800080538093DC0280910E0190910F01019688
:103C900090930F0180930E01E0911E01F0911F019E
:103CA00080910E0190910F0109958C3249F4809119
:103CB0000E0190910F01019690930F0180930E01D8
:103CC0006091DD020091DE021091DF02980150E068
:103CD00040E0662341F18091DC028450990BD89E2C
:103CE000F001D99EF00D1124E60FF11DEE0FFF1F1C
:103CF000E859FE4F608171818BE00E94BE090F5F21
:103D00001F4FB80190E080E00E9422048BE00E94E7
:103D1000B30913CF6091130170E036CF8091120187
:103D20008093DC02B9CFCA01B8010E94220405CFFA
:103D300063E572E0C3010E94FD13C3010E94A2115A
:103D4000182FC3010E94BE12112309F4BFC04FE710
:103D500065E575E585E590E00E94750D43E060E05E
:103D600070E08FEF90E00E94750D43E460E07FEF1C
:103D70008FEF90E00E94750D43E660E07FEF80E0FA
:103D800090E00E94750D42E76FEF7FEF80E090E0DA
:103D90000E94750D4AE76FEF70E080E090E00E94AE
:103DA000750D4EE76FEF70E0CB010E94750D04E0DA
:103DB00010E00E94CC0AD82E0E94CC0AC82E0E9485
:103DC000CC0A582E80E00E94AE07FC015082C182CE
:103DD000D2820E94CC0AD82E0E94CC0AC82E0E9401
:103DE000CC0A582E81E00E94AE07FC015082C182AD
:103DF000D2820E94CC0AD82E0E94CC0AC82E0E94E1
:103E0000CC0A582E86E00E94AE07FC015082C18287
:103E1000D2820E94CC0AD82E0E94CC0AC82E0E94C0
:103E2000CC0A582E85E00E94AE07FC015082C18268
:103E3000D2820E94CC0AD82E0E94CC0AC82E0E94A0
:103E4000CC0A582E84E00E94AE07FC015082C18249
:103E5000D2820E94CC0AD82E0E94CC0AC82E0E9480
:103E6000CC0A582E83E00E94AE07FC015082C1822A
:103E7000D2820E94CC0AD82E0E94CC0AC82E0E9460
:103E8000CC0A582E82E00E94AE07FC015082C1820B
:103E9000D2820E94070B84EF91E00E94E60B015052
:103EA000110909F086CF4091AC035091AD036091A8
:103EB000A8037091A90380E093E00E94CB020E94C6
:103EC000341084E690E00E94E60B05CC66E472E0D4
:103ED000C3010E94FD13C3010E94A211182FC30148
:103EE0000E94BE12112339F181E19AE50E94F30D7F
:103EF00069E370E00E9465246115710509F441C011
:103F000062337105F4F5673171056CF060ED77E0AF
:103F100080ED97E00E94FB070E94BA1082E390E0D8
:103F20000E94E60BE1CF62317105B4F760E378EFF0
:103F300080E398EFEFCF67E372E0C3010E94FD13C7
:103F4000C3010E94A211182FC3010E94BE121123A7
:103F5000F9F060ED77E080ED97E00E94FB0788EED6
:103F600093E00E949B0D84E690E00E94E60B60E3E4
:103F700078EF80E398EF0E94FB078CE29CEF0E94B1
:103F80009B0D70E060E090E080E00E94FB078BCF2B
:103F90006FE272E0C3010E94FD13C3010E94EE11A3
:103FA000182FC3010E94BE12112309F44DC0809145
:103FB000AC039091AD030797B9F40E94BA108AE55B
:103FC00090E00E94980F0E94BA1088EE93E00E9441
:103FD000E60B90E080E00E94980F0E94BA1082E306
:103FE00090E00E94E60B5FCF4DE050E06AE070E0A9
:103FF000C3010E94861389819A81009709F10E946A
:1040000043238B01C3010E94BE1241E150E06EE0E8
:1040100070E0C3010E94861389819A81212C312C82
:104020002101009719F00E9443231B01C3010E9444
:10403000BE1244EF51E0B101C8010E942C0E33CFF3
:1040400060E070E0CB01DDCF64E272E0C3010E946A
:10405000FD13C3010E94EE11182FC3010E94BE126E
:10406000112309F4A0C08091E402811145C06301CD
:104070000BE010E0A8014D5F5F4FB801CE0109963B
:104080000E94861389859A8520E030E0A901009777
:1040900021F00E9443239B01AC01A0E0B3E00E9409
:1040A000DA232FEF30E040E050E00E94BB23F6011E
:1040B000219331936F01CE0109960E94BE120C5FCD
:1040C0001F4F0B311105B1F68F8198852D813E81EF
:1040D0004B815C8169817A817093ED026093EC027F
:1040E0005093EF024093EE023093F1022093F002DE
:1040F0009093F3028093F2020EE110E00E948F0C85
:104100008093E30240E05BE86BE88091E2020E946A
:104110009A0BE091E302E150EE3008F041C0F0E08C
:10412000EC56FF4D0C947924CD20C820CD20A22040
:10413000D020D020C820C320D020D020D020C32021
:10414000D020A22068EE73E090E080E00E94FB07A0
:104150008091E202811108C081E090E00E949B0DF5
:104160000150110909F0CACF0E94BA1082E390E011
:104170000E94E60B8091E302882309F402CC8F3081
:1041800009F0BACFFECB68EE73E088E19CEFDECF9A
:1041900070E060E088EE93E0D9CF68E17CEFFACF81
:1041A00068EE73E0F7CF6DE172E0C3010E94FD138A
:1041B000C3010E94A211182FC3010E94BE12112335
:1041C000E1F16FEF70E080E00E94FA0F0E94851429
:1041D0006FEF7FEF80E00E94FA0F0E94851488E065
:1041E00090E00E94EA0F811118C00E948F0C40E0FD
:1041F00050E860E00E949A0B6AE570E080E090E091
:104200000E9422040E94F5070E94070B6AE070E0FA
:1042100080E090E00E942204E2CF62E370E080EE52
:1042200096E00E947F0A64E670E080E090E00E94E1
:10423000220481E08093E40236CE6FE072E0C30195
:104240000E94FD13C3010E94A211182FC3010E94F6
:10425000BE12112309F427CE81E08093E90223CE18
:10426000C3010E94E013B30188EA93E00E94CA12DE
:10427000C3010E94BE1280E492E00E94D5118823FF
:1042800009F473C086E0EAE4F1E0D30101900D92F5
:104290008A95E1F746E0B30184EE9BEF0E9481121C
:1042A0008981082E000C990B9093D5028093D4023B
:1042B0008A81082E000C990B865A9F4F9093D70243
:1042C0008093D6028B81082E000C990B9093D90213
:1042D0008093D8028C81082E000C990B865A9F4F30
:1042E0009093DB028093DA028D818093D3028E81DA
:1042F0008093D2028CE791E00E94C2036AE070E0F2
:104300008091D4029091D5020E94881089E791E0B3
:104310000E94C2036AE070E08091D6029091D702B9
:104320000E94881086E791E00E94C2036AE070E074
:104330008091D8029091D9020E94881083E791E081
:104340000E94C2036AE070E08091DA029091DB0281
:104350000E94881081E791E00E94C2030E943410FD
:1043600081E090E00E94860AB6C983E592E00E944F
:10437000D5118823B1F081E080930D018CE891E0A4
:104380000E94C2030E9434106AE570E090E080E071
:104390000E943D026AE570E090E080E00E94060223
:1043A000DFCF89E592E00E94D5118823B9F0809192
:1043B0000D01882381F08091D0029091D1029093D9
:1043C000C9028093C8028091C6029091C70290935F
:1043D000CD028093CC0289E991E0D2CF8FE592E0C3
:1043E0000E94D511882309F48EC010920D0180918E
:1043F000D0029091D1029093CB028093CA02809117
:10440000C6029091C7029093CF028093CE0282EBB6
:1044100091E00E94C2036AE070E08091C80290912E
:10442000C9020E9488108FEA91E00E94C2036AE0EC
:1044300070E08091CA029091CB020E9488108CEAB1
:1044400091E00E94C2036AE070E08091CC029091FA
:10445000CD020E94881089EA91E00E94C2036AE0BE
:1044600070E08091CE029091CF020E94881087EA7E
:1044700091E00E94C2030E943410C090CE02D090FE
:10448000CF020091CC021091CD026091CA027091CE
:10449000CB028091C8029091C9020E943D02B601F0
:1044A000C8010E94060280E093E00E9429031816CA
:1044B00019060CF455CF10E000E044EF51E0B801CC
:1044C000C8010E942C0E0E5E1F4F0C361105A9F775
:1044D00060ED77E080E090E00E9422040AE510E0C1
:1044E00044EF51E0B801C8010E942C0E025111099D
:1044F0000E3EFFEF1F07A1F760ED77E080E090E050
:104500000E942204D0CF85E692E00E94D511882334
:1045100041F082EC91E00E94381081E08093EA0241
:104520001FCF90E080E00E94B102FC0180818C34BA
:1045300009F016CF1A8619861C861B861E861D86D4
:1045400068EE71E0CE0109960E947C131A821982EE
:104550001C821B821E821D8268EE71E0C3010E94D4
:104560007C1303E010E0C8010E94B102FC018081CD
:10457000803261F0C8010E94B102FC016081CE016D
:1045800009960E942B130F5F1F4FEDCF8091AC0354
:104590009091AD030817190758F4C8010E94B102A1
:1045A000FC016081C3010E942B130F5F1F4FEECFF0
:1045B00089859A850E9425236C019093D10280936E
:1045C000D00289819A810E9425238C019093C70291
:1045D0008093C602C6010E94390DC8010E94D10C09
:1045E00087E092E00E94C2036AE070E08091D0020E
:1045F0009091D1020E94881085E092E00E94C2034F
:104600008DEF91E00E94C2036AE070E08091C602E3
:104610009091C7020E9488100E943410C3010E942A
:10462000BE12CE0109960E94BE129ACE8BE292E093
:104630000C94EB1A220F331FF901E85AFE4F8081C8
:10464000BDCA88EA93E00C94BE12FC018827992722
:10465000E89421912032E9F3293010F02E30C8F38C
:104660002B3241F02D3239F4689404C00E949D230E
:10467000820F911D219120532A30C0F31EF4909592
:1046800081959F4F08951F93FC0199278827BC01AE
:10469000E89411911032E9F3193010F01E30C8F38C
:1046A0001B3251F01D3249F4689406C00E948823E1
:1046B000610F711D811D911D119110531A30B0F3BE
:1046C0003EF490958095709561957F4F8F4F9F4FE9
:1046D0001F910895FB01DC0105900D920020E1F788
:1046E0000895FC0105900020E9F7809590958E0FC4
:1046F0009F1F0895FB01DC014150504030F08D9127
:104700000590801919F40020B9F7881B990B0895BA
:10471000592F482F372F262F660F771F881F991F75
:10472000660F771F881F991F620F731F841F951FC5
:10473000660F771F881F991F08957AE0979F902D25
:10474000879F802D910D11240895F999FECF92BD78
:1047500081BDF89A992780B50895262FF999FECF43
:104760001FBA92BD81BD20BD0FB6F894FA9AF99A8E
:104770000FBE01960895052E97FB1EF400940E942B
:10478000D22357FD07D00E94242407FC03D04EF407
:104790000C94D22350954095309521953F4F4F4F23
:1047A0005F4F089590958095709561957F4F8F4FDD
:1047B0009F4F08950E944624A59F900DB49F900D91
:1047C000A49F800D911D11240895B7FF0C94DA2346
:1047D0000E94DA23821B930B08952F923F924F92EF
:1047E0005F926F927F928F929F92AF92BF92CF9281
:1047F000DF92EF92FF920F931F93CF93DF93CDB78A
:10480000DEB7CA1BDB0B0FB6F894DEBF0FBECDBF01
:1048100009942A88398848885F846E847D848C84D2
:104820009B84AA84B984C884DF80EE80FD800C81DB
:104830001B81AA81B981CE0FD11D0FB6F894DEBFBE
:104840000FBECDBFED010895A1E21A2EAA1BBB1B1E
:10485000FD010DC0AA1FBB1FEE1FFF1FA217B3074C
:10486000E407F50720F0A21BB30BE40BF50B661F62
:10487000771F881F991F1A9469F760957095809526
:1048800090959B01AC01BD01CF010895A29FB0019D
:10489000B39FC001A39F700D811D1124911DB29F74
:1048A000700D811D1124911D0895DB018F939F933D
:1048B0000E94DA23BF91AF91A29F800D911DA39F0B
:1048C000900DB29F900D11240895AA1BBB1B51E1BE
:1048D00007C0AA1FBB1FA617B70710F0A61BB70B70
:1048E000881F991F5A95A9F780959095BC01CD0115
:1048F0000895EE0FFF1F0590F491E02D09940E949A
:104900004624332312F48A1B9B0B0C9489240E94A7
:104910004624B7FF0895821B930B08950F931F93AE
:10492000CF93DF938230910510F482E090E0E09124
:10493000B003F091B10330E020E0B0E0A0E03097A8
:1049400099F42115310509F44AC0281B390B24308C
:104950003105D8F58A819B816115710589F1FB01CB
:1049600093838283FE0111C04081518102811381B2
:1049700048175907E0F04817590799F4109761F064
:1049800012960C93129713961C933296CF01DF91D7
:10499000CF911F910F9108950093B0031093B1032D
:1049A000F4CF2115310551F04217530738F0A90112
:1049B000DB019A01BD01DF01F801C1CFEF01F9CFA1
:1049C0009093B1038093B003CDCFFE01E20FF31FAC
:1049D000819391932250310939832883D7CF209135
:1049E000AE033091AF03232B41F420912E0130917F
:1049F0002F013093AF032093AE0320912C0130910F
:104A00002D012115310541F42DB73EB740913001FC
:104A100050913101241B350BE091AE03F091AF03AF
:104A2000E217F307A0F42E1B3F0B2817390778F085
:104A3000AC014E5F5F4F2417350748F04E0F5F1FE4
:104A40005093AF034093AE03819391939FCFF0E0D7
:104A5000E0E09CCFCF93DF930097E9F0FC01329721
:104A600013821282A091B003B091B103ED0130E046
:104A700020E01097A1F420813181820F931F2091B3
:104A8000AE033091AF032817390709F061C0F093E6
:104A9000AF03E093AE03DF91CF910895EA01CE1703
:104AA000DF07E8F54A815B819E0141155105B1F7A9
:104AB000E901FB83EA8349915991C40FD51FEC1793
:104AC000FD0761F4808191810296840F951FE901B1
:104AD00099838883828193819B838A83F0E0E0E0DD
:104AE00012968D919C9113970097B9F52D913C9159
:104AF0001197CD010296820F931F2091AE03309142
:104B0000AF032817390739F6309751F51092B103E2
:104B10001092B003B093AF03A093AE03BCCFD38386
:104B2000C28340815181840F951FC817D90761F452
:104B30004E5F5F4F88819981480F591F5183408391
:104B40008A819B81938382832115310509F0B0CF3F
:104B5000F093B103E093B0039ECFFD01DC01C0CF21
:104B600013821282D7CFB0E0A0E0E9EBF5E20C941B
:104B7000EF238C01009751F4CB010E948E248C010D
:104B8000C801CDB7DEB7E0E10C940B24FC01E60FC1
:104B9000F71F9C0122503109E217F30708F49DC06A
:104BA000D901CD91DC911197C617D70798F0C53080
:104BB000D10530F3CE0104978617970708F3C61B7B
:104BC000D70B2297C193D1936D937C93CF010E9411
:104BD0002A25D6CF5B01AC1ABD0A4C018C0E9D1E56
:104BE000A091B003B091B103512C412CF12CE12CD8
:104BF000109731F58091AE039091AF038815990518
:104C000009F05CC04616570608F058C080912C0188
:104C100090912D01009741F48DB79EB740913001DE
:104C200050913101841B950BE817F90708F055C026
:104C3000F093AF03E093AE03F90171836083A0CFDB
:104C40008D919C91119712966C90129713967C906F
:104C50001397A815B90559F56C0142E0C40ED11C93
:104C6000CA14DB0420F1AC014A195B09DA0112967F
:104C7000159780F06282738251834083D9016D93CE
:104C80007C93E114F10471F0D7011396FC93EE9339
:104C9000129776CF22968C0F9D1FF9019183808306
:104CA000F301EFCFF093B103E093B00369CF48165F
:104CB000590608F42C017D01D3019ACFCB010E9443
:104CC0008E247C01009749F0AE01B8010E94702645
:104CD000C8010E942A25870153CF10E000E050CF81
:104CE000FB01DC0102C001900D9241505040D8F709
:104CF0000895FB01DC018D91019080190110D9F319
:104D0000990B0895FB01DC0101900D920020E1F761
:104D10000895FB01DC014150504030F08D9101902D
:104D2000801919F40020B9F7881B990B0895FB012D
:104D3000DC014150504048F001900D920020C9F72D
:104D400001C01D9241505040E0F70895AEE0B0E040
:104D5000ECEAF6E20C94FB230D891E8986E08C8335
:104D60001A8309838FEF9FE79E838D83AE01475E91
:104D70005F4F6F89788DCE0101960E94C9262F81E1
:104D80003885020F131FF80110822E96E4E00C9470
:104D90001724ABE0B0E0EFECF6E20C94ED237C01DD
:104DA0003B018A01FC0117821682838181FFC8C101
:104DB000CE0101965C01F7019381F30193FD85918A
:104DC00093FF81913F01882309F453C1853239F45F
:104DD00093FD859193FF81913F01853229F4B701BD
:104DE00090E00E94B928E7CF912C212C312CFFE1D3
:104DF000F31538F08B3211F190F4803209F18332DF
:104E000029F137FC3CC020ED280F2A3050F536FE42
:104E100020C08AE0989E200D1124922E06C08D326B
:104E200091F0803371F7689430F8F30193FD859128
:104E300093FF81913F018111DACF21C0689431F84D
:104E4000689432F8F2CF689433F8EFCF689434F86E
:104E5000ECCFEAE02E9E200D1124222E689435F826
:104E6000E4CF8E3229F436FC04C1689436F8DDCFE5
:104E70008C3619F4689437F8D8CF8836B1F2982F69
:104E80009F7D95549330E0F08336A1F18337C1F1D3
:104E9000833509F063C02801F2E04F0E511CF80180
:104EA000C080D180692D70E036FC02C06FEF7FEFCB
:104EB000C6010E94A3284C01689437F882010AC0F9
:104EC0000C5F1F4FFFE3F98388248394912C6501C5
:104ED000E89437F833FE2DC0522C8114910471F5FB
:104EE000552009F468CFB70180E290E00E94B9280C
:104EF0005A94F6CFF801808189830E5F1F4FE4CF6B
:104F00002801F2E04F0E511CF801C080D180692DBC
:104F100070E036FC02C06FEF7FEFC6010E94AE2842
:104F20004C018201D5CFB70180E290E00E94B92800
:104F30002A942814190409F0B0F7CECFF60137FCF3
:104F4000859137FE81916F01B70190E00E94B928E9
:104F500051105A94F1E08F1A9108BFCF843619F09E
:104F6000893609F077C0F80137FE6BC06081718126
:104F7000828193810C5F1F4FF32DFF763F2E97FFA9
:104F800009C090958095709561957F4F8F4F9F4F89
:104F9000689437F82AE030E0A5010E94E928C82E7D
:104FA000CA188C2C432C36FE0CC0E89440F8C91467
:104FB00040F434FE05C032FC03C0F32DFE7E4F2EBC
:104FC000892C44FE95C0FE01EC0DF11D80818033DB
:104FD00009F087C0242D297E422E842D8870582EFA
:104FE00043FC95C040FE8FC09C2C821418F42C0CFE
:104FF000922C981844FE91C0B70180E390E00E9483
:10500000B92842FE09C088E790E041FE02C088E569
:1050100090E0B7010E94B928C91408F48AC0CA9464
:10502000D12C9FEFC91AD90ACA0CDB1CF601829158
:105030006F01B70190E00E94B928AC14BD04B1F72C
:105040004FCF60817181072E000C880B990B0E5F8A
:105050001F4F92CFD32CE894D4F82AE030E0853764
:1050600039F1232D297FD22E8F3601F148F488356E
:10507000A9F0F701868197812B96E2E10C9409242F
:10508000803749F08837A9F7D4FE02C06894D2F877
:1050900020E130E00DC06894D4F8F6CF34FE03C0B0
:1050A000822F8660D82E20E132E002C028E030E076
:1050B000F801D7FE0FC060817181828193810C5FFE
:1050C0001F4FA5010E94E928C82ECA183D2CE8945C
:1050D00037F867CF6081718190E080E00E5F1F4FED
:1050E000F0CF42FC02C0839478CF8394839475CF31
:1050F000842D867809F471CFF6CFB70180E290E075
:105100000E94B92883948214C0F3512C73CF522C7F
:105110005818821408F46ECFF8CF842D867809F4DD
:105120007BCF8BE241FE80E247FC8DE2B70190E04D
:1051300071CFB70180E390E00E94B9289A946CCFB8
:105140008FEF9FEF99CFFC010590615070400110E7
:10515000D8F7809590958E0F9F1F0895FC016150A0
:10516000704001900110D8F7809590958E0F9F1F89
:1051700008950F931F93CF93DF93182F092FEB01FF
:105180008B8181FD09C01FEF0FEF812F902FDF91E1
:10519000CF911F910F91089582FF14C02E813F81FE
:1051A0008C819D81281739073CF4E881F981CF0172
:1051B00001969983888310838E819F8101969F83B6
:1051C0008E83E3CFE885F985812F0995892BA1F39B
:1051D000DACFFA01AA27283051F1203181F1E89481
:1051E0006F936E7F6E5F7F4F8F4F9F4FAF4FB1E0DA
:1051F0003ED0B4E03CD0670F781F891F9A1FA11DD5
:10520000680F791F8A1F911DA11D6A0F711D811DD5
:10521000911DA11D20D009F468943F912AE0269F9A
:1052200011243019305D3193DEF6CF010895462FF9
:105230004770405D4193B3E00FD0C9F7F6CF462FDA
:105240004F70405D4A3318F0495D31FD4052419343
:1052500002D0A9F7EACFB4E0A69597958795779500
:105260006795BA95C9F700976105710508959B0187
:10527000AC010A2E06945795479537952795BA9510
:10528000C9F7620F731F841F951FA01D089511E0B9
:10529000C9E5D1E004C0FE010E9479242196CA35F7
:0852A000D107C9F7F894FFCF14
:1052A800030A013905030AFFFF030AEB0001E801BD
:1052B8003F000504D007E703E703E703E703C70256
:1052C80000000000D007E803E803D0070000B2039D
:1052D800800008000400020001000600040002002B
:1052E800000001000300050007000000000001FFA6
:1052F800636465666761627001000300050006006B
:1053080008000A000C000000000006011501260133
:1053180037014A015D01720188019F01B801D2017C
:10532800EE010B022A024B026E029302BA02E40259
:1053380010033F037003A403DC0317045504970408
:10534800DD0427057505C80520067D06E006490722
:10535800B8072D08A9082D09B9094D0AEA0A900BC2
:10536800400CFA0CC00D910E6F0F000000006B038B
:10537800CB02F802DD03290307031B03000000002A
:10538800E306E00693040D0A0028202534642C2047
:105398002534642C202534642C20253464202925C8
:1053A8007300203D2069724E6F7700203D2069729E
:1053B8004D617800203D2069724D696E00203D20C6
:1053C80069724C6576656C007878005F5F0053728F
:1053D800630020202020202000566572696679002D
:1053E8004772697070657243616C69627261746951
:1053F8006F6E0053746570310053746570320053DA
:0C5408007465703300537465703400004C
:00000001FF