:100000000C9448070C9470070C9470070C94C12A48
:100010000C94B92A0C94B12A0C9470070C948D2A74
:100020000C9470070C9470070C9470070C94700774
:100030000C9470070C9470070C944A2A0C94072AAD
:100040000C949E280C9470070C946C280C944628F1
:100050000C9470070C9470070C9470070C94700744
:100060000C94E8280C9470074572726F72004F6B05
:1000700000496E69740056617269616E6365004D76
:10008000415834343636094D65616E00FFFF00007B
:10009000204E00005C20BE023018C300F60F3B006B
:1000A000A10A1500600708005C05040011040200A5
:1000B0003503010000000A000000050000000000F8
:1000C000000005000000071626374858677F97A6EE
:1000D000B5C7D8E7F600F8F62A3F68F57A0006FFBC
:1000E000FE0003000000650054FFEF0000FA8000EE
:1000F0000B12820001030C30C30A74562D0D62DB13
:10010000C716F4BA023883F8833000F883258EF8D6
:10011000833000F883FFFFFFFF0CBDD811240004DB
:10012000001A8279A10036003C0000000000100097
:100130000038836FA2003E03304000000002CAE393
:10014000093E800000200000000000000040000088
:1001500000600000001FA4E8E4FFF5DCB9005B7953
:10016000CF1F3F787600867C5A00862347FAB986EF
:10017000310074878A0000000000004305FFFFE99A
:10018000A800002182FAB84D46FFFADF3DFFFFB21A
:10019000B3000000003FFFBA98005DAC08000A639E
:1001A0007800014621FFFF0000000042B500060074
:1001B00064006400061406029F0F479132D90E9F17
:1001C000C91DCF4C343BB67AE80064000600C80075
:1001D000000000FFFE100000000000000000000012
:1001E000000000000000070000FFF10000FA4600D8
:1001F00000A2B800001000000004D6000004CC00EB
:100200000004CC000000000000000000000000001E
:1002100000000000000006000200050007000000CA
:100220000000640000000000000000000C00050059
:1002300064002000000000000000000000000040FA
:10024000000000030000000032F8980000FF650085
:1002500000830F000000060000FFF10000FA4600D6
:1002600000A2B80000000000000000000000000034
:10027000000000000000000032000000000000004C
:100280000000001000000000010000000D0000B29E
:100290006A000200000001FB83007C0000FB15FCEB
:1002A000001FB4FF83000000010065000700640325
:1002B000E8006400280000FFFD0000000016A00018
:1002C000000000000000001000002F0000000001EE
:1002D000F40000100000280000FFFF4581FFFFFA36
:1002E000720000000000000000004400010005BA98
:1002F000C6004778A20000000000000000000006D1
:100300000000000014000023BB002EA25B000005CB
:1003100068000BCF490004FFFD0002000000000050
:100320000200000000001B000000000000000000B0
:10033000000000000000640007000800060006FF3F
:10034000FE000000000000000000000000000000AF
:10035000000000000000000000000000000000009D
:10036000000000000000000000000000000000008D
:100370000000000000002EA25B00000568000BCF0B
:10038000490000000000F8F62A3F68F57A0004FFF3
:10039000FD00020000001B00000000000000000043
:1003A00000000E000EFFFFFFCF0004000000000061
:1003B00032FFFFFF9C00004305000000000000002A
:1003C0000100000064FFE5000000000000000000E4
:1003D000000000000000000001000000000001001B
:1003E000000000000000018000000180000001808A
:1003F00000002426D30001000100000000000600D8
:10040000100096003C00000000000000000000000A
:10041000001F9E655D0C0A4E68CDCF7709501667A8
:1004200059C619CE82000000000000000000000044
:10043000000047711C000000000000000017D78476
:1004400000030000000011DC4703000000C7938F89
:100450009D1E1B1C19FFFFFFFF000000000EDFA404
:10046000381F9E655D000000000047711C020318E4
:1004700085000040000000000000000003000000B4
:1004800000000000003FFFFFFDFFFFF4C9FFFFBCBD
:10049000F000010C0F000000000000000000000050
:1004A000000000000000000000000000000000004C
:1004B0000000000000F5B7BAB3677DDF7E72902EB2
:1004C000554CF6E688000000000000000000000027
:1004D0000000000000D8DCB4B8B0D8B9ABF3F8FA2B
:1004E000B3B7BB8E9EAEF132F51BF1B4B8B08097B6
:1004F000F1A9DFDFDFAADFDFDFF2AA4CCD6CA90CA8
:10050000C92C97F1A989264666B28999A92D557DEE
:10051000B0B08AA896365676F1BAA3B4B280C0B805
:10052000A89711B28398BAA3F0240844106418B2B3
:10053000B9B49883F1A329557DBAB5B1A38393F0DB
:10054000002850F5B2B6AA839328547CF1B9A3824F
:100550009361BAA2DADEDFDB819AB9AEF56068702A
:10056000F1DABAA2DFD9BAA2FAB9A38292DB31BA20
:10057000A2D9BAA2F8DF85A4D0C1BBAD83C2C5C7DA
:10058000B8A2DFDFDFBAA0DFDFDFD8D8F1B8AAB3C7
:100590008DB4980D355DB2B6BAAF8C96198F9FA702
:1005A0000E161EB49AB8AA872C547CBAA4B08AB688
:1005B00091325676B28494A4C808CDD8B8B4B0F1BC
:1005C0009982A82D557D98A80E161EA22C547C92B7
:1005D000A4F02C5078F184A898C4CDFCD80DDBA8E9
:1005E000FC2DF3D9BAA6F8DABAA6DED8BAB2B68626
:1005F00096A6D0F3C841DAA6C8F8D8B0B4B882A895
:1006000092F52C548898F135D9F418D8F1A2D0F885
:10061000F9A884D9C7DFF8F883C5DADF69DF83C1B9
:10062000D8F40114F1A8824EA884F311D182F5D92F
:1006300092289788F109F41C1CD884A8F3C0F9D13A
:10064000D99782F129F40DD8F3F9F9D1D982F4C2FE
:1006500003D8DEDF1AD8F1A2FAF9A88498D9C7DF47
:10066000F8F8F883C7DADF69DFF883C3D8F4011438
:10067000F198A8822EA884F311D182F5D9925097CF
:1006800088F109F41CD884A8F3C0F8F9D1D997826D
:10069000F149F40DD8F3F9F9D1D982F4C403D8DEC5
:1006A000DFD8F1AD8898CCA809F9D98292A8F57C59
:1006B000F1883ACF944A6E98DB6931DAADF2DEF90F
:1006C000D88795A8F221D1DAA5F9F417D9F1AE8E21
:1006D000D0C0C3AE82C684C3A88595C8A588F2C021
:1006E000F1F4010EF18E9EA8C63E56F554F18872C3
:1006F000F40115F19845856EF58E9E0488F14298B7
:100700005A8E9E068869F4011CF1981E1108D0F5D6
:1007100004F11E970202983625DBF9D985A5F3C1AD
:10072000DA85A5F3DFD88595A8F309DAA5FAD8828A
:1007300092A8F578F1881A849F26889821DAF41D0A
:10074000F3D8879F39D1AFD9DFDFFBF9F40CF3D8A9
:10075000FAD0F8DAF9F9D0DFD9F9D8F40BD8F38761
:100760009F39D1AFD9DFDFF41DF3D8FAFCA869F9BE
:10077000F9AFD0DADEFAD9F88F9FA8F1CCF398DB85
:1007800045D9AFDFD0F8D8F18F9FA8CAF38809DA2E
:10079000AF8FCBF8D8F2AD978D0CD9A5DFF9BAA6FB
:1007A000F3FAF412F2D8950DD1D9BAA6F3FADAA574
:1007B000F2C1BAA6F3DFD8F1BAB2B68696A6D0CA0D
:1007C000F349DAA6CBF8D8B0B4B8D8AD84F2C0DF1C
:1007D000F18FCBC3A8B2B68696C8C1CBC3F3B0B471
:1007E0008898A821DB718D9D71859521D9ADF2FA8C
:1007F000D88597A828D9F408D8F28D29DAF405D934
:10080000F285A4C2F2D8A88D9401D1D9F411F2D8FE
:100810008721D8F40AD8F28498A8C801D1D9F41154
:10082000D8F3A4C8BBAFD0F2DEF8F8F8F8F8F8F8BF
:10083000F8D8F1B8F6B5B9B08A95A3DE3CA3D9F8DB
:10084000D85CA3D9F8D87CA3D9F8D8F8F9D1A5D920
:10085000DFDAFAD8B18530F7D9DED8F830ADDADE94
:10086000D8F2B48C99A32D557DA083DFDFDFB5913D
:10087000A0F629D9FBD8A0FC29D9FAD8A0D051D903
:10088000F8D8FC51D9F9D879D9FBD8A0D0FC79D9BE
:10089000FAD8A1F9F9F9F9F9A0DADFDFDFD8A1F880
:1008A000F8F8F8F8ACDEF8ADDE8393AC2C547CF1AC
:1008B000A8DFDFDFF69D2CDAA0DFD9FADB2DF8D830
:1008C000A850DAA0D0DED9D0F8F8F8DB55F8D8A8CF
:1008D00078DAA0D0DFD9D0FAF8F8F8F8DB7DF8D8CC
:1008E0009CA88CF530DB38D9D0DEDFA0D0DEDFD895
:1008F000A848DB58D9DFD0DEA0DFD0DED8A868DB7F
:1009000070D9DFDFA0DFDFD8F1A888902C547C9865
:10091000A8D05C38D1DAF2AE8CDFF9D8B087A8C1A4
:10092000C1B188A8C6F9F9DA36D8A8F9DA36D8A854
:10093000F9DA36D8A8F9DA36D8A8F9DA36D8F78D40
:100940009DADF818DAF2AEDFD8F7ADFA30D9A4DEF3
:10095000F9D8F2AEDEFAF983A7D9C3C5C7F1889BEF
:10096000A77AADF7DEDFA4F8849408A797F300AE6A
:10097000F29819A488C6A39488F632DFF28393DB39
:1009800009D9F2AADFD8D8AEF8F9D1DAF3A4DEA7F4
:10099000F1889B7AD8F38494AE19F9DAAAF1DFD8FA
:1009A000A881C0C3C5C7A39283F628ADDED9F8D805
:1009B000A350ADD9F8D8A378ADD9F8D8F8F9D1A11A
:1009C000DADEC3C5C7D8A18194F818F2B089ACC3E8
:1009D000C5C7F1D8B8B4B09786A8319B069907ABC4
:1009E0009728889BF00C201440B0B4B8F0A88A9ADD
:1009F000285078B79BA829517924705944693864E4
:100A00004831F1BBAB88002C547CF0B38BB8A80400
:100A1000285078F1B088B49726A85998BBABB38B0F
:100A200002264666B0B8F08A9CA82951798B2951D4
:100A3000798A2470598B2058718A4469388B3940DF
:100A4000688A6448318B30496088F1AC002C547C52
:100A5000F08CA804285078F1889726A85998AC8C77
:100A600002264666F0899CA8295179247059446968
:100A700038644831A98809205970AB11384069A8F9
:100A8000193148608CA83C415C207C00F1879819A2
:100A900086A86E767EA999882D557DD8B1B5B9A363
:100AA000DFDFDFAED0DFAAD0DEF2ABF8F9D9B08756
:100AB000C4AAF1DFDFBBAFDFDFB9D8B1F1A3978EF6
:100AC00060DFB084F2C8F8F9D9DED89385F14AB175
:100AD00083A308B5839A0810B79F10D8F1B0BAAEB7
:100AE000B08AC2B2B68E9EF1FBD9F41DD8F9D90CEA
:100AF000F1D8F8F8AD61D9AEFBD8F40CF1D8F8F81C
:100B0000AD19D9AEFBDFD8F416F1D8F8AD8D61D9A7
:100B1000F4F4ACF59C9C8DDF2BBAB6AEFAF8F40B6E
:100B2000D8F1AED0F8AD51DAAEFAF8F1D8B9B1B625
:100B3000A3839C08B9B1839AB5AAC0FD3083B79F3F
:100B400010B58B93F20202D1ABDADED8F1B080BAE5
:100B5000ABC0C3B284C1C3D8B1B9F38BA391B609FA
:100B6000B4D9ABDEB0879CB9A3DDF1B38B8B8B8B93
:100B70008BB08720283038B28BB69BF2A3C0C8C296
:100B8000C4CCC6A3A3A3F1B087B59AD8F39BA3A303
:100B9000DCBAACDFB9A3FEF2ABC4AAF1DFDFBBAFB6
:100BA000DFDFA3A3A3D8D8D8BBB3B7F1AAF9DAFF84
:100BB000D9809AAA28B48098A720B79787A8668872
:100BC000F07951F1902C870CA781976293F07171A5
:100BD0006085940129517990A5F1284C6C870C957A
:100BE000188578A38390284C6C886CD8F3A2820077
:100BF000F210A8921980A2F2D926D8F188A84DD96E
:100C000048D896A83980D93CD89580A839A6869826
:100C1000D92CDA87A72CD8A8899519A980D938D8D2
:100C2000A88939A980DA3CD8A82EA83990D90CD83F
:100C3000A8953198D90CD8A809D9FFD801DAFFD8DE
:100C40009539A9DA26FFD890A80D8999A81080981F
:100C500021DA2ED88999A83180DA2ED8A886963143
:100C600080DA2ED8A8873180DA2ED8A88292F34174
:100C700080F1D92ED8A882F31980F1D92ED882AC70
:100C8000F3C0A28022F1A62EA72EA92298A829DAC5
:100C9000ACDEFFD8A2F22AF1A92E8292A8F231800E
:100CA000A696F1D900AC8C9C0C30ACDED0DEFFD81F
:100CB0008C9CACD010ACDE8092A2F24C82A8F1CA1F
:100CC000F235F19688A6D900D8F1FF4D505536304F
:100CD00035300000000000250028002B0000000037
:100CE00000240027002A004150445339393630008F
:100CF00001FF0101000001FF0001090001100001D6
:100D000011000124010125FF01750001FF01014EC1
:100D10002C01480001302001FF000130090154007E
:100D200001310401320301408301462501600001C5
:100D30002700015006015100015296015608015743
:100D4000300161000162000164000165000166A0DC
:100D500001FF010122320147140149FF014A00014C
:100D6000FF00017A0A017B0001782101FF010123C4
:100D7000340142000144FF0145260146050140407F
:100D8000010E0601201A01434001FF000134030156
:100D9000354401FF01013104014B09014C05014DAE
:100DA0000401FF00014400014520014708014828D3
:100DB0000167000170040171010172FE01760001FA
:100DC000770001FF01010D0101FF00018001010118
:100DD000F801FF01018E0101000101FF0001800007
:100DE000000000564C35334C30780054656D70006F
:100DF000517778797A004778797A004178797A0062
:100E00004D50553630353000444F574E004C454616
:100E10005400524947485400555000676573747533
:100E200072650050726F7800415044533939363042
:100E3000095247424300564C35334C307800444306
:100E40004D6F746F7200000000002300260029001F
:100E50000404040404040404020202020202030360
:100E60000303030301020408102040800102040868
:100E700010200102040810200000000800020100F8
:100E8000000304070000000000000000E82ABE3450
:100E900011241FBECFEFD8E0DEBFCDBF11E0A0E030
:100EA000B1E0EEE8FFE602C005900D92AE33B10767
:100EB000D9F723E0AEE3B1E001C01D92A939B20732
:100EC000E1F717E0C7E4D7E004C02197FE010E94D4
:100ED000A735C634D107C9F70E948A2B0C94BA37BC
:100EE0000C940000089508954F925F926F927F9244
:100EF0008F929F92AF92BF92CF92DF92EF92FF922A
:100F00000F931F93CF93F9010FEF1FEF9801008309
:100F10001183228333834A015B01B3E0B694A79423
:100F200097948794BA95D1F76A017B0127E0C22292
:100F3000DD24EE24FF2495018401C0E00630110574
:100F40002105310508F041C0C1113FC0DC01A00FEF
:100F5000B11F6C91412C512C320180169106A206D2
:100F6000B30649F470E00C2C02C0759567950A949D
:100F7000E2F726013701462F50E060FF17C0B901A4
:100F8000A801A3E0440F551F661F771FAA95D1F74C
:100F9000440E551E661E771E408251826282738205
:100FA000C1E00F5F1F4F2F4F3F4FC8CFBA0175955C
:100FB00067954FEF441A540A640A740A48E04416CD
:100FC000510461047104B9F6ECCFCF911F910F91D8
:100FD000FF90EF90DF90CF90BF90AF909F908F9059
:100FE0007F906F905F904F9008950895AF92BF9259
:100FF000CF92DF92EF92FF920F931F93CF93DF93E5
:101000006C017B018B01040F151FEB015E01AE1813
:10101000BF08C017D10759F06991D601ED91FC9135
:101020000190F081E02DC6010995892B79F7C50162
:10103000DF91CF911F910F91FF90EF90DF90CF90B4
:10104000BF90AF900895FC01538D448D252F30E063
:10105000842F90E0821B930B541710F0CF960895C5
:1010600001970895FC01918D828D981761F0A28DF2
:10107000AE0FBF2FB11D5D968C91928D9F5F9F73B8
:10108000928F90E008958FEF9FEF0895FC01918D6E
:10109000828D981731F0828DE80FF11D858D90E0DB
:1010A00008958FEF9FEF0895FC01918D228D892F78
:1010B00090E0805C9F4F821B91098F739927089560
:1010C00085E292E00E94540821E0892B09F420E097
:1010D000822F089580E090E0892B29F00E9460081B
:1010E00081110C9400000895FC01A48DA80FB92F64
:1010F000B11DA35ABF4F2C91848D90E001968F7340
:101100009927848FA689B7892C93A089B1898C915E
:10111000837080648C93938D848D981306C00288AD
:10112000F389E02D80818F7D80830895EF92FF9277
:101130000F931F93CF93DF93EC0181E0888F9B8DFA
:101140008C8D98131AC0E889F989808185FF15C0B4
:101150009FB7F894EE89FF896083E889F9898081D7
:101160008370806480839FBF81E090E0DF91CF91A6
:101170001F910F91FF90EF900895F62E0B8D10E0C8
:101180000F5F1F4F0F731127E02E8C8D8E110CC037
:101190000FB607FCFACFE889F989808185FFF5CF82
:1011A000CE010E947408F1CFEB8DEC0FFD2FF11DE5
:1011B000E35AFF4FF0829FB7F8940B8FEA89FB89BF
:1011C00080818062CFCF0F931F93CF93DF938C01E9
:1011D000D0E0C0E0F801EC0FFD1F6491662341F000
:1011E00085E292E00E949608892B11F02196F2CFB9
:1011F000CE01DF91CF911F910F910895CF93DF938F
:10120000EC01888D8823B9F0AA89BB89E889F9891E
:101210008C9185FD03C0808186FD0DC00FB607FC53
:10122000F7CF8C9185FFF2CF808185FFEDCFCE0186
:101230000E947408E9CFDF91CF910895833081F047
:1012400028F4813099F08230A9F008958730A9F010
:101250008830C9F08430B1F4809180008F7D03C064
:10126000809180008F7780938000089584B58F7778
:1012700084BD089584B58F7DFBCF8091B0008F77BA
:101280008093B00008958091B0008F7DF9CF1F93B7
:10129000CF93DF93282F30E0F901E858F14F849184
:1012A000F901EC59F14FD491F901E05BF14FC49190
:1012B000CC23A9F0162F81110E941E09EC2FF0E01B
:1012C000EE0FFF1FED52F34FA591B4918FB7F89435
:1012D000EC91111108C0D095DE23DC938FBFDF9114
:1012E000CF911F910895DE2BF8CF2091060190E455
:1012F000299F900111248E50822B80937C00809135
:101300007A00806480937A0080917A0086FDFCCF19
:10131000809178009091790008953FB7F89480917A
:10132000BE019091BF01A091C001B091C10126B54D
:10133000A89B05C02F3F19F00196A11DB11D3FBF0D
:10134000BA2FA92F982F8827BC01CD01620F711DDC
:10135000811D911D42E0660F771F881F991F4A95D6
:10136000D1F708958F929F92AF92BF92CF92DF9262
:10137000EF92FF926B017C010E948D094B015C0191
:10138000C114D104E104F104B9F00E948D09681977
:1013900079098A099B09683E73408105910580F3AC
:1013A00021E0C21AD108E108F10888EE880E83E036
:1013B000981EA11CB11CE4CFFF90EF90DF90CF905E
:1013C000BF90AF909F908F9008952FB7F894609141
:1013D000BA017091BB018091BC019091BD012FBFFA
:1013E00008950F931F930E94E50960932D02709357
:1013F0002E0280932F029093300285E292E00E94A9
:10140000320897FF1DC00E94E50900912D0210913E
:101410002E0220912F0230913002601B710B820B43
:10142000930B0091290210912A0220912B023091F6
:101430002C026017710782079307F8F28FEF9FEF76
:101440001F910F910895CF92DF92EF92FF920F9329
:101450001F938B019C0180E090E0A0E0B0E40817AE
:1014600019072A073B0740F442E0B695A7959795E0
:1014700087954A95D1F7F3CF40E050E0BA01009745
:10148000A105B105F9F06A017B01C80ED91EEA1E5B
:10149000FB1E76956795579547950C151D052E05EE
:1014A0003F0540F00C191D092E093F09480F591F2F
:1014B0006A1F7B1FE2E0B695A79597958795EA95F9
:1014C000D1F7DDCFCB01BA011F910F91FF90EF90C3
:1014D000DF90CF90089526E096958795779567954C
:1014E0002A95D1F7FB01EE0FFF1FEE0FFF1FEA5405
:1014F000FF4F459155916591749181E0452B462BA5
:10150000472B09F480E008958091D3019091D40194
:10151000891B990B0895089520919601260F332772
:10152000331F21323105ECF420911F02FC0190E0C1
:1015300080E0243069F082E00895A0919601219125
:10154000AC014A585E4FA40FB52FB11D2C930196E4
:10155000861798F380919601680F6093960180E05A
:10156000089581E0089510921F0281E08093FE01AA
:101570001092F90161E082E10E94470961E083E194
:101580000E944709E9EBF0E080818E7F80838081B3
:101590008D7F808388E48093B80085E48093BC00CD
:1015A00008951092D4011092D3011092D601109296
:1015B000D5010E94B30A82E797E09093D20180930D
:1015C000D10183E797E09093D0018093CF010895F4
:1015D000CF93DF9391E0909375018823B9F0C09188
:1015E000B800D091BA008091BC008A7B8093BC0087
:1015F00060E082E10E94470960E083E10E944709C0
:101600000E94B30AD093BA00C093B800DF91CF9183
:101610000895CF92DF92EF92FF920F931F93CF9393
:10162000DF93D82FC62F613208F098C00E948D0931
:101630006B017C0180911F0281116BC081E080935E
:101640001F028093FE019FEF9093FD011092FC0119
:101650009C0F9093FB018093FA018091FA01DD0FBA
:10166000D82BD093FA018091F901813009F078C02C
:101670001092F9010E948D096B017C018091FA01A1
:101680008093BB008091210290912202A0912302BD
:10169000B0912402892B8A2B8B2BA1F00E948D09FB
:1016A0000091210210912202209123023091240204
:1016B0006C197D098E099F09061717072807390736
:1016C00008F448C08091BC0083FDD8CF85EC80939E
:1016D000BC000E948D096B017C0180911F0281304A
:1016E00009F440C08091FC018C1710F4C091FC01FA
:1016F000E9EDF1E0AFEFB1E080E08C1355C08C2F45
:10170000DF91CF911F910F91FF90EF90DF90CF90DD
:1017100008958091210290912202A0912302B0911C
:101720002402892B8A2B8B2B09F484CF0E948D09EC
:101730000091210210912202209123023091240273
:101740006C197D098E099F090617170728073907A5
:1017500008F070CF809120020E94E80AC0E0CFCF4D
:1017600085EEB5CF8091210290912202A0912302B3
:10177000B0912402892B8A2B8B2B09F4AECF0E94C7
:101780008D090091210210912202209123023091B3
:1017900024026C197D098E099F090617170728076F
:1017A000390708F09ACFD6CF91919D938F5FA5CF3F
:1017B0000895E091D4018091D301E81730F4F0E06E
:1017C000E150FE4F808190E008958FEF9FEF0895E4
:1017D0009091D4018091D3012FEF3FEF981748F4F7
:1017E000E92FF0E0E150FE4F208130E09F5F9093C1
:1017F000D401C9010895CF92DF92EF92FF920F9327
:101800001F93CF93DF937C01CB018A012091D801F4
:10181000222389F0EB016B01C40ED51ECC15DD052A
:1018200069F06991D701ED91FC910190F081E02D73
:10183000C7010995F3CF642F0E948C0AC801DF917C
:10184000CF911F910F91FF90EF90DF90CF9008956F
:10185000CF93DF931F92CDB7DEB769832091D80174
:101860002223F9F02091D501203258F021E030E018
:10187000FC013383228390E080E00F90DF91CF91D1
:1018800008958091D601E82FF0E0EB5AFE4F998140
:1018900090838F5F8093D6018093D50181E090E0A3
:1018A000ECCF61E0CE0101960E948C0AF7CFCF9277
:1018B000DF92EF92FF920F931F93CF93DF93D0911C
:1018C000D50181E0D13208F09CC0C091D7010E94BF
:1018D0008D096B017C0180911F0281116CC082E037
:1018E00080931F0281E08093FE018FEF8093FD01C2
:1018F0001092FC01D093FB01A5E5B1E0E9EDF1E028
:1019000080E0D8138DC01092FA018091FA01CC0FBB
:10191000C82BC093FA018091F901813009F084C08D
:101920001092F9010E948D096B017C018091FA01EE
:101930008093BB008091210290912202A09123020A
:10194000B0912402892B8A2B8B2BA1F00E948D0948
:101950000091210210912202209123023091240251
:101960006C197D098E099F09061717072807390783
:1019700008F442C08091BC0083FDD8CF85EC8093F1
:10198000BC000E948D096B017C0180911F02823096
:1019900009F44CC08091FD018F3F09F469C080912A
:1019A000FD01803209F466C08091FD01803309F4A5
:1019B00063C084E026C08091210290912202A09110
:1019C0002302B0912402892B8A2B8B2B09F483CF1D
:1019D0000E948D0900912102109122022091230280
:1019E000309124026C197D098E099F09061717078B
:1019F0002807390708F06FCF809120020E94E80A7B
:101A000085E01092D6011092D5011092D801DF9195
:101A1000CF911F910F91FF90EF90DF90CF9008959D
:101A20009D9191938F5F6DCF85EEA9CF809121021B
:101A300090912202A0912302B0912402892B8A2B3B
:101A40008B2B09F4A2CF0E948D09009121021091E5
:101A5000220220912302309124026C197D098E0903
:101A60009F09061717072807390708F08ECFC4CF3C
:101A700080E0C7CF82E0C5CF83E0C3CFA0915C03F5
:101A8000B0915D0391E09093D80199E39093D701D1
:101A90001092D6011092D501ED91FC911197019011
:101AA000F081E02D682FCD01099580915C03909124
:101AB0005D030E94570C91E0811190E0892F0895F9
:101AC000CF93C62FA0915C03B0915D0391E09093FA
:101AD000D80199E39093D7011092D6011092D501C5
:101AE000ED91FC9111970190F081E02D682FCD01CF
:101AF000099580915C0390915D03DC01ED91FC916F
:101B00000190F081E02D6C2F099580915C039091FC
:101B10005D030E94570C91E0811190E0892FCF91D5
:101B200008950F931F93CF938B01C42F90910701BA
:101B300021E02093D8019093D7011092D601109202
:101B4000D501682F80E793E00E94280CC15020F057
:101B5000F80161918F01F6CF80E793E00E94570C66
:101B600090E080E0CF911F910F910895CF93DF9384
:101B70001F92CDB7DEB7698341E0BE016F5F7F4F33
:101B80000E94910D892B29F08CEE0F90DF91CF915F
:101B9000089580E0FACFFF920F931F93CF93DF93C6
:101BA000042FF22E132F91E09093D8018093D70148
:101BB0001092D6011092D50180E793E00E94280C84
:101BC000CF2DD12F0C0F1D2F111DC017D10731F0B4
:101BD000699180E793E00E94280CF7CF80E793E0BB
:101BE0000E94570C91E0811190E0892FDF91CF91F5
:101BF0001F910F91FF900895CF93DF931F92CDB760
:101C0000DEB749839E012F5F3F4F41E00E94CB0D1D
:101C10000F90DF91CF91089590E080E008955F925A
:101C20006F927F928F929F92AF92BF92CF92DF92EC
:101C3000EF92FF920F931F93CF93DF93EC018B01F1
:101C40000E948D092A813B81621B730B6A307105EA
:101C5000B8F3F89485B1B82E6894B5F885B1C82E5C
:101C6000E894C5F8C5B8259AF801A18090808280D3
:101C7000A3949394839470E060E01091010043E09A
:101C800050E080E0E7E06E2E712CD301FB01282F9D
:101C9000982FE82EF82E082F382F3181112788949D
:101CA0003111390F08F43FEF91958894A0FC130F80
:101CB00017958894A1FC130F17958894A2FC130F15
:101CC00017958894A3FC130F17958894A4FC130F01
:101CD00017958894A5FC130F17958894A6FC130FED
:101CE00017958894A7FC130F17958894232FA1109C
:101CF000212F980F122F002CB5B800C017FFC5B8C0
:101D000030812227889400C000C0002CC5B8311152
:101D10003E0D00C0002CB5B800C016FFC5B808F4D1
:101D20003FEFE194889400C000C0002CC5B890FC3F
:101D3000230F00C0002CB5B800C015FFC5B827950B
:101D4000889491FC230F00C000C0002CC5B82795D3
:101D5000889400C0002CB5B800C014FFC5B892FC30
:101D6000230F2795889400C000C0002CC5B893FCB1
:101D7000230F00C0002CB5B800C013FFC5B82795CD
:101D8000889494FC230F00C000C0002CC5B8279590
:101D9000889400C0002CB5B800C012FFC5B895FCEF
:101DA000230F2795889400C000C0002CC5B896FC6E
:101DB000230F00C0002CB5B800C011FFC5B827958F
:101DC000889497FC230F00C000C0002CC5B827954D
:101DD000889400C0002CB5B800C010FFC5B8132F00
:101DE0009110122FE80E00C000C0002CC5B800C032
:101DF00000C0002CB5B800C017FFC5B8328122273B
:101E0000889400C000C0002CC5B831113F0D00C03F
:101E1000002CB5B800C016FFC5B808F43FEFE40FBA
:101E2000F51F00C000C0002CC5B880FC230F00C007
:101E3000002CB5B800C015FFC5B82795889481FC63
:101E4000230F00C000C0002CC5B82795889400C09F
:101E5000002CB5B800C014FFC5B882FC230F27952D
:101E6000889400C000C0002CC5B883FC230F00C0BC
:101E7000002CB5B800C013FFC5B82795889484FC22
:101E8000230F00C000C0002CC5B82795889400C05F
:101E9000002CB5B800C012FFC5B885FC230F2795EC
:101EA000889400C000C0002CC5B886FC230F00C079
:101EB000002CB5B800C011FFC5B82795889487FCE1
:101EC000230F00C000C0002CC5B82795889400C01F
:101ED000002CB5B800C010FFC5B8132F8110122F09
:101EE000F19400C000C0002CC5B8F80E00C000C0BE
:101EF000B5B800C017FFC5B831812227889400C04B
:101F000000C0002CC5B83111390F00C0002CB5B885
:101F100000C016FFC5B808F43FEF9195889400C043
:101F200000C0002CC5B8A0FC230F00C0002CB5B821
:101F300000C015FFC5B827958894A1FC230F00C0E9
:101F400000C0002CC5B82795889400C0002CB5B8F7
:101F500000C014FFC5B8A2FC230F2795889400C0C9
:101F600000C0002CC5B8A3FC230F00C0002CB5B8DE
:101F700000C013FFC5B827958894A4FC230F00C0A8
:101F800000C0002CC5B82795889400C0002CB5B8B7
:101F900000C012FFC5B8A5FC230F2795889400C088
:101FA00000C0002CC5B8A6FC230F00C0002CB5B89B
:101FB00000C011FFC5B827958894A7FC230F00C067
:101FC00000C0002CC5B82795889400C0002CB5B877
:101FD00000C010FFC5B8132FA110122F980F00C01A
:101FE00000C0002CC5B8119709F086CECB012AE9B4
:101FF000629E060C811D729E800D911D1124870D1D
:10200000911DB0E0A0E08C019D010E521F4F2F4F9B
:102010003F4F093E13402105310508F434C0865175
:102020009340A109B10922E0B695A79597958795A8
:102030002A95D1F727E0829F080E611D929F600DBF
:10204000711D1124690F711D2091540130E0820F20
:10205000931F860F971F4091BA015091BB01609169
:10206000BC017091BD01292F3327420F531F611D01
:10207000711D4093BA015093BB016093BC017093F2
:10208000BD018093540178940E948D097B836A83FB
:10209000DF91CF911F910F91FF90EF90DF90CF9044
:1020A000BF90AF909F908F907F906F905F900895BA
:1020B00080E991E00895CF93DF9300D01F92CDB7D0
:1020C000DEB749835A836B83DC01ED91FC91048078
:1020D000F581E02DBE016F5F7F4F09950F900F9046
:1020E0000F90DF91CF9108950F931F93CF93DF93BC
:1020F000EC0145BD8A819B81AC81BD818A179B071C
:1021000011F13981432F50E0440F551F42575F4F63
:10211000FA0105911491FA01A817B90708F03DC01A
:10212000329645915491801B910B012B09F4CA0101
:10213000A817B90708F4DC014A175B0708F03E5FEF
:102140003983BB83AA83B7FF07C080E88B0FB9F13F
:102150008D8369B9A0E0B3E02E813F81488589B1C4
:102160006823A9F12150310941092E833F83488713
:1021700088818A0F9B2F911D282F23702883969585
:10218000879596958795803410F480689068998734
:10219000DF91CF911F910F910895329745915491FE
:1021A000800F911F012B09F4CA018A179B0708F4BD
:1021B000DC01A417B50708F4C3CF3250C1CFF8949F
:1021C00080916E00282320936E007894C5CF2F5FF6
:1021D0003F4F4F4FCACF1895CF9381302FEF9207C3
:1021E0002CF1C82F8F3F910511F00CF0CFEF20E0BC
:1021F00097FF02C0C15024E09AB19C609AB98BB19C
:10220000837F822B8BB964E170E080E090E00E94D4
:10221000B2098091B3008111FCCF8091B00080623F
:102220008093B000C093B400CF910895C1E0E2CF95
:10223000682F85E292E00C9496080E94E30889E0FA
:102240000C941811EF92FF920F931F93CF93DF938B
:10225000D82FC92F7B01613208F060E289E30E9428
:10226000090B1092D4018093D3010D2F1C2FD0E0C5
:10227000C0E080915C0390915D03DC01ED91FC91E5
:102280000084F185E02D0995892BA9F0EC16FD0657
:1022900081F080915C0390915D03DC01ED91FC91F4
:1022A0000284F385E02D09952196F80181938F0131
:1022B000E0CFD0E0C0E0CE01DF91CF911F910F9130
:1022C000FF90EF9008950F931F93CF938B010E947F
:1022D0003E0DC82F811106C0C0E08C2FCF911F91F9
:1022E0000F91089561E089E30E94090B1092D401D7
:1022F0008093D30180915C0390915D03DC01ED91AB
:10230000FC910084F185E02D0995892B29F38091BA
:102310005C0390915D03DC01ED91FC910284F385F7
:10232000E02D0995F8018083D8CFCF93DF931F92DA
:10233000CDB7DEB7BE016F5F7F4F80E80E946311AB
:10234000882359F0698181E061FD05C0626069837D
:1023500080E80E94600D80936203BE016F5F7F4F33
:1023600083E90E946311882339F08981817090E0AC
:102370000F90DF91CF91089580E0F9CFCF93DF9355
:102380001F92CDB7DEB7BE016F5F7F4F80E80E941E
:102390006311882359F0698181E062FD05C06460A2
:1023A000698380E80E94600D80936103BE016F5FC6
:1023B0007F4F83E90E946311882341F089818695CC
:1023C000817090E00F90DF91CF91089580E0F9CF78
:1023D000CF93DF931F92CDB7DEB7BE016F5F7F4F04
:1023E0008FEA0E946311882389F0898180FF11C0E0
:1023F000BE016F5F7F4F8EEA0E946311882361F0F8
:10240000898190E00F90DF91CF9108958FEF9FEF3A
:10241000F9CF8EEF9FEFF6CF8DEF9FEFF3CF1F93A6
:10242000CF93DF931F92CDB7DEB7182FBE016F5F3A
:102430007F4F8BEA0E946311882349F08981112321
:1024400059F08160898369818BEA0E94600D0F9049
:10245000DF91CF911F9108958E7FF4CF2F923F92FD
:102460004F925F926F927F928F929F92AF92BF92A4
:10247000CF92DF92EF92FF920F931F93CF93DF9350
:10248000CDB7DEB7C058D1090FB6F894DEBF0FBE86
:10249000CDBF80916003811113C0BE016F5F7F4F7C
:1024A00080E80E946311882359F0698181E066FD0C
:1024B00005C06064698380E80E94600D80936003BA
:1024C00020915E0330915F0337FD39C03327F90156
:1024D000E858F14F8491F901EC59F14F0491F90159
:1024E000E05BF14F1491112379F181110E941E09D3
:1024F000E12FF0E0EE0FFF1FEA5BF14FA591B491E1
:10250000EC910E2309F180E090E0C058DF4F0FB648
:10251000F894DEBF0FBECDBFDF91CF911F910F9119
:10252000FF90EF90DF90CF90BF90AF909F908F90F3
:102530007F906F905F904F903F902F9008950E94F2
:10254000E81118161906FCF60E94E8118C011816FD
:1025500019060CF0A3C08CEF0E943E0D882309F4ED
:1025600071C0000F000F602F70E0CE0101960E9435
:102570002211882309F492C000916403109165032D
:10258000A0916603B091670390906303C0906C03C1
:10259000D0906D03AA24BB24AC18BD0860916E03D3
:1025A00070916F03209168033091690340916A0331
:1025B00050916B03FE0131960F2EF3E0EF2EF12CBC
:1025C000F02D1C013324E214F3040CF050C0708091
:1025D0008180628053808DE1482E4714B0F1481409
:1025E000A0F1461490F1451480F12115310519F43C
:1025F00041155105C1F1201B310B4A1B5B0B2A15FC
:102600003B0514F462E070E0C216D30614F463E0F4
:1026100070E04A155B0514F461E070E0C416D5065D
:1026200014F470E060E030E020E099249394B0E08E
:10263000A0E050E040E010E000E084E0E80EF11C93
:102640003496C1CF90E080E094CF852D8619990B08
:102650008C01472C48185508D201992071F39C0130
:10266000A201912CEACF9A0199249394E6CF10937A
:1026700065030093640350936B0340936A03B09324
:102680006703A093660390926303309369032093DA
:10269000680370936F0360936E0356CF809161035C
:1026A000882319F080E00E940F1281E090E02091D1
:1026B0006E0330916F032F3F3F4F09F026CF80E02C
:1026C00024CFCF93DF931F92CDB7DEB7BE016F5FEC
:1026D0007F4F80E80E946311882341F0698160FD8B
:1026E00005C06160698380E80E94600D0F90DF91F2
:1026F000CF9108950F931F93CF93DF938B01C42F36
:10270000D091070191E09093D801D093D701109216
:10271000D6011092D501682F80E793E00E94280C23
:1027200080E793E00E94570C6C2F8D2F0E94090BBD
:102730001092D4018093D301C15040F080E793E020
:102740000E94E80BF80181938F01F6CF90E080E0C2
:10275000DF91CF911F910F91089541E00E947A136C
:10276000892B11F08CEE089580E008950F931F934C
:10277000CF93DF931F92CDB7DEB700E061E08BE02F
:102780000E94B60D182F60E08BE00E94B60D182B4A
:10279000BE016F5F7F4F83E10E94AD13812B0F5FFE
:1027A0009981977051F0033051F0882339F30F90DD
:1027B000DF91CF911F910F9108950330C1F784EFFE
:1027C000F6CF1F93CF93DF9300D0CDB7DEB718ECD1
:1027D000BE016E5F7F4F83E10E94AD139A81292F66
:1027E0002871C1F49770943041F40F900F90DF91ED
:1027F000CF911F91089589EFF8CF8111F6CF115035
:10280000D1F3198289818A3F18F7000089818F5F8F
:102810008983F8CF8AEFE9CF682F616080E00E945A
:10282000B60D81110BC00E94E113811107C00E94F7
:10283000B613811103C060E00C94B60D08950F9398
:102840001F93CF93DF931F92CDB7DEB760E083E88D
:102850000E94B60D182F811110C008ECBE016F5FE9
:102860007F4F83E80E94AD13182F8981811105C025
:10287000111103C0015091F719EF61E083E80E9444
:10288000B60D812B0F90DF91CF911F910F9108957D
:102890000F931F93CF93DF931F92CDB7DEB78B01BA
:1028A000BE016F5F7F4F813081F080E50E94AD13E4
:1028B000811105C099819F5F990FF80190830F9056
:1028C000DF91CF911F910F91089580E7EFCF0F9384
:1028D0001F93CF93DF931F92CDB7DEB78C01198280
:1028E000BE016F5F7F4F81E00E94AD13811116C062
:1028F000998194FB332730F9F801308393FB332718
:1029000030F9328392FB332730F9318396FB22274B
:1029100020F92383991F9927991F94830F90DF91A2
:10292000CF911F910F910895BF92CF92DF92EF92B6
:10293000FF920F931F93CF93DF931F92CDB7DEB714
:102940006C017B01B42E022F198261E08FEF0E948F
:10295000B60D182F60E080E00E94B60D182B60E0E5
:102960008FEF0E94B60D182BBB2029F0B6018BEC1F
:102970000E94AD13182B002339F0BE016F5F7F4F0B
:102980008EEE0E94AD13182B61E08FEF0E94B60D02
:10299000182B61E080E00E94B60D182B60E08FEFED
:1029A0000E94B60D99819F7EF7019083812B0F9035
:1029B000DF91CF911F910F91FF90EF90DF90CF901B
:1029C000BF900895CF92DF92EF92FF920F931F93E3
:1029D000CF93DF931F92CDB7DEB77C018B01C42E5E
:1029E000D0903C03198261E081E00E94B60D811114
:1029F0003DC080E40E940C14811138C081E0C812EF
:102A000014C020E041E0BE016F5F7F4FC7010E940C
:102A10009414882361F00F90DF91CF911F910F9153
:102A2000FF90EF90DF90CF900895F701108262E061
:102A300081E00E94B60D81111FC00E940C1481110B
:102A40001BC0F1E0CF1215C021E040E0B801CE017B
:102A500001960E9494148111DECF6D2D81E00E94B9
:102A6000B60D8111D8CFD0923C03D5CFF70110829B
:102A7000D2CFF8011082F1CFF801F9CF0F931F9355
:102A8000CF93DF9300D0CDB7DEB78B0142E0BE011C
:102A90006F5F7F4F0E947A1329813A813227232763
:102AA0003227F80131832083892B41F480E00F9095
:102AB0000F90DF91CF911F910F9108958CEEF7CF7A
:102AC0000F931F93CF93DF9300D0CDB7DEB78B0169
:102AD0008330910509F452C0A8F48130910519F1B1
:102AE000029709F442C08091E4029091E502A0911E
:102AF000E602B091E702F80180839183A283B38359
:102B000080E054C0069778F7BE016F5F7F4F84E680
:102B10000E943E1581114AC0298180E0922F990FB1
:102B2000B0E0A0E0E8CFBE016F5F7F4F84E40E9479
:102B30003E1581113BC0998120E0392F330FA90147
:102B400070E060E0232B19F1F80140835183628328
:102B500073834093E8025093E9026093EA02709312
:102B6000EB0291E09093D90221C08091EC02909108
:102B7000ED02A091EE02B091EF02BDCF8091F00284
:102B80009091F102A091F202B091F302B4CF409182
:102B9000E8025091E9026091EA027091EB02F801BB
:102BA00040835183628373831092D9020F900F90F8
:102BB000DF91CF911F910F9108952F923F924F92E5
:102BC0005F926F927F928F929F92AF92BF92CF92BD
:102BD000DF92EF92FF921F93CF93DF93CDB7DEB7D3
:102BE0002B970FB6F894DEBF0FBECDBF1B011A8620
:102BF00019861886823009F06DC0BE01655F7F4F6F
:102C000080E00E944814182F811107C0BE01665F42
:102C10007F4F86E40E94AD13182FAB85B0E020E013
:102C20003FE24AE350E00E9424352B013C0124EFAF
:102C3000420E21E0521E611C711CCA84D12CF12C61
:102C4000E12C8FEFC81AD80AE80AF80A98EE892E04
:102C500093E0992EA12CB12CC301B201A5019401DE
:102C60000E946635CA01B901A70196010E949735F5
:102C70006B017C01C301B20120ED37E040E050E080
:102C80000E946635C701B601620F731F841F951F2E
:102C9000A50194010E946635F101208331834283AE
:102CA0005383812F2B960FB6F894DEBF0FBECDBF96
:102CB000DF91CF911F91FF90EF90DF90CF90BF9069
:102CC000AF909F908F907F906F905F904F903F90CC
:102CD0002F900895833009F041C0BE01655F7F4F9A
:102CE00080E00E944814182F20E030E0A9018111F3
:102CF000D3CFBE01655F7F4F80E00E944814182F3C
:102D0000811107C0BE01685F7F4F81E50E943E15BB
:102D1000182FE885F985AB85B0E020E03FE24AE373
:102D200050E00E9424352B013C0124EF420E21E0AB
:102D3000521E611C711C6F01DD24F12CE12C04C0BA
:102D4000CC0CDD1CEE1CFF1CFA95D2F78FEFC81AD5
:102D5000D80AE80AF80AEE24FF2478CFCE010196BB
:102D60000E9467148C81882341F1BE01655F7F4F0B
:102D700080E00E944814182FF12CE12C81111AC018
:102D8000BE01685F7F4F81E50E943E15182F2885A0
:102D90003985C9019927B0E0A0E004C0880F991FC8
:102DA000AA1FBB1F3A95D2F70196A11DB11D7C0148
:102DB000112329F0D12CC12C23C0F12CE12CBE0110
:102DC000655F7F4F81E00E944814182F8111F2CF78
:102DD000BE016A5F7F4F81E70E943E15182F2E814A
:102DE0003F81C9019927B0E0A0E004C0880F991F76
:102DF000AA1FBB1F3A95D2F70196A11DB11D6C0108
:102E0000AB85B0E020E03FE24AE350E00E94243589
:102E10002B013C01E4EF4E0EE1E05E1E611C711CD3
:102E200088EE882E83E0982EA12CB12CC301B2012C
:102E3000A50194010E946635D601AE19BF090E9412
:102E4000243516CF4F925F926F927F92BF92CF92AE
:102E5000DF92EF92FF920F931F93CF93DF9300D0F7
:102E600000D0CDB7DEB78B01BE016F5F7F4F0E94F0
:102E7000DD15B82E81112AC069817A818B819C81F0
:102E800028EE422E23E0522E612C712CA3019201D8
:102E90000E94663569017A019B01AC01AFEFBFEF7B
:102EA0000E9424356C507E4F8F4F9F4FA30192019B
:102EB0000E9466357601DD24CC24C20ED31EE41EAA
:102EC000F51EF801C082D182E282F3828B2D0F9031
:102ED0000F900F900F90DF91CF911F910F91FF9066
:102EE000EF90DF90CF90BF907F906F905F904F906A
:102EF00008952F923F924F925F926F927F928F929E
:102F00009F92AF92BF92CF92DF92EF92FF921F9368
:102F1000CF93DF93CDB7DEB76B970FB6F894DEBFD4
:102F20000FBECDBF50EDC52E57E0D52EE12CF12CB4
:102F3000CF86D88AE98AFA8A1B861C861D861E8659
:102F400060322EE4720781059105D0F41CEF812FC9
:102F50006B960FB6F894DEBF0FBECDBFDF91CF9159
:102F60001F91FF90EF90DF90CF90BF90AF909F9018
:102F70008F907F906F905F904F903F902F9008952B
:102F8000688F798F8A8F9B8FCE0106960E94671477
:102F9000182F8111DCCFC88CD98CEA8CFB8C88EE81
:102FA000C81A88E0D80AE108F1088E81811106C0AC
:102FB0008F81811103C088858823B9F1BE01615FCB
:102FC0007F4F82E00E94DD15811114C18E8188231C
:102FD00091F08F859889A989BA89825B9D4FAF4FFF
:102FE000BF4F8C159D05AE05BF0508F0AFCFC81AC1
:102FF000D90AEA0AFB0A8885882309F470C08F85FC
:103000009889A989BA898E549D4FAF4FBF4F880FB9
:10301000991FAA1FBB1F8C159D05AE05BF0508F0A3
:1030200095CFC81AD90AEA0AFB0A89858823D1F004
:10303000BE01655F7F4F83E00E94DD154B855C8597
:103040006D857E854C565D4F6F4F7F4F4C155D05EE
:103050006E057F0508F07ACF8111CCC0C41AD50A5D
:10306000E60AF70A8A85882309F471CFCE01019612
:103070000E9467148C81882309F444C0BE01695EF4
:103080007F4F80E00E944814182F81111BC0BE01A1
:103090006B5E7F4F81E50E943E15182F8D899E89BA
:1030A0001C013324512C412C04C0220C331C441C21
:1030B000551C9A95D2F79FEF291A390A490A590ADD
:1030C000112311F1888D998DAA8DBB8D8093C70234
:1030D0009093C802A093C902B093CA0238CF8F81DF
:1030E000882309F4A2CF8F859889A989BA898C563B
:1030F0009D4FAF4FBF4F8C159D05AE05BF0508F422
:1031000090CF24CF312C212CBE01695E7F4F81E00E
:103110000E944814182F8111D5CFA6E2CA1AA2E046
:10312000DA0AE108F108AF89B0E020E03FE24AE3C3
:1031300050E00E9424354B015C01B4EF8B0EB1E0EE
:103140009B1EA11CB11CA8EEB3E0A70196010E9432
:1031500024352B013C01C501B40120ED37E040E0EE
:1031600050E00E946635420E531E641E751EC50156
:10317000B40128EE33E040E050E00E946635C30120
:10318000B2010E946635220E331E21143104E1F093
:103190004101B12CA12C21E0821A9108A108B108AB
:1031A00090E080E0B501A4014427452B462B472B36
:1031B00031F0B694A794979487940196F3CF982F03
:1031C00088271C01280C391C2C8A3B8A42E0BE014E
:1031D0006D5E7F4F81E70E94910D892B49F4C0926B
:1031E0001403D0921503E0921603F09217036ACFEE
:1031F0001CEE68CF182FABCE2F923F924F925F926A
:103200006F927F928F929F92AF92BF92CF92DF92F6
:10321000EF92FF920F931F93CF93DF93CDB7DEB75B
:10322000C754D1090FB6F894DEBF0FBECDBF1C0145
:103230001092C60261E080E80E94B60D61E08FEF57
:103240000E94B60D60E080E00E94B60D60914603DA
:1032500081E90E94B60D61E080E00E94B60D60E059
:103260008FEF0E94B60D60E080E80E94B60D61E02D
:1032700080E00E94B60D81110CC091E0998310E0AE
:103280001F5F998190FF26C08111D0C5183CD9F4E9
:1032900089EFC95BDF4F0FB6F894DEBF0FBECDBF1D
:1032A000DF91CF911F910F91FF90EF90DF90CF9022
:1032B000BF90AF909F908F907F906F905F904F9056
:1032C0003F902F900895BE016F5F7F4F80E00E9476
:1032D000AD13D6CF183CE1F28111DBCF0E94E11390
:1032E0008111D7CF83E080933E034CE0BE016F5F36
:1032F0007F4F84E10E947A13892B11F08CEEC9CFA5
:10330000D1011E961C921E978B8590E0982F8827DE
:103310002C85820F911D688570E05B01BA2CAA2470
:10332000BB0CBFAEAEAEA50170E060E014964D934D
:103330005D936D937C9317974A8550E0542F4427F3
:10334000550F70E060E0F101408751876287738715
:103350002B8130E0322F22274C815901A40EB11C61
:10336000BFAAAEAAB586A486298130913D03332336
:1033700009F42EC1AC015695479556954795518352
:1033800040838295880F880F807C87871A8E198EDC
:1033900030E0590183E0B594A7948A95E1F7B9AE7E
:1033A000A8AE28AD2F702BA3222309F417C188AD36
:1033B0008D70853009F415C131E03DAB822F8C5002
:1033C000843008F01DAA61E08FEF0E94B60D8111D4
:1033D00006C0BE01675E7F4F86EB0E943E15998D49
:1033E00020E0392F330F5901D12CC12C2496ACAEDB
:1033F000BDAECEAEDFAE2497811104C060E08FEF8A
:103400000E94B60D2496CCACDDACEEACFFAC24979C
:10341000C0924D03D0924E03E0924F03F0925003BE
:103420008111F2C4D090D802DCA6DD2009F436C4A4
:10343000D1011496AD90BD90CD90DC901797AF8ED2
:10344000B8A2C9A2DAA28091CF02882309F4CCC025
:103450001C960D90BC91A02D2091D0023091D102EC
:103460004091D2025091D3020E94243560587F4F80
:103470008F4F9F4FA72EB82EC92EDD24AB8EBC8E4A
:10348000CD8EDE8E4F8C58A069A07AA0CB8CDC8CC0
:10349000ED8CFE8C4C0C5D1C6E1C7F1CA8EEB3E00A
:1034A000A30192010E9424359B01AC0130584F4F7B
:1034B0005F4F2CA33DA34EA35FA35A01CC24DD2470
:1034C000A8A6B9A6CAA6DBA6A0911803A83009F43D
:1034D00090C0B3E0CB2ED12CE12CF12CCDA6DEA6F2
:1034E000EFA6F8AAA301920120583F4F4F4F5F4F1C
:1034F00028962CAF3DAF4EAF5FAF2897A8A4B9A4D4
:10350000CAA4DBA4AB28AC28AD2809F07CC08EEAA5
:1035100097E8AFE8B2E08093490390934A03A09301
:103520004B03B0934C03C12CD12C76012EEA37E823
:103530004FE852E02B8F3C8F4D8F5E8FD101139659
:10354000DC92CE921297BE016B5E7F4F90E080E0DE
:103550000E9460154D895E896F89788D41155105EE
:103560006105710551F011E0AB8CBC8CCD8CDE8C0B
:103570004A155B056C057D0508F010E081114BC410
:10358000F090DA02FF2009F48BC3BE016F5E7F4F1B
:1035900082E090E00E94601549895A896B897C8994
:1035A000411551056105710561F001E02496ACAC4F
:1035B000BDACCEACDFAC24974A155B056C057D0530
:1035C00008F000E0882309F46CC390E0E12CA0C36C
:1035D00011969C938E931F961C92D8CE41E04DABD2
:1035E000F2CE51E05DABEFCE1B8E1C8E1D8E1E8E7B
:1035F00049CFF2E0AF2EB12CC12CD12CADA6BEA686
:10360000CFA6D8AA6FCFB0E020E03FE24AE350E077
:103610000E9424359B01AC012C503E4F4F4F5F4F11
:1036200029AB3AAB4BAB5CABA0911D03B0E020E003
:103630003FE24AE350E00E9424356B017C0134EF05
:10364000C30E31E0D31EE11CF11C2091190330910F
:103650001A0340911B0350911C03A8EEB3E00E9493
:1036600024354B015C0180ED482E87E0582E612CFB
:10367000712CC701B601A30192010E946635C501F4
:10368000B401620F731F841F951F6AAF7BAF8CAFAD
:103690009DAF98EE892E93E0992EA12CB12CC701F5
:1036A000B601A50194010E9466356AAD7BAD8CAD73
:1036B0009DAD0E94663569017A0120911403309115
:1036C00015034091160350911703A8EEB3E00E9432
:1036D00024356AAF7BAF8CAF9DAF69A97AA98BA95E
:1036E0009CA9A30192010E9466354AAC5BAC6CAC0C
:1036F0007DAC420E531E641E751E69A97AA98BA962
:103700009CA9A50194010E946635C301B2010E94E3
:1037100066352C0D3D1D4E1D5F1D6BE0220F331FC6
:10372000441F551F6A95D1F76DA57EA58FA598A951
:103730000E9497356C507E4F8F4F9F4FA50194018B
:103740000E946635A7E7B6E00E9424359B01AC01D4
:103750002C503E4F4F4F5F4F2DA73EA74FA758AB62
:10376000CA01B901A50194010E94663529AB3AABA3
:103770004BAB5CAB2896ACACBDACCEACDFAC289709
:1037800055274D2D3C2D2B2D69A97AA98BA99CA9D4
:103790000E9497354B015C0120E8820E911CA11C10
:1037A000B11C892C9A2CAB2CBB2481149104A1044C
:1037B000B10421F4812C912C54018394A8EEB3E040
:1037C0002B8D3C8D4D8D5E8D0E9424356B017C01CF
:1037D00031E0C316D10432E3E306F10428F0C12C32
:1037E000D12C12E3E12EF12CD10118962D913D91AF
:1037F0004D915C911B97A8EEB3E00E94243566279B
:10380000772728A539A54AA55BA50E9466352736E6
:10381000B6E63B074B07510520F026E636E646E6BE
:1038200050E0A8E5B2E00E94243568A779A78AA7EE
:103830009BA7ACE0B0E0A50194010E9424350E9452
:10384000230A6B8F7C8F8D8F9E8F8CA09DA0AEA046
:10385000BFA088249924C501B4016C197D098E0983
:103860009F096C507E4F8F4F9F4FA8EE4A2EA3E0CA
:103870005A2E612C712CA30192010E946635942F5F
:10388000832F722F66276CA37DA38EA39FA374EF53
:10389000C70E71E0D71EE11CF11CC701B601680D0F
:1038A000791D8A1D9B1DA30192010E9466356CA1A2
:1038B0007DA18EA19FA10E94663569017A01F10167
:1038C000A081B1812AE939E946E050E00E9424351F
:1038D0002CE532E140E050E00E946635CA01B901B2
:1038E000FE2CED2CDC2CCC2420E030E041E050E03C
:1038F0002C193D094E095F090E94973570588F4F6A
:103900009F4FBC01882799270196969587957795B3
:1039100067959B01AC010E9497359B01AC016EE05D
:1039200056954795379527956A95D1F7A0E2B3E06C
:103930000E94243570588F4F9F4FBC0188279927CC
:103940009B01AC010E9497354B015C0148A459A42E
:103950006AA47BA4F0E85F0E611C711C230166243D
:103960007724A3019201C301B2010E949735680D2B
:10397000791D8A1D9B1D0E94230ACB01772766278C
:103980006E5C7F4F8F4F9F4F24E630E040E050E069
:103990000E946635CA01B9012B8D3C8D4D8D5E8D1F
:1039A000220F331F441F551F0E946635A5EBBBE055
:1039B0000E94243568577C4E8F4F9F4F20E137E29D
:1039C00040E050E00E946635CA01B901613020EF45
:1039D00072078105910520F060E070EF80E090E0D3
:1039E0009B01AC010E9497356C5F7E4E8F4F9F4FBD
:1039F0000E94230A9B01AC01A8EEB3E00E9424358B
:103A00006B8F7C8F8D8F9E8F6F3A77488F48924057
:103A100060F0FEEACF2EF7E8DF2EFFE8EF2EF2E0AF
:103A2000FF2ECB8EDC8EED8EFE8ECB8CDC8CED8C67
:103A3000FE8CC0924903D0924A03E0924B03F0926D
:103A40004C03C0905403D0905503F12CE12C6091AD
:103A50005603709157038091580390915903A70121
:103A600096010E94973560587F4F8F4F9F4F672F69
:103A7000782F892F99270E9497356CA37DA38EA359
:103A80009FA3CF8CD8A0E9A0FAA0C114D104E1046F
:103A9000F10481F128966CAD7DAD8EAD9FAD289778
:103AA0001AE0660F771F881F991F1A95D1F76627AE
:103AB00077278C7F9701860136952795179507956F
:103AC000600F711F821F931FA70196010E94663528
:103AD000A3E0B0E00E9424359B01AC010E94973521
:103AE00070588F4F9F4F6C01EE24FF24CF8ED8A2C9
:103AF000E9A2FAA2C301B2016D5F7F4F8F4F9F4FC2
:103B0000B6E0CB2ED12CE12CF12CA70196010E941E
:103B10006635A7E0B0E00E9424356115710581404B
:103B2000910508F0B4C068A579A58AA59BA56D5F2D
:103B30007F4F8F4F9F4FA70196010E946635A7E0E8
:103B4000B0E00E94243570588F4F9F4FBC018827EA
:103B500099279B01AC010E9497356B017C0130EDE8
:103B6000432E37E0532E612C712C6DA57EA58FA5B9
:103B700098A9A30192010E946635820E931EA41E8D
:103B8000B51EC501B4016C0D7D1D8E1D9F1D29A99B
:103B90003AA94BA95CA90E946635CA01B9014EE059
:103BA000660F771F881F991F4A95D1F761587F4F7D
:103BB0008F4F9F4F2EEF30E040E050E00E9466357F
:103BC0006F8D78A189A19AA10E9497356C507E4F84
:103BD0008F4F9F4F58EE852E53E0952EA12CB12C80
:103BE000A50194010E94663569017A0164E0CC0C5C
:103BF000DD1CEE1CFF1C6A95D1F734EFC30E31E0DB
:103C0000D31EE11CF11CC701B601A50194010E945D
:103C1000663549015A016CA17DA18EA19FA1605E0C
:103C20007F4F8F4F9F4FE6E09695879577956795E5
:103C3000EA95D1F70E94230A6F8F78A78C0181142F
:103C40009104A104B104A1F0C701B601A30192013E
:103C50000E9466356CA17DA18EA19FA1620F731F8A
:103C6000841F951FA50194010E94663549015A01E0
:103C7000C501B4010E94230ACF8CD8A478016C1529
:103C80007D058E059F0508F059CC6B0157CCC12CE2
:103C9000D12CF0EFEF2EFF24FA9461CF10E070CC1E
:103CA00000E0E090DB02EE2009F492C0CEA8DFA88D
:103CB000812C912C5401C114D10481F0AEACBFAC65
:103CC000B50190E080E0982F872F762F6627960128
:103CD00050E040E00E94663549015A01BE01635F31
:103CE0007F4F83E090E00E9460154D855E856F8573
:103CF0007889411551056105710531F091E084160F
:103D00009506A606B70608F090E0882309F461C07E
:103D1000D10113961C921E92129780E0ACA4A110C0
:103D200001C011E03091D9021093DE022BA12430A2
:103D300009F498C021E0311120E02093DF02F11056
:103D400001C001E00093E002E11001C091E0909316
:103D5000E102D10150968C9350978D919C911197CF
:103D60009093FE028093FD021F968C911F97809383
:103D70000C0312968D919C9113979093000380935E
:103D8000FF0214968D919D910D90BC91A02D809372
:103D9000010390930203A0930303B0930403F10182
:103DA00080859185A285B385809305039093060352
:103DB000A0930703B09308038485958590930A0325
:103DC00080930903808980930D030E94B61361CA12
:103DD00090E02DA9213021F18BA18150833010F189
:103DE0003BA1363039F1393029F188AD8D708830FA
:103DF000D9F00130C9F0343061F1913029F111303E
:103E000029F1912F012F84CF10E090E000E0E12C08
:103E1000F12C1CA67DCF90E000E0E12CF12C78CFB6
:103E20008FEF7CCF85E07ACF83E078CF183C09F024
:103E300030CA2ECA84E0ACA4A11074CF3091D9024C
:103E400021E02093DE0276CF82E0F5CF092F81E0DA
:103E5000F2CFBCA482E0B11065CF81E08093DE0296
:103E600000E082E021E069CFEF92FF921F93CF93B1
:103E7000DF93CDB7DEB761970FB6F894DEBF0FBE04
:103E8000CDBF7C0110913C0360EC81E00E94B60D37
:103E9000811120C0CE0101960E94FC1881111AC028
:103EA00061E08FEF0E94B60D811114C0B70186EB5F
:103EB0000E943E1581110EC060E08FEF0E94B60D8A
:103EC000811108C0612F81E00E94B60D811102C0EE
:103ED00010933C0361960FB6F894DEBF0FBECDBFC2
:103EE000DF91CF911F91FF90EF9008952F923F9215
:103EF0004F925F926F927F928F929F92AF92BF92FA
:103F0000CF92DF92EF92FF920F931F93CF93DF93A5
:103F1000CDB7DEB72B970FB6F894DEBF0FBECDBF7F
:103F20008B873B014A01180129012F823886498677
:103F30005A8610E000E0EE24E394F12C0C151D05E8
:103F400009F48BC09E01295F3F4FB201A101C3015B
:103F50000E9474078F819885A985BA858F3F2FEFBE
:103F60009207A207B20709F040C01EECF5012082BB
:103F700031824282538211111EC046E0B40180EBAF
:103F80000E94910D892B09F06AC046E0BE016F5F67
:103F90007F4F80EB0E947A13892B09F01CEEF4010D
:103FA000DE011196C401069631912D91321359C04C
:103FB000E817F907C9F7812F2B960FB6F894DEBFE3
:103FC0000FBECDBFDF91CF911F910F91FF90EF906A
:103FD000DF90CF90BF90AF909F908F907F906F9029
:103FE0005F904F903F902F900895BC01CD016C548D
:103FF0007F4F8F4F9F4F0E946B0A3B858313B5CF36
:104000002F80388449845A84B201A10183E07695D7
:104010006795579547958A95D1F7D201C101877069
:104020009927AA27BB27463051056105710568F419
:10403000F401E40FF51F970102C0220F331F8A9588
:10404000E2F7C9019081892B80833FEF231A330A5D
:10405000430A530A0F5F1F4F71CF10E087CF1CEE4A
:10406000AACF1EECA8CF2F923F924F925F926F92F1
:104070007F929F92AF92BF92CF92DF92EF92FF9288
:104080000F931F93CF93DF93CDB7DEB7A2970FB6F1
:10409000F894DEBF0FBECDBF98A38F8F7AA369A31C
:1040A0001B861C861D861E861F82188619861A8608
:1040B0001A8A198A209047033090480310923003DF
:1040C0001092310310923203109233031092340392
:1040D0001092350361E08FEF0E94B60D982E81118A
:1040E000DEC060E08FE40E94B60D982E8111D7C02B
:1040F0006CE28EE40E94B60D982E8111D0C060E073
:104100008FEF0E94B60D982E8111C9C064EB86EB2B
:104110000E94B60D982E8111C2C060E080E80E9416
:10412000B60D982E8111BBC040E0BE016F5E7F4F7F
:10413000CE0142960E94E214982E8111B0C01B86D7
:104140001C861D861E869E01255F3F4F590163E038
:10415000C62ED12CE12CF12C00E010E0980140E3B8
:1041600053E066E373E080E00E94761F982E811191
:1041700096C04B845C846D847E84CE010F960E9431
:10418000341F982E81118BC08F8598892816390687
:1041900008F055C11092300310923103109232038F
:1041A000109233031092340310923503C301B2010D
:1041B0006C547F4F8F4F9F4F0E946B0A81110CC030
:1041C0003CE2431651046104710430F44FEF441A89
:1041D000540A640A740AEACFBE01655F7F4F5B012F
:1041E00053E0C52ED12CE12CF12C9301820140E348
:1041F00053E066E373E081E00E94761F81111AC1EB
:104200004B845C846D847E84CE010F960E94341FA3
:10421000811110C18F8598892816390608F018C1B8
:1042200011E081E090E0A0E0B0E08B8B9C8BAD8B47
:10423000BE8B8F8598898215930508F0E7C046E00C
:10424000E0E3F3E09E012F5F3F4FD90101900D9213
:104250004A95E1F782199309AC0170E060E04B8F59
:104260005C8F6D8F7E8F43E0C42ED12CE12CF12C1E
:10427000B22EA32E9E01295F3F4FB301A20186E318
:1042800093E00E9474078F819885A985BA858F3F36
:104290005FEF9507A507B507D9F43EEC932E892D5E
:1042A000A2960FB6F894DEBF0FBECDBFDF91CF91BF
:1042B0001F910F91FF90EF90DF90CF90BF90AF9044
:1042C0009F907F906F905F904F903F902F900895B8
:1042D000A70196012F5F3F4F4F4F5F4F2F8B388FB6
:1042E000498F5A8FBC01CD016C547F4F8F4F9F4F28
:1042F0000E946B0A182F90E0B0E0A0E04B895C8927
:104300006D897E8984179507A607B70731F64F8018
:10431000588469847A84D301C20123E0B695A795B5
:10432000979587952A95D1F7B301A2014770552734
:104330006627772786309105A105B10508F0ADCF36
:10434000FC01E05DFC4F21E030E001C0220F4A9506
:10435000EAF78081822B808346E060E373E080EBA4
:104360000E94910D892B09F067C0CE010F960E9423
:10437000341F082F81112DC08F859889AC014219F7
:1043800053092816390611F450E040E070E060E06F
:104390002816390600F58B8D9C8DAD8DBE8D84174A
:1043A0009507A607B70770F546E0BE016F5F7F4F20
:1043B00080EB0E94910D892B09F00CEE86E0FE0146
:1043C0003196A0E3B3E001900D928A95E1F70023C6
:1043D000E9F0902E64CF9FEF491A590A690A790AC9
:1043E00086E0E0E3F3E0AB2DBA2D01900D928A95C3
:1043F000E1F74B8F5C8F6D8F7E8FCF88D88CE98CE7
:10440000FA8C38CFCF88D88CE98CFA8CAF8DB8A1D4
:10441000CD92DD92ED92FC921397E9A1FAA110835F
:1044200081E080932B038C9180932903808180937A
:104430002A0335CF982E33CF8CEE982E30CF10E054
:10444000C12CD12C76011B8A1C8A1D8A1E8AF1CEB2
:1044500010E0C12CD12C760121E030E040E050E0AA
:104460002B8B3C8B4D8B5E8BE4CE0F931F93CF93A6
:10447000DF9300D000D0CDB7DEB78B0144E0BE01A2
:104480006F5F7F4F0E947A1349815A8154274527D5
:10449000542770E060E0762F652F542F44272B813E
:1044A000422B762F652F542F44272C81422BF80165
:1044B00040835183628373830F900F900F900F900E
:1044C000DF91CF911F910F910895DF92EF92FF92AC
:1044D0000F931F93CF93DF93CDB7DEB72E970FB611
:1044E000F894DEBF0FBECDBFE090240397E0E9163D
:1044F00009F4EFC0082F61E080E80E94B60D182F84
:1045000061E08FEF0E94B60D182B60E080E00E9402
:10451000B60D182B66E08FEF0E94B60D182BBE016A
:10452000625F7F4F83E80E94AD13182B6E85646035
:1045300083E80E94B60D182B67E08FEF0E94B60D3E
:10454000182B61E081E80E94B60D182B1B868B8525
:104550008A3F28F400008B858F5F8B87F8CF61E05E
:1045600080E80E94B60D182B013009F0B4C0E0FCC1
:10457000D3C06BE684E90E94B60DF82E0E941F148A
:104580008F29182BBE01695F7F4F80E90E94352279
:10459000892B09F475C08CEE182B8F819885A9851D
:1045A000BA85D92EE894D7F897FBFF24F0F864E297
:1045B00084E90E94B60D182B0E941F14182BBE010F
:1045C000695F7F4F80E90E943522892B09F45AC028
:1045D0008CEE182B8F81988529853A8539832A831B
:1045E0009B838C8365E284E90E94B60D182B0E94A0
:1045F0001F14182BBE01695F7F4F80E90E9435228E
:10460000892B09F441C08CEE182B89859A859D83EE
:104610008E8360E081E80E94B60D182B66E08FEF74
:104620000E94B60D182BBE01625F7F4F83E80E9487
:10463000AD13182B6E856B7F83E80E94B60D182B87
:1046400061E08FEF0E94B60D182B61E080E00E94C0
:10465000B60D182B60E08FEF0E94B60D182B60E0AE
:1046600080E80E94B60D812B31F5013079F0E1FC34
:104670001FC09D85909325039C859093260318C0A9
:1046800080E08ACF80E0A5CF80E0BECFE0FC10C004
:10469000D0922903F0922A03FE013196A6E3B3E0FB
:1046A0009E01295F3F4F91919D93E217F307D9F740
:1046B0000E29009324032E960FB6F894DEBF0FBE8A
:1046C000CDBFDF91CF911F910F91FF90EF90DF90C1
:1046D000089580E0F0CFE1FC1FC062E084E90E9411
:1046E000B60DF82E0E941F148F29182BBE01635F90
:1046F0007F4F80E90E94AD13182B6BE784E90E947D
:10470000B60D182B0E941F14182BBE01645F7F4F3B
:1047100080E90E94AD13182BF12CD12C7ACFCF92C7
:10472000DF92EF92FF921F93CF93DF93CDB7DEB767
:1047300061970FB6F894DEBF0FBECDBFBE016A5FB2
:104740007F4F88EF0E943E15182F811119C1BE01BD
:104750006F5F7F4F84E00E9435227C011CEE892B25
:1047600009F00EC12E813F812115310581F050E005
:1047700040E069817A818B819C810E94663520931B
:10478000CB023093CC024093CD025093CE021092D4
:10479000CF02BE016F5F7F4F80E20E943E15182F4F
:1047A0008111EEC089819A81009709F0F8C01092BA
:1047B000CF02BE016F5F7F4F88E20E943E15182F27
:1047C0008111DEC089819A819F70811528E092074E
:1047D00008F090514AEF489F9001499F300D1124F5
:1047E000C901330FAA0BBB0B8093D4029093D5025F
:1047F000A093D602B093D70284EEC82E82E0D82EC2
:10480000B601C7010E946015182F8111B9C08FEF42
:10481000E81AF80A24E0C20ED11C86E0E816F1047A
:1048200079F7BE016F5F7F4F81E00E94AD13182FB3
:104830008111A6C0898180933C0387FFC3C081E0BA
:104840008093FC0280ED97E0A0E0B0E08A879B8730
:10485000AC87BD871E821F821886198686E39BE07F
:10486000A0E0B0E08093C7029093C802A093C90271
:10487000B093CA02CE0101960E946714182F8111CD
:104880007FC08981811107C08A81811104C08B8119
:10489000882309F44BC0BE01665F7F4F82E00E940F
:1048A000DD158111D0C089818823E1F08091C70294
:1048B0009091C802A091C902B091CA024A855B8555
:1048C0006C857D85840F951FA61FB71F825B9D4F4A
:1048D000AF4FBF4F8093C7029093C802A093C90205
:1048E000B093CA028B81882309F46FC08A859B85A7
:1048F000AC85BD858E549D4FAF4FBF4F880F991F1C
:10490000AA1FBB1F4091C7025091C8026091C90203
:104910007091CA02840F951FA61FB71F8093C7020C
:104920009093C802A093C902B093CA028C818111EE
:1049300065C08D81882321F1BE01625F7F4F84E0D5
:104940000E94DD154091C7025091C8026091C902D2
:104950007091CA02CE84DF84E888F9884C0D5D1D11
:104960006E1D7F1D4A5D5D4F6F4F7F4F4093C702A5
:104970005093C8026093C9027093CA02811163C048
:10498000812F61960FB6F894DEBF0FBECDBFDF91C9
:10499000CF911F91FF90EF90DF90CF90089533E07B
:1049A000880F991F3A95E1F7B0E0A0E08093D0021C
:1049B0009093D102A093D202B093D30281E080936E
:1049C000CF02F7CE1092FC023DCF8A81882309F4F2
:1049D000ADCF8091C7029091C802A091C902B09159
:1049E000CA024A855B856C857D85840F951FA61F4D
:1049F000B71F8C569D4FAF4FBF4F90CFBE016A5F20
:104A00007F4F83E00E94DD154091C7025091C8029C
:104A10006091C9027091CA02CE80DF80E884F98477
:104A20004C0D5D1D6E1D7F1D4C565D4F6F4F7F4FB2
:104A30004093C7025093C8026093C9027093CA02A0
:104A4000882309F476CF182F9BCF2F923F924F9255
:104A50005F926F927F928F929F92AF92BF92CF920E
:104A6000DF92EF92FF920F931F93CF93DF9300D0CB
:104A700000D0CDB7DEB7782E662E4C833A832983DB
:104A80000E94E5096B017C01512C1B822C81222E96
:104A9000312C4801B12CA12C8C81581608F04CC047
:104AA00091E09093D8017092D7011092D6011092A4
:104AB000D501662D80E793E00E94280C80E793E003
:104AC0000E94570CB101651971096132710514F02A
:104AD00060E270E0613208F060E2872D0E94090B0D
:104AE000482E1092D4018093D3018091D4014816AE
:104AF000E9F00115110579F480E793E00E94E80BD5
:104B0000E981FA812B81E20FF11D27FDFA9580835F
:104B10002F5F2B83EACF0E94E5096C197D098E096E
:104B20009F09681579058A059B0530F38C818132D0
:104B300008F080E2580EB0CF01151105C1F00E94B7
:104B4000E5096C197D098E099F0930E020E06017A6
:104B500071078207930758F02B81822F220F990B40
:104B60002C812817190619F014F08FEF8B838B8195
:104B70000F900F900F900F90DF91CF911F910F9199
:104B8000FF90EF90DF90CF90BF90AF909F908F906D
:104B90007F906F905F904F903F902F9008950F936C
:104BA0001F93CF93DF93CCE7D3E008EE13E02DE71C
:104BB00033E042E062E788810E94252589819A815D
:104BC000982789279827DF91CF911F910F910895FA
:104BD000CF92DF92EF92FF920F931F93CF93DF93C9
:104BE0001F92CDB7DEB7F82EE62EC42ED22E08EED9
:104BF00013E09E012F5F3F4F41E00E94252581E099
:104C000090E001C0880FCA94EAF74981DD2081F065
:104C1000482B49836E2D8F2D0E94FC0D0F90DF9144
:104C2000CF911F910F91FF90EF90DF90CF9008955B
:104C300080954823EECFBF92CF92DF92EF92FF9202
:104C40000F931F93CF93DF931F92CDB7DEB7F82E4C
:104C5000E62EC42EB22ED02E08EE13E09E012F5F5A
:104C60003F4F41E00E942525882371F18C2D8B193F
:104C7000990BAC014F5F5F4F81E090E002C0880F5D
:104C8000991FBA94E2F70197042E01C0880F0A9485
:104C9000EAF70D2D01C0000F4A95EAF7482F40951D
:104CA000998149238023482B49836E2D8F2D0E94A3
:104CB000FC0D0F90DF91CF911F910F91FF90EF901E
:104CC000DF90CF90BF90089580E0F3CF8F929F92B6
:104CD000AF92BF920F931F93CF93DF93CDB7DEB701
:104CE000A1970FB6F894DEBF0FBECDBF19A2423018
:104CF00008F44AE08E010F5D1F4F842E912CB12CD9
:104D0000A12CA50194010E946635E62FB901CA01C4
:104D1000EA3044F5E05DD801EE938D01232B242B7E
:104D2000252B79F790E080E0109769F0FD01019064
:104D30000020E9F73197AF014A1B5B0BBD0185E20B
:104D400092E00E94F607A1960FB6F894DEBF0FBE60
:104D5000CDBFDF91CF911F910F91BF90AF909F90EA
:104D60008F900895E95CD7CFCF92DF92EF92FF92B8
:104D7000CF93DF9397FF1BC06B017C016DE285E24F
:104D800092E00E949608EC0166277727CB016C1908
:104D90007D098E099F094AE00E9466268C0F9D1F9F
:104DA000DF91CF91FF90EF90DF90CF9008954AE090
:104DB000DF91CF91FF90EF90DF90CF900C9466261B
:104DC000BC01990F880B990B0E94B42689E00C94C2
:104DD0001811CF93DF93EC01BC01990F880B990B4D
:104DE00024E630E040E050E00E946635CA0144E627
:104DF000249FC01911244AE0B9010E9466268EE260
:104E00000E941811CA3018F480E30E9418116C2F08
:104E100070E090E080E04AE0DF91CF910C9466264C
:104E200042E050E06AE371E085E292E00C94F6071C
:104E30004F925F926F927F928F929F92AF92BF92AA
:104E4000CF92DF92EF92FF92CF93DF93C0E0D1E059
:104E5000C12CD12C7601412C512C320182E10E94CF
:104E6000750984E10E9475099C013250C901032E25
:104E7000000CAA0BBB0B480E591E6A1E7B1E229FFC
:104E8000C001239F900D900D1124092E000CAA0B38
:104E9000BB0BC80ED91EEA1EFB1E2197F9F68FE741
:104EA00090E00E941D11812C912C54019394C30118
:104EB000B201A50194010E940535CA01B9017E5FC6
:104EC0008F4F9F4F0E94B42689E00E94181186E7F9
:104ED00090E00E941D11A3019201C301B2010E9442
:104EE0009735A50194010E940535C701B601621BE3
:104EF000730B840B950BA50194010E940535CA0123
:104F0000B9010E94B42689E00E941811DF91CF9167
:104F1000FF90EF90DF90CF90BF90AF909F908F90D9
:104F20007F906F905F904F900C941027CF93C62F77
:104F30000E941D1181E790E00E941D1188E690E01B
:104F4000CC2311F08EE690E00E94E308CF910C9400
:104F50001027CF93DF93EC0188819981009711F09E
:104F60000E944936198218821D821C821B821A8275
:104F7000DF91CF910895FC0180819181009711F01C
:104F80000C94493608950C9449360F931F93CF9390
:104F9000DF93EC0188819981009759F02A813B8148
:104FA0002617370730F081E0DF91CF911F910F91E5
:104FB00008958B016F5F7F4F0E94D236009759F0A2
:104FC000998388831B830A832C813D81232B59F786
:104FD000FC011082E8CF80E0E7CFEF92FF920F93C1
:104FE0001F93CF93DF93EC017B018A01BA010E94EA
:104FF000C52781110BC0CE010E94A927CE01DF91E8
:10500000CF911F910F91FF90EF9008951D830C8316
:10501000B701888199810E94A537F0CF85ED8093F3
:10502000BC008091210290912202A0912302B091B4
:1050300024020796A11DB11D23E0B695A79597956B
:1050400087952A95D1F72091BC0024FD03C01092CA
:105050001F02089540912102509122026091230283
:1050600070912402452B462B472B69F30097A1052D
:10507000B10541F025E32A95F1F700000197A10958
:10508000B109E1CF809120020C94E80A1F920F929F
:105090000FB60F9211242F933F934F935F936F930B
:1050A0007F938F939F93AF93BF93EF93FF9385E28B
:1050B00092E00E947408FF91EF91BF91AF919F9190
:1050C0008F917F916F915F914F913F912F910F90B1
:1050D0000FBE0F901F9018951F920F920FB60F9250
:1050E00011242F938F939F93EF93FF93E0913502B9
:1050F000F09136028081E0913B02F0913C0282FD0A
:105100001BC0908180913E028F5F8F7320913F0280
:10511000821741F0E0913E02F0E0EB5DFD4F958F8C
:1051200080933E02FF91EF919F918F912F910F906D
:105130000FBE0F901F9018958081F4CF1F920F9291
:105140000FB60F9211242F933F938F939F93AF939A
:10515000BF938091BA019091BB01A091BC01B09125
:10516000BD013091B90123E0230F2D3758F5019689
:10517000A11DB11D2093B9018093BA019093BB0189
:10518000A093BC01B093BD018091BE019091BF017D
:10519000A091C001B091C1010196A11DB11D8093E4
:1051A000BE019093BF01A093C001B093C101BF9114
:1051B000AF919F918F913F912F910F900FBE0F90C4
:1051C0001F90189526E8230F0296A11DB11DD2CF7E
:1051D0001F920F920FB60F9211242F933F934F936C
:1051E0005F936F937F938F939F93AF93BF93EF934F
:1051F000FF938091B900887F803609F44AC0F0F5AA
:10520000883209F4A7C018F5803109F49BC0B8F4BE
:10521000882309F4F9C0883009F494C0FF91EF9114
:10522000BF91AF919F918F917F916F915F914F91BE
:105230003F912F910F900FBE0F901F9018958831BE
:1052400009F488C0803251F78093FD0114C0803486
:1052500009F49DC040F48033B9F38833F9F68093A4
:10526000FD0185ECB0C0803509F485C0883509F4AE
:1052700096C0883499F60E940E28D0CF883909F458
:105280008CC038F5883729F050F4883611F0803713
:1052900029F683E080931F021092B80157C0883826
:1052A00009F47BC0803919F0803809F0B7CF8091BC
:1052B000B801803208F071C0E091B80181E08E0F32
:1052C0008093B8018091BB00F0E0E856FE4F8083E8
:1052D0003DC0803B39F0E0F4803A09F479C0883A67
:1052E00009F09CCF84E080931F02109297011092E6
:1052F0009601E091D101F091D2010995809196013A
:1053000081110FC081E0809396011092760109C04F
:10531000803C09F4A6CF883C09F4A3CF883B09F070
:105320007DCFE091970181E08E0F80939701F0E0AF
:10533000EA58FE4F80818093BB0090919701809145
:10534000960129C08091FA018093BB0085EC80937F
:10535000BC0064CF9091FC018091FB01981758F537
:10536000E091FC0181E08E0F8093FC01F0E0E752B8
:10537000FE4F8081E9CFE091FC0181E08E0F8093A8
:10538000FC018091BB00F0E0E752FE4F80839091DA
:10539000FC018091FB019817C8F285E8D8CFE09115
:1053A000FC0181E08E0F8093FC018091BB00F0E056
:1053B000E752FE4F80838091FE0181115CCF81E036
:1053C0008093F90184EA8093BC0010921F0226CFDB
:1053D00085EC8093BC0010921F028091B80180324E
:1053E00030F4E091B801F0E0E856FE4F1082609191
:1053F000B80170E0E091CF01F091D00188E991E02F
:1054000009951092B8010ACF1092FD0134CF78941B
:105410001F920F920FB60F9211242F933F934F9329
:105420005F936F937F938F939F93AF93BF93EF930C
:10543000FF9304B405FC0AC02BEF43E460E18AE467
:1054400091E00E94741098B5890F88BD8091530136
:10545000982F9F77D1F498B5890F88BD90E1F89483
:1054600084B58F7C892B84BDFF91EF91BF91AF9163
:105470009F918F917F916F915F914F913F912F916C
:105480000F900FBE0F901F9018958150809353017D
:1054900090E2E5CF78941F920F920FB60F921124ED
:1054A0002F933F934F935F936F937F938F939F932C
:1054B000AF93BF93EF93FF9304B407FC0AC02DEFA3
:1054C00043E860E880E491E00E94741097B5890F8A
:1054D00087BD80914901982F9F77D1F497B5890FA7
:1054E00087BD90E4F89484B58F73892B84BDFF91B8
:1054F000EF91BF91AF919F918F917F916F915F914C
:105500004F913F912F910F900FBE0F901F901895C4
:1055100081508093490190E8E5CF1F920F920FB61A
:105520000F9211248F939F93AF93BF938091BA01F1
:105530009091BB01A091BC01B091BD01109270008F
:105540001092B30081E08093B00084E08093B100BA
:10555000BF91AF919F918F910F900FBE0F901F90B1
:105560001895EF93FF93E0910001F09101010C94E5
:10557000C72AEF93FF93E0910201F09103010C948D
:10558000C72AEF93FF93E0910401F09105011F9268
:105590000F920FB60F9211242F933F934F935F9367
:1055A0006F937F938F939F93AF93BF930995BF9111
:1055B000AF919F918F917F916F915F914F913F91AB
:1055C0002F910F900FBE0F901F90FF91EF911895A4
:1055D000CF93DF93E5E2F2E01382128248EE53E0CC
:1055E00060E070E0448355836683778382E191E0D5
:1055F0009183808385EC90E09587848784EC90E0AC
:105600009787868780EC90E0918B808B81EC90E08F
:10561000938B828B82EC90E0958B848B86EC90E070
:10562000978B868B118E128E138E148EE2ECF2E025
:10563000108E118E128E138E81E0868B878B818F58
:10564000A4EFB2E088E0ED0119928A95E9F780E0D5
:1056500090E0A2E1B0E082A393A3A4A3B5A380E06D
:1056600090E4A0E0B0E086A397A3A0A7B1A780E054
:1056700090E0A3E2B0E082A793A7A4A7B5A784ED2A
:1056800098E0A0E0B0E086A797A7A0ABB1ABEAE5B1
:10569000F3E084E291E091838083A0E7B3E0B383F9
:1056A000A2838FEF9FEF95838483168217821086E3
:1056B0001186138612861586148617861686118A19
:1056C000108A24E130E0338B228B958B848B1396E8
:1056D0001C921E92129714964D935D936D937C933A
:1056E00017978CE291E08D939C93EFE8F3E01182A1
:1056F0001082138212821582148250E040E06CE323
:1057000071E0CF010E94ED2788E680937C03DF9152
:10571000CF910895CF93DF93CDB7DEB7C055D109B0
:105720000FB6F894DEBF0FBECDBF789484B582600B
:1057300084BD84B5816084BD85B5826085BD85B535
:10574000816085BD80916E00816080936E001092B3
:10575000810080918100826080938100809181002E
:1057600081608093810080918000816080938000BF
:105770008091B10084608093B1008091B00081601D
:105780008093B00080917A00846080937A00809149
:105790007A00826080937A0080917A0081608093A1
:1057A0007A0080917A00806880937A001092C1001C
:1057B000E0913502F091360282E08083E09131027F
:1057C000F09132021082E0913302F091340280E1D4
:1057D000808310923D02E0913902F0913A0286E016
:1057E0008083E0913702F09138028081806180836C
:1057F000E0913702F0913802808188608083E091E7
:105800003702F0913802808180688083E09137020E
:10581000F091380280818F7D80831092060185E1AE
:105820000E9475099695879596958795E6ECF0E028
:105830009491891728F0319620E0E53DF207C1F7F1
:105840000E94D10A8CE08093B80001E023E042E09E
:105850006BE680917C030E941B2600E022E044E07E
:105860006BE180917C030E941B2622E044E06CE106
:1058700080917C030E941B2620E046E06BE680912D
:105880007C030E94E82508EE13E09E012F5F3F4F46
:1058900041E065E780917C030E942525882339F04B
:1058A00089818E7790E09595879580937D0380918F
:1058B0007D03843319F08C3009F0E2C011E01983C4
:1058C00021E047E06BE680917C030E94E82564E6D6
:1058D00070E080E090E00E94B20987E0898307E0F1
:1058E00023E042E06AE680917C030E941B2664E686
:1058F00070E080E090E00E94B20919839E012F5F62
:105900003F4F41E06BE680917C030E94CB0D1982F2
:105910009E012F5F3F4F41E068E380917C030E942E
:10592000CB0D19829E012F5F3F4F41E063E28091D2
:105930007C030E94CB0D19829E012F5F3F4F41E0F7
:105940006CE180917C030E94CB0D80E889839E01ED
:105950002F5F3F4F41E067E380917C030E94CB0DB6
:1059600019839E012F5F3F4F41E06BE680917C03DE
:105970000E94CB0D84E089839E012F5F3F4F41E061
:1059800069E180917C030E94CB0D19839E012F5FFA
:105990003F4F41E06AE180917C030E94CB0D40E0E3
:1059A0006DE680917C030E94FC0D40E06EE68091E4
:1059B0007C030E94FC0D80E190E00E94AD355C010B
:1059C00080E190E00E94AD352C01312CE12CD12CEE
:1059D000C12C06EF202E612C77247394C6014096CB
:1059E000F22CFC18873F9B4010F410E1F12EC3010C
:1059F0008E199109F816190619F014F0FE2CF1947D
:105A0000D20190E080E096012B523F4F8F1538F481
:105A1000F901E80FF91FE491ED930196F7CF920198
:105A20004F2D6FE680917C030E94CB0D8F2C912C23
:105A3000A114B10409F4A7C1432D4F716DE6809103
:105A40007C030E94FC0D4E2D6EE680917C030E942B
:105A5000FC0D08EE13E095014F2D6FE680917C035D
:105A60000E942525A401B501C2010E948F37892B10
:105A700009F489C1C5010E944936C2010E94493614
:105A800060E06093CC018BEC9CE00E9496278091B3
:105A9000CC01882339F021E047E06AE680917C035D
:105AA0000E94E8250E94D10A60E080E80E94600D13
:105AB000811183C180E08093CD01682F87EE9CE047
:105AC0000E9496278091CD01882331F00E94951184
:105AD0000E94BE110E942E1290E080E00E94EC1005
