:100000000C9476000C949E000C949E000C94AA0D07
:100010000C94A20D0C949A0D0C949E000C94610DFE
:100020000C949E000C949E000C949E000C949E00D8
:100030000C949E000C949E000C941E0D0C94DB0CF2
:100040000C94910C0C949E000C945F0C0C94390C45
:100050000C949E000C949E000C949E000C949E00A8
:100060000C949E000C949E00071626374858677F14
:1000700097A6B5C7D8E7F6422050200042204C2072
:1000800000FFFF0000204E00005C20BE023018C3BD
:1000900000F60F3B00A10A1500600708005C05048C
:1000A000001104020035030100000041542B4E41B1
:1000B0004D45004C65616E626F7420004C4200FE3D
:1000C000FDF77FBFFB0600010203040500040302E5
:1000D00001060543310043320043330000040001B0
:1000E00041200000422047200000D10D11241FBEF6
:1000F000CFEFD8E0DEBFCDBF11E0A0E0B1E0E8E295
:10010000FBE202C005900D92AA37B107D9F722E0B1
:10011000AAE7B1E001C01D92AA37B207E1F710E0EB
:10012000C6E7D0E004C02197FE010E948B13C537BB
:10013000D107C9F70E94020E0C9492150C9400008E
:10014000CF92DF92EF92FF92209108013091090146
:10015000E0910E01F0910F01C0900C01D0900D01C3
:10016000CE16DF065CF52F5F3F4FCC0CDD1CCE1AA0
:10017000DF0A0D2C000CEE08FF08032E000C440BC8
:10018000550B2C193D094E095F09A4EBB0E00E9404
:10019000D1129F01FF0F440B550B2C193D094E093D
:1001A0005F090E94B212DA01C9018A559109A109B9
:1001B000B109FF90EF90DF90CF9008952150310961
:1001C000D4CFCF92DF92EF92FF9220910A0130912B
:1001D0000B01E0911201F0911301C0901001D09039
:1001E0001101CE16DF065CF52F5F3F4FCC0CDD1CF6
:1001F000CE1ADF0A0D2C000CEE08FF08032E000CAF
:10020000440B550B2C193D094E095F09A4EBB0E0D6
:100210000E94D1129F01FF0F440B550B2C193D0971
:100220004E095F090E94B212DA01C9018A5591098B
:10023000A109B109FF90EF90DF90CF900895215070
:100240003109D4CF96B588E026B5291304C0815072
:1002500000000000F9CF80939B0190939C010895CA
:100260000895AF92BF92CF92DF92EF92FF920F93D9
:100270001F93CF93DF936C017B018B01040F151F3C
:10028000EB015E01AE18BF08C017D10759F06991A4
:10029000D601ED91FC910190F081E02DC601099508
:1002A000892B79F7C501DF91CF911F910F91FF90B5
:1002B000EF90DF90CF90BF90AF900895FC01538DE9
:1002C000448D252F30E0842F90E0821B930B541730
:1002D00010F0CF96089501970895FC01918D828DBD
:1002E000981761F0A28DAE0FBF2FB11D5D968C9156
:1002F000928D9F5F9F73928F90E008958FEF9FEF95
:100300000895FC01918D828D981731F0828DE80F50
:10031000F11D858D90E008958FEF9FEF0895FC010A
:10032000918D228D892F90E0805C9F4F821B9109D7
:100330008F739927089587ED91E00E948F0121E046
:10034000892B09F420E0822F089580E090E0892B2A
:1003500029F00E949B0181110C9400000895FC017A
:10036000A48DA80FB92FB11DA35ABF4F2C91848D16
:1003700090E001968F739927848FA689B7892C9373
:10038000A089B1898C91837080648C93938D848DC6
:10039000981306C00288F389E02D80818F7D8083C9
:1003A0000895EF92FF920F931F93CF93DF93EC0189
:1003B00081E0888F9B8D8C8D98131AC0E889F9890C
:1003C000808185FF15C09FB7F894EE89FF8960830F
:1003D000E889F98980818370806480839FBF81E090
:1003E00090E0DF91CF911F910F91FF90EF900895D2
:1003F000F62E0B8D10E00F5F1F4F0F731127E02EAD
:100400008C8D8E110CC00FB607FCFACFE889F989E4
:10041000808185FFF5CFCE010E94AF01F1CFEB8D3A
:10042000EC0FFD2FF11DE35AFF4FF0829FB7F894B8
:100430000B8FEA89FB8980818062CFCF682F87ED9F
:1004400091E00C94D1010F931F93CF93DF938C0114
:10045000D0E0C0E0F801EC0FFD1F6491662341F08D
:1004600087ED91E00E94D101892B11F02196F2CF06
:10047000CE01DF91CF911F910F910895CF93DF931C
:10048000EC01888D8823B9F0AA89BB89E889F989AC
:100490008C9185FD03C0808186FD0DC00FB607FCE1
:1004A000F7CF8C9185FFF2CF808185FFEDCFCE0114
:1004B0000E94AF01E9CFDF91CF9108953FB7F89443
:1004C0008091890190918A01A0918B01B0918C015A
:1004D00026B5A89B05C02F3F19F00196A11DB11D9F
:1004E0003FBFBA2FA92F982F8827BC01CD01620FDB
:1004F000711D811D911D42E0660F771F881F991F96
:100500004A95D1F708958F929F92AF92BF92CF9262
:10051000DF92EF92FF926B017C010E945E024B0121
:100520005C01C114D104E104F104B9F00E945E023F
:10053000681979098A099B09683E7340810591050C
:1005400080F321E0C21AD108E108F10888EE880E94
:1005500083E0981EA11CB11CE4CFFF90EF90DF90C8
:10056000CF90BF90AF909F908F9008952FB7F89441
:100570006091850170918601809187019091880139
:100580002FBF0895CF92DF92EF92FF926A017B0115
:10059000239A9C0150E040E060E472E48FE090E038
:1005A0000E94B21282E091E1332361F036952795E3
:1005B000492F417002C0369527954A95E2F79695E6
:1005C0008F5FF2CF1092700092E49093B00080930E
:1005D000B10021502093B300C114D104E104F1040F
:1005E00089F00E94B602C60ED71EE81EF91EC09200
:1005F000CF01D092D001E092D101F092D20182E0FD
:1006000080937000FF90EF90DF90CF9008950F934C
:100610001F930E94B6026093DF017093E001809304
:10062000E1019093E20187ED91E00E946D0197FF57
:100630001DC00E94B6020091DF011091E0012091DF
:10064000E1013091E201601B710B820B930B009171
:10065000DB011091DC012091DD013091DE0160179A
:10066000710782079307F8F28FEF9FEF1F910F91A9
:1006700008950F931F93CF93DF93EC0145BD8A81BB
:100680009B81AC81BD818A179B0711F13981432F72
:1006900050E0440F551F4D575F4FFA0105911491DB
:1006A000FA01A817B90708F03DC032964591549158
:1006B000801B910B012B09F4CA01A817B90708F494
:1006C000DC014A175B0708F03E5F3983BB83AA83CE
:1006D000B7FF07C080E88B0FB9F18D8369B9A0E03F
:1006E000B3E02E813F81488589B16823A9F121506B
:1006F000310941092E833F83488788818A0F9B2FC8
:10070000911D282F23702883969587959695879518
:10071000803410F4806890689987DF91CF911F91A1
:100720000F910895329745915491800F911F012B9D
:1007300009F4CA018A179B0708F4DC01A417B5075E
:1007400008F4C3CF3250C1CFF89480916E002823B3
:1007500020936E007894C5CF2F5F3F4F4F4FCACF85
:10076000E0910501F0910601E80FF11DE49123E00D
:10077000E29FC001112480569E4F0895CF92DF92D0
:10078000EF920F931F93CF936B01E82EC0E0042FDD
:1007900010E040FF07C08C2F0E94B003FC01C08214
:1007A000D182E282A80155954795CF5F4111EFCFE5
:1007B000CF911F910F91EF90DF90CF9008954FE769
:1007C00060E070E080E00C94BE0397B19C6097B944
:1007D00098B1937F492F486028E034E087FF07C035
:1007E00048B936B9880F2150C9F798B9089598B912
:1007F000F8CF0E945E02189B05C07093D6016093EB
:10080000D501089510926B002091D5013091D60149
:10081000621B730BF2CF0E94B60220917A013091D5
:100820007B01AB01421B530B57FD08C06C597F4F36
:1008300070937B0160937A0181E0089580E00895D0
:10084000CF93DF932091070121110EC0EC010E948C
:100850000B04882349F0CE010E9423028AE090E035
:10086000DF91CF910C941E02DF91CF9108958F7389
:1008700090E0C0960C941E02CF93DF93D091830139
:10088000DD2379F18CE790E00E9423028091B5018D
:10089000869586950E943704C0E08C2F0E94B00395
:1008A000FC018081869586950E9437048C2F0E94DA
:1008B000B003FC018181869586950E9437048C2FB8
:1008C0000E94B003FC018281869586950E943704C0
:1008D000CF5FC73011F78AE090E00E941E021092AD
:1008E00083018D2FDF91CF910895CF93DF932091D6
:1008F0001401309115012F3F320769F1AFEFBFE0CE
:100900000E94351325E033E440E050E00E94B2122B
:10091000E9012115304110F0CFEFDFE087E790E0EB
:100920000E942302CE0126E0969587952A95E1F74D
:100930000E9437048C2F0E9437048AE090E00E94C6
:100940001E028FEF9FEF909315018093140181E0B9
:10095000DF91CF91089580E0FBCFFF920F931F931B
:10096000CF93DF93F62EC72F082F10E0869586953C
:100970000E943704D0E084E0000F111F8A95E1F750
:10098000CE0124E0959587952A95E1F7802B0E946A
:100990003704CC0FDD1FCC0FDD1F8F2D8295869580
:1009A000869583708C2B0E9437048F2DDF91CF9119
:1009B0001F910F91FF900C943704189580917A0045
:1009C000806480937A0080917A0086FDFCCF8091CC
:1009D00078009091790008950F931F93CF93DF9340
:1009E000CCE7D0E08EE488830E94DE040E94DE041F
:1009F0000E94DE040E94DE040E94DE048C01188244
:100A00008EE088830E94DE040E94DE040E94DE04E1
:100A10000E94DE040E94DE0418829C01A4EEBCE069
:100A20000E943513980150E040E00E941313C90161
:100A3000DF91CF911F910F9108951092020187E0ED
:100A400080937C0080917A00806480937A0080910A
:100A50007A0086FDFCCF90917800809179008927FB
:100A6000982789279695879596958795982FE8E6F4
:100A7000F0E080E02491921720F08F5F31968F3064
:100A8000C9F70895CF92DF92EF92FF921F93CF9311
:100A9000DF9300D000D0CDB7DEB780910701811180
:100AA000D4C010911601113409F4CFC00E940B0478
:100AB000882309F4CAC0612F87ED91E00E94D1011B
:100AC00080E290E00E941E02F894C090CA01D0908B
:100AD000CB01E090CC01F090CD01789480919D0104
:100AE000882341F0F094E094D094C094C11CD11CB0
:100AF000E11CF11CCD2CDE2CEF2CFF24E7FCFA943A
:100B0000F8948091C0019091C101A091C201B0916F
:100B1000C301789420919D01222339F0B095A095CE
:100B2000909581959F4FAF4FBF4F892F9A2FAB2F35
:100B3000BB27A7FDBA959F77AA27BB274FE0CC0C10
:100B4000DD1CEE1CFF1C4A95D1F7CC2420E8D222F4
:100B50002FE3F222C82AD92AEA2AFB2A8F2D0E94E3
:100B60003704C701B6010E94AD0480E290E00E9404
:100B70001E020E94B602C090B601D090B701E0906C
:100B8000B801F090B9019B01AC012C193D094E0947
:100B90005F0969017A018F2D0E943704C701B601F0
:100BA0000E94AD0480E290E00E941E0280917D01CF
:100BB0000E94370410927D010E941D050E94370497
:100BC0008AE090E00E941E0280911F019091200116
:100BD000A0912101B091220189839A83AB83BC83C8
:100BE00080917C0190E001968170992780937C012F
:100BF000880F991FE1E0F0E0EC0FFD1FE80FF91FEF
:100C00000190F081E02D099581111FC080917C0138
:100C100090E001968170992780937C01880F991F3D
:100C200041E050E04C0F5D1F840F951FDC01ED91FA
:100C3000FC910F900F900F900F90DF91CF911F912B
:100C4000FF90EF90DF90CF9009940F900F900F904E
:100C50000F90DF91CF911F91FF90EF90DF90CF9099
:100C60000895CF93DF932898209A81E083B9E3E237
:100C7000F0E03197F1F783B9209829EF33E0309312
:100C80001801209317018BBB90916800916090939D
:100C9000680080936B000E945E02EB01C158D64E43
:100CA00080916B00882379F00E945E026C1B7D0BA3
:100CB00064367105A8F710926B0088EA9EED909358
:100CC000D6018093D50180911601813451F0809135
:100CD000D5019091D60190931501809314010E9443
:100CE00042058091D5019091D601DF91CF91089571
:100CF000AF92BF92DF92EF92FF920F931F93CF9329
:100D0000DF93C091B5010E945E0200917F011091B6
:100D100080012091810130918201601B710B820B57
:100D2000930B6A3F71058105910568F30E945E028D
:100D300060937F0170938001809381019093820181
:100D40000E945E022091740230917502621B730B47
:100D50006A307105A8F3F894E0919E01F0919F012B
:100D600075B1706265B16F7D65B9259A81E08C0FB0
:100D7000118123E030E090E0A7E0AA2EB12CD5014C
:100D8000092FC92FD92FF92E492F592F51811127FA
:100D9000889451115C0F08F45FEFC195889480FD31
:100DA000150F1795889481FD150F1795889482FD6E
:100DB000150F1795889483FD150F1795889484FD5A
:100DC000150F1795889485FD150F1795889486FD46
:100DD000150F1795889487FD150F17958894052F83
:100DE0008111012FC90F102F002C75B900C017FFFA
:100DF00065B950810027889400C000C0002C65B9F7
:100E000051115D0F00C0002C75B900C016FF65B907
:100E100008F45FEFD195889400C000C0002C65B93C
:100E200080FD050F00C0002C75B900C015FF65B925
:100E30000795889481FD050F00C000C0002C65B99E
:100E40000795889400C0002C75B900C014FF65B9DF
:100E500082FD050F0795889400C000C0002C65B97D
:100E600083FD050F00C0002C75B900C013FF65B9E4
:100E70000795889484FD050F00C000C0002C65B95B
:100E80000795889400C0002C75B900C012FF65B9A1
:100E900085FD050F0795889400C000C0002C65B93A
:100EA00086FD050F00C0002C75B900C011FF65B9A3
:100EB0000795889487FD050F00C000C0002C65B918
:100EC0000795889400C0002C75B900C010FF65B963
:100ED000152F8111102FD90F00C000C0002C65B94B
:100EE00000C000C0002C75B900C017FF65B9528161
:100EF0000027889400C000C0002C65B951115F0D17
:100F000000C0002C75B900C016FF65B908F45FEF8A
:100F1000E20FF31F00C000C0002C65B980FD050F73
:100F200000C0002C75B900C015FF65B907958894FD
:100F300081FD050F00C000C0002C65B9079588949D
:100F400000C0002C75B900C014FF65B982FD050F03
:100F50000795889400C000C0002C65B983FD050F7B
:100F600000C0002C75B900C013FF65B907958894BF
:100F700084FD050F00C000C0002C65B9079588945A
:100F800000C0002C75B900C012FF65B985FD050FC2
:100F90000795889400C000C0002C65B986FD050F38
:100FA00000C0002C75B900C011FF65B90795889481
:100FB00087FD050F00C000C0002C65B90795889417
:100FC00000C0002C75B900C010FF65B9152F811144
:100FD000102FF19400C000C0002C65B9F90E00C0BC
:100FE00000C075B900C017FF65B95181002788940A
:100FF00000C000C0002C65B951115C0F00C0002C6E
:1010000075B900C016FF65B908F45FEFC195889403
:1010100000C000C0002C65B980FD050F00C0002C89
:1010200075B900C015FF65B90795889481FD050F56
:1010300000C000C0002C65B90795889400C0002C42
:1010400075B900C014FF65B982FD050F0795889436
:1010500000C000C0002C65B983FD050F00C0002C46
:1010600075B900C013FF65B90795889484FD050F15
:1010700000C000C0002C65B90795889400C0002C02
:1010800075B900C012FF65B985FD050F07958894F5
:1010900000C000C0002C65B986FD050F00C0002C03
:1010A00075B900C011FF65B90795889487FD050FD4
:1010B00000C000C0002C65B90795889400C0002CC2
:1010C00075B900C010FF65B9152F8111102FC90F18
:1010D00000C000C0002C65B9119709F086CE30E041
:1010E00020E0C9016AE9A69E0A0C811DB69E800D0A
:1010F000911D11248B0D911DB0E0A0E0AC01BD014C
:101100004E525F4F6F4F7F4F493E5340610571050F
:1011100008F434C086519340A109B10942E0B69564
:10112000A795979587954A95D1F747E0849F080E34
:10113000211D949F200D311D1124290F311D409137
:101140007E0150E0840F951F280F391F8091850183
:1011500090918601A0918701B0918801432F552776
:10116000840F951FA11DB11D809385019093860169
:10117000A0938701B093880120937E0178940E9408
:101180005E0270937502609374028091160181343F
:1011900071F081E080938301DF91CF911F910F91D6
:1011A000FF90EF90DF90BF90AF900C944205DF91DD
:1011B000CF911F910F91FF90EF90DF90BF90AF9074
:1011C0000895CF93DF93EC010E9478068AB1806F77
:1011D0008AB99E01220F331F220F331F2550310978
:1011E0008FEF9FE740E650EF49B959B9C230D105BA
:1011F00018F0F9013197F1F78C1B9D0B97FFF4CF95
:10120000DF91CF910895CF93DF93EC010E944205C7
:10121000209751F061E070E080E090E00E9483024E
:101220000E9442052197F4CFDF91CF910895CF938B
:10123000DF93D82FC0E086E990E00E94030942E3E3
:1012400050E060E070E080EE96E00E94C202CF5F66
:10125000DC13F1CFDF91CF9108950E94EC0420912F
:10126000D3013091D401A901481B590BCA011816AA
:10127000190644F495958795281B390B3093D401B2
:101280002093D30190E080E00C940309009761F073
:10129000813629E0920714F080E699E0883522E053
:1012A000920714F488E592E022EB2093800090935B
:1012B00089008093880080E286BBB59903C00E94B4
:1012C0002D09FBCF0895009761F0813629E0920740
:1012D00014F080E699E0883542E0940714F488E53C
:1012E00092E02091860030918700A901481B590B9C
:1012F00020EB2093800050938B0040938A0081E084
:1013000086BBB09903C00E942D09FBCF089590E0E1
:1013100080E00E94630990E080E00C9446092F92DF
:101320003F924F925F926F927F928F929F92AF9275
:10133000BF92CF92DF92EF92FF920F931F93CF93C2
:10134000DF93CDB7DEB76C970FB6F894DEBF0FBE54
:10135000CDBF6C010E94A0009601281B390B3A8377
:101360002983121613062CF0AC014C195D095A831F
:1013700049830E94E100A601481B590B141615066B
:101380001CF0AC014C195D0920918600309187005A
:10139000A981BA81A417B5070CF4DA010E9484135D
:1013A00028EE33E040E050E00E9413134901190198
:1013B0000E9431060E94E1009A8389830E94A00066
:1013C0008C0180910701811136C080911601813412
:1013D00091F184EE90E00E942302892D85958595F8
:1013E0000E94370434E0959487943A95E1F7882D6C
:1013F0000E94370443E0E42EF12CC801B7010E949B
:101400006813862F0E943704C601B7010E94681333
:10141000162F862F0E94370489819A81B7010E9476
:101420006813862F0E943704812F0E9437048AE0B8
:1014300090E00E941E020091080110910901809124
:101440000A0190910B019A83898380900C019090FE
:101450000D01092C000CAA08BB080D2C000CEE088D
:10146000FF0820910E0130910F01032E000C440B58
:10147000550B281939094A095B09C701B6010E94B1
:1014800044132AE5422E512C612C712CA3019201A8
:101490000E94B212DA01C901880D991DAA1DBB1D57
:1014A0008D839E83AF83B887AD81BE81BE87AD87B4
:1014B0008090100190901101092C000CAA08BB0823
:1014C0002091120130911301032E000C440B550B97
:1014D000281939094A095B09C701B6010E9444135A
:1014E000A30192010E94B212DA01C901880D991D6F
:1014F000AA1DBB1D89879A87AB87BC87E984FA84BC
:101500000E94B602698B7A8B8B8B9C8B8FE097E263
:101510009093D4018093D3018091860090918700AD
:1015200064EF71E00E9454132801110F66087708D8
:101530004101032C000CAA08BB082D853E85C9017A
:10154000330FAA0BBB0B9C01AD01241935094609C9
:1015500057092D8B3E8B4F8B588F89819A81092E8D
:10156000000CAA0BBB0B89839A83AB83BC830F2C23
:10157000000C000B110BA8019701281B390B4A0B1B
:101580005B0B298F3A8F4B8F5C8F621573050CF0C4
:1015900066C06B01770FEE08FF082D893E894F89E1
:1015A000588DC701B6010E944413A50194010E9401
:1015B000B212DA01C901840D951DA61DB71D8D87D4
:1015C0009E87AF87B88B298D3A8D4B8D5C8DC70177
:1015D000B6010E944413A50194010E94B212C98071
:1015E000DA80EB80FC80C20ED31EE41EF51EAD85B2
:1015F000BE85B0930901A0930801D0920B01C0925F
:101600000A01CD010E946309C6010E94460980912A
:10161000D3019091D4018C3C9041D4F46C960FB6D8
:10162000F894DEBF0FBECDBFDF91CF911F910F9118
:10163000FF90EF90DF90CF90BF90AF909F908F90F2
:101640007F906F905F904F903F902F900C94870900
:101650000E94B60229893A89621B730B96CF4D818D
:101660005E81509309014093080189859A85909382
:101670000B0180930A01CA010E94630989859A853A
:101680000E9446090E9487096C960FB6F894DEBF47
:101690000FBECDBFDF91CF911F910F91FF90EF90C3
:1016A000DF90CF90BF90AF909F908F907F906F9082
:1016B0005F904F903F902F900C943106FC01019069
:1016C0000020E9F73197AF01481B590BBC0187EDAA
:1016D00091E00C943101FC0180819181009711F01F
:1016E0000C942D1408958DE891E00C946B0B0F93DE
:1016F0001F93CF93DF93EC0188819981009759F074
:101700002A813B812617370730F081E0DF91CF91A6
:101710001F910F9108958B016F5F7F4F0E94B61448
:10172000009759F0998388831B830A832C813D811C
:10173000232B59F7FC011082E8CF80E0E7CFEF922E
:10174000FF920F931F93CF93DF93EC017B018A01EC
:10175000BA010E94770B28813981811114C02115AB
:10176000310519F0C9010E942D14198218821D82B9
:101770001C821B821A82CE01DF91CF911F910F91A3
:10178000FF90EF9008951D830C83B701C9010E945B
:101790007C15F1CF1F93CF93DF93EC010E94AA1227
:1017A000182FCE0101960E94AA12912FDF91CF919E
:1017B0001F9108959F92AF92BF92CF92DF92EF92C6
:1017C000FF920F931F93CF93DF935C01D62E972E3A
:1017D000C42EC0E0D2E0CE010E94CA0BA816B90602
:1017E00039F06096C11584E0D807A9F780E035C0CC
:1017F000F12CE12C02EA1EE7CE018E0D9F1D0E9406
:10180000AA12082788E0902F9170169507959923C2
:1018100021F091E0092790EA19278150A1F7EFEF15
:10182000EE1AFE0AFEE0EF16F10431F7CE010E9635
:101830000E94CA0B80179107A1F62296FD2C0D2D50
:10184000192DCE010E94AA12F80181938F012196D1
:101850008E2F8F198C15A8F381E0DF91CF911F9106
:101860000F91FF90EF90DF90CF90BF90AF909F903F
:1018700008951F920F920FB60F9211242F933F934A
:101880004F935F936F937F938F939F93AF93BF9388
:10189000EF93FF9387ED91E00E94AF01FF91EF91ED
:1018A000BF91AF919F918F917F916F915F914F9178
:1018B0003F912F910F900FBE0F901F9018951F9280
:1018C0000F920FB60F9211242F938F939F93EF9344
:1018D000FF93E091E701F091E8018081E091ED0153
:1018E000F091EE0182FD1BC090818091F0018F5F2D
:1018F0008F732091F101821741F0E091F001F0E047
:10190000E952FE4F958F8093F001FF91EF919F91E7
:101910008F912F910F900FBE0F901F90189580817F
:10192000F4CF1F920F920FB60F9211242F933F9373
:101930008F939F93AF93BF93809185019091860180
:10194000A0918701B09188013091840123E0230F99
:101950002D3758F50196A11DB11D20938401809368
:10196000850190938601A0938701B09388018091AF
:10197000890190918A01A0918B01B0918C0101960F
:10198000A11DB11D8093890190938A01A0938B01C1
:10199000B0938C01BF91AF919F918F913F912F9107
:1019A0000F900FBE0F901F90189526E8230F0296F8
:1019B000A11DB11DD2CF78941F920F920FB60F9236
:1019C00011242F933F934F935F936F937F938F9344
:1019D0009F93AF93BF93EF93FF9304B405FC0AC0AA
:1019E0002BEF43E460E18BEB91E00E94390398B563
:1019F000890F88BD8091C401982F9F77D1F498B545
:101A0000890F88BD90E1F89484B58F7C892B84BDC3
:101A1000FF91EF91BF91AF919F918F917F916F91C6
:101A20005F914F913F912F910F900FBE0F901F909C
:101A3000189581508093C40190E2E5CF78941F926D
:101A40000F920FB60F9211242F933F934F935F93F2
:101A50006F937F938F939F93AF93BF93EF93FF9376
:101A600004B407FC0AC02DEF43E860E885EC91E080
:101A70000E94390397B5890F87BD8091CE01982FB9
:101A80009F77D1F497B5890F87BD90E4F89484B51A
:101A90008F73892B84BDFF91EF91BF91AF919F917F
:101AA0008F917F916F915F914F913F912F910F9007
:101AB0000FBE0F901F90189581508093CE0190E833
:101AC000E5CF1F920F920FB60F9211244F935F93A1
:101AD0006F937F938F939F93AF93BF9340918501B3
:101AE0005091860160918701709188018091CF01AA
:101AF0009091D001A091D101B091D201481759071E
:101B00006A077B0750F0109270001092B30081E0DA
:101B10008093B00084E08093B100BF91AF919F911A
:101B20008F917F916F915F914F910F900FBE0F90AA
:101B30001F901895EF93FF93E0910001F091010140
:101B40000C94B00DEF93FF93E0910301F091040129
:101B50000C94B00DEF93FF93E0911701F0911801F1
:101B60001F920F920FB60F9211242F933F934F9312
:101B70005F936F937F938F939F93AF93BF930995D9
:101B8000BF91AF919F918F917F916F915F914F9195
:101B90003F912F910F900FBE0F901F90FF91EF91EB
:101BA0001895E7EDF1E01382128288EE93E0A0E051
:101BB000B0E084839583A683B7838DE291E091831F
:101BC000808385EC90E09587848784EC90E097870C
:101BD000868780EC90E0918B808B81EC90E0938BFA
:101BE000828B82EC90E0958B848B86EC90E0978BD7
:101BF000868B118E128E138E148E10927502109297
:101C000074020895CF93DF93CDB7DEB7A3970FB6D5
:101C1000F894DEBF0FBECDBF789484B5826084BDDA
:101C200084B5816084BD85B5826085BD85B58160E0
:101C300085BD80916E00816080936E00109281005E
:101C40008091810082608093810080918100816019
:101C500080938100809180008160809380008091DA
:101C6000B10084608093B1008091B0008160809366
:101C7000B00080917A00846080937A0080917A002D
:101C8000826080937A0080917A00816080937A00EC
:101C900080917A00806880937A001092C100E09170
:101CA000E701F091E80182E08083E091E301F091A7
:101CB000E4011082E091E501F091E60180E180838A
:101CC0001092EF01E091EB01F091EC0186E080834E
:101CD000E091E901F091EA01808180618083E091E7
:101CE000E901F091EA01808188608083E091E90157
:101CF000F091EA01808180688083E091E901F091B0
:101D0000EA0180818F7D80838BE391E00E945E0BEE
:101D100062E370E080E090E00E9483028BEA90E052
:101D20000E9423028BE391E00E945E0B809193015D
:101D300081110FC010928E0110928D0110929001AE
:101D400010928F01109292011092910181E0809384
:101D500093016CE170E08DE891E00E94770B1A82AC
:101D600019821C821B821E821D8250E040E06DE3BE
:101D700071E0CE0101967C010E949F0B0E94070337
:101D800097FD1DC08A309105D1F08AA31BA20D8159
:101D90001E810F5F1F4FB801C7010E94770B882378
:101DA00069F329813A818D819E81BE016E5D7F4FED
:101DB000820F931F0E947C151E830D83DFCF8091BD
:101DC0008D0190918E0169817A81009709F46CC12F
:101DD0006115710509F466C140918F015091900120
:101DE0002D813E814217530708F45CC10E947C1587
:101DF0008D819E8190939201809391011E821D821C
:101E0000C7010E946B0B1A8219821C821B821E82E0
:101E10001D8260918D0170918E016115710539F0FF
:101E20004091910150919201C7010E949F0B4D81F9
:101E30005E8141155105B9F066E070E0463051050C
:101E400008F4BA0189819A81461B570B5E834D8342
:101E5000680F791F0E948315E981FA818D819E8127
:101E6000E80FF91F108209811A8148E050E063EB06
:101E700070E0C8010E9487125FE3852E52E4952E20
:101E80005FE0A52EB12C892B31F4C80108960E9481
:101E900060124B015C01C7010E946B0B8CEB90E060
:101EA0000E94230219A28E010F5D1F4F4AE0442EAB
:101EB000512C612C712CC501B401A30192010E9427
:101EC000131349015A01605DF80162938F01811477
:101ED0009104A104B10479F7309719F0CF010E9461
:101EE0005E0B8BE391E00E945E0BEFEBF0E08491E0
:101EF0000E94E50387ED91E00E943E02F89486B5CA
:101F000096B58917E9F39CE096B990916E009E7F93
:101F100090936E0092E0980F8E5980939C0186B545
:101F20009813FDCF87B1837F87B98CE086B922E211
:101F300031E0309304012093030182E08BBB809158
:101F4000680082608093680084E080936C007894DD
:101F500086B5891B8036E0F310926C00F89480916E
:101F60006E00816080936E00789480919C018091D6
:101F70009B018FEC0E94E5038CE086B90E941D0551
:101F80006AE070E080E090E00E94830286E0E3E295
:101F9000F1E0D70101900D928A95E1F746E0B70193
:101FA00084EE9BEF0E94DA0B811195C08CEC90E0DF
:101FB000909306018093050188E0F70111928A95BC
:101FC000E9F748E0B70186E291E30E94DA0B6AEF95
:101FD00070E080E090E00E94830287E69BE29093AD
:101FE00087008093860082EB8093800082E180935B
:101FF000810084B1866084B980910C0190910D01BB
:1020000090930901809308010E94630968EC70E0D5
:1020100080E090E00E948302809110019091110174
:1020200090930B0180930A010E94460968EC70E0CE
:1020300080E090E00E9483020E94870980EA91E09C
:1020400090939F0180939E0180E38093B5010E944D
:10205000DF030E94780608EE13E041E250E060E002
:1020600070E08CEB92E00E94C202C8010E94E1087D
:102070000E94DF03C8010E94E1084FE76FEF7FEF86
:102080008FEF0E94BE030E94EC048C339F4008F047
:1020900095C0C80124E0969587952A95E1F7081B1D
:1020A000190BDBCF0E942D1489819A8190938E01A8
:1020B00080938D018B819C819093900180938F01FF
:1020C0008D819E8190939201809391011A82198251
:1020D0001C821B8293CE0C81002E000C110B065A21
:1020E0001F4F7B80CA800C2C000CDD08FAE5CF0E58
:1020F000D11C2981022E000C330BA8E1BCEF0E94F9
:102100007C133AE5832E912CA12CB12CA5019401CE
:102110000E94B2122053384F4F4F5F4F30930D0142
:1021200020930C019601A8E1BCEF0E947C13A5014D
:1021300094010E94B2122053384F4F4F5F4F30939B
:102140000F0120930E01A72D770CBB0B28EE33E077
:102150000E948413A50194010E94B21228513C4FA1
:102160004F4F5F4F309311012093100128EE33E061
:10217000D8010E948413A50194010E94B212285133
:102180003C4F4F4F5F4F30931301209312018D81CD
:10219000813051F0823079F081E09E81973709F0EB
:1021A00080E080939D0108CF8CEC90E09093060135
:1021B00080930501F1CF85EC90E0F8CF0E94DF031A
:1021C00020E030E83093CA012093C90180916E006D
:1021D000826080936E0078943093C0012093BF0199
:1021E00080916E00846080936E00789481E4809387
:1021F000160181E08093070182E00E94170986E6BC
:10220000D82E93E3C92E1091BA011F5F1093BA0123
:102210000E94DF03E12FE695E695E370F0E0E452DB
:10222000FF4F84910E94B003FC01D082C182D28210
:102230000E9478066DE770E080E090E00E948302E3
:1022400080910701811110C00E940B04882361F066
:1022500080EE90E00E94230283EE90E00E94230231
:102260008AE090E00E941E020E941D058C3009F455
:1022700044C087ED91E00E948F01892B21F21A82E0
:1022800019821C821B821E821D8250E040E06DE399
:1022900071E0C7010E949F0B0E9407030D811E8100
:1022A00097FD1BC08A309105C1F08AA31BA20F5F66
:1022B0001F4FB801C7010E94770B882369F329815A
:1022C0003A818D819E81BE016E5D7F4F820F931F8B
:1022D0000E947C151E830D83DFCF012B39F0E9812D
:1022E000FA81309719F08081813421F0C7010E9472
:1022F0006B0B89CFC7010E946B0B6DE770E080E02C
:1023000090E00E9483020E94B6027B0183E48093E6
:10231000160189ED90E00E94200481E00E941709D7
:102320000E94DF0343E166E673E386E60E94BE0394
:102330000E9478060E94B6026E197F09683E7340BB
:10234000CCF386ED90E00E94200481E00E94170902
:1023500081E00E94B003FC011082118212820E946F
:1023600078060E94B6026E197F09603D7740CCF373
:1023700083ED90E00E94200481E00E94170980E034
:102380000E94B003FC011082118212820E94780622
:102390000E94B6026E197F09683B7B40CCF30E9415
:1023A000B6026093B6017093B7018093B801909321
:1023B000B90182E48093160181E090E00E94030954
:1023C00042E350E060E070E08CE298E00E94C202DC
:1023D00084E00E94B003FC011082118212820E94EC
:1023E00078068EE391E00E945E0B8BE391E00E9401
:1023F0005E0B8AE590E00E948F0988EE93E00E94D0
:10240000030990E080E00E948F0982E390E00E943F
:1024100003098BE591E00E945E0B8BE391E00E9443
:102420005E0B20E030E83093CA012093C90180910F
:102430006E00826080936E0078943093C001209388
:10244000BF0180916E00846080936E0078948091CB
:10245000C801803881F58091BE01803861F58AE538
:102460008093160183E00E94170910E0812F0E94DB
:10247000B003FC018081811111C0818181110EC0E6
:10248000828181110BC01F5F173081F743E166E63F
:1024900073E386E60E94BE030E94780690E080E027
:1024A0000E948F0960E177E280E090E00E94830261
:1024B0000E944205F7CF81E090E00E940309C7CF58
:1024C0001F93FC0199278827BC01E89411911032D1
:1024D000E9F3193010F01E30C8F31B3251F01D32F1
:1024E00049F4689406C00E949512610F711D811D08
:1024F000911D119110531A30B0F33EF490958095D0
:10250000709561957F4F8F4F9F4F1F910895FB01ED
:10251000DC014150504030F08D910590801919F444
:102520000020B9F7881B990B0895592F482F372F92
:10253000262F660F771F881F991F660F771F881F2A
:10254000991F620F731F841F951F660F771F881FC7
:10255000991F0895F999FECF92BD81BDF89A9927E8
:1025600080B50895052E97FB1EF400940E94C912B1
:1025700057FD07D00E94131307FC03D04EF40C94B0
:10258000C91250954095309521953F4F4F4F5F4F61
:10259000089590958095709561957F4F8F4F9F4FCF
:1025A00008950E943513A59F900DB49F900DA49F90
:1025B000800D911D112408952F923F924F925F92AA
:1025C0006F927F928F929F92AF92BF92CF92DF9243
:1025D000EF92FF920F931F93CF93DF93CDB7DEB7A8
:1025E000CA1BDB0B0FB6F894DEBF0FBECDBF09943C
:1025F0002A88398848885F846E847D848C849B8493
:10260000AA84B984C884DF80EE80FD800C811B81A0
:10261000AA81B981CE0FD11D0FB6F894DEBF0FBECF
:10262000CDBFED010895A1E21A2EAA1BBB1BFD012F
:102630000DC0AA1FBB1FEE1FFF1FA217B307E407A1
:10264000F50720F0A21BB30BE40BF50B661F771FF9
:10265000881F991F1A9469F76095709580959095D9
:102660009B01AC01BD01CF010895A29FB001B39FB2
:10267000C001A39F700D811D1124911DB29F700D8B
:10268000811D1124911D0895DB018F939F930E945A
:10269000D112BF91AF91A29F800D911DA39F900D6C
:1026A000B29F900D11240895AA1BBB1B51E107C0D6
:1026B000AA1FBB1FA617B70710F0A61BB70B881FD2
:1026C000991F5A95A9F780959095BC01CD01089561
:1026D00097FB072E16F4009407D077FD09D00E94CF
:1026E000541307FC05D03EF4909581959F4F0895B3
:1026F000709561957F4F08950E943513332312F42E
:102700008A1B9B0B0C9486130E943513B7FF089508
:10271000821B930B0895EE0FFF1F0590F491E02D9F
:1027200009940F931F93CF93DF938230910510F498
:1027300082E090E0E0917802F091790230E020E0D0
:10274000B0E0A0E0309799F42115310509F44AC0B2
:10275000281B390B24303105D8F58A819B816115FE
:10276000710589F1FB0193838283FE0111C04081D1
:1027700051810281138148175907E0F04817590722
:1027800099F4109761F012960C93129713961C937C
:102790003296CF01DF91CF911F910F910895009351
:1027A000780210937902F4CF2115310551F04217C8
:1027B000530738F0A901DB019A01BD01DF01F801DF
:1027C000C1CFEF01F9CF9093790280937802CDCFFA
:1027D000FE01E20FF31F8193919322503109398357
:1027E0002883D7CF2091760230917702232B41F4B2
:1027F00020911B0130911C013093770220937602C7
:102800002091190130911A012115310541F42DB79C
:102810003EB740911D0150911E01241B350BE091E4
:102820007602F0917702E217F307A0F42E1B3F0B1C
:102830002817390778F0AC014E5F5F4F2417350732
:1028400048F04E0F5F1F50937702409376028193BA
:1028500091939FCFF0E0E0E09CCFCF93DF93009780
:10286000E9F0FC01329713821282A0917802B091B4
:102870007902ED0130E020E01097A1F42081318150
:10288000820F931F20917602309177022817390723
:1028900009F061C0F0937702E0937602DF91CF9167
:1028A0000895EA01CE17DF07E8F54A815B819E01B2
:1028B00041155105B1F7E901FB83EA83499159912B
:1028C000C40FD51FEC17FD0761F48081918102963A
:1028D000840F951FE90199838883828193819B836B
:1028E0008A83F0E0E0E012968D919C911397009717
:1028F000B9F52D913C911197CD010296820F931F4E
:1029000020917602309177022817390739F63097EF
:1029100051F51092790210927802B0937702A09349
:102920007602BCCFD383C28340815181840F951F2F
:10293000C817D90761F44E5F5F4F88819981480FAE
:10294000591F518340838A819B8193838283211500
:10295000310509F0B0CFF0937902E09378029ECF71
:10296000FD01DC01C0CF13821282D7CFB0E0A0E01E
:10297000ECEBF4E10C94DE128C01009751F4CB01E6
:102980000E9491138C01C801CDB7DEB7E0E10C9431
:10299000FA12FC01E60FF71F9C0122503109E217E1
:1029A000F30708F49DC0D901CD91DC911197C617AA
:1029B000D70798F0C530D10530F3CE0104978617BC
:1029C000970708F3C61BD70B2297C193D1936D933A
:1029D0007C93CF010E942D14D6CF5B01AC1ABD0AA7
:1029E0004C018C0E9D1EA0917802B0917902512C61
:1029F000412CF12CE12C109731F5809176029091C9
:102A000077028815990509F05CC04616570608F04C
:102A100058C08091190190911A01009741F48DB727
:102A20009EB740911D0150911E01841B950BE81724
:102A3000F90708F055C0F0937702E0937602F901A8
:102A400071836083A0CF8D919C91119712966C90A9
:102A5000129713967C901397A815B90559F56C0138
:102A600042E0C40ED11CCA14DB0420F1AC014A19A7
:102A70005B09DA011296159780F0628273825183A6
:102A80004083D9016D937C93E114F10471F0D70177
:102A90001396FC93EE93129776CF22968C0F9D1F80
:102AA000F90191838083F301EFCFF0937902E093F2
:102AB000780269CF4816590608F42C017D01D3012C
:102AC0009ACFCB010E9491137C01009749F0AE018F
:102AD000B8010E947315C8010E942D14870153CFBD
:102AE00010E000E050CFFB01DC0102C001900D922C
:102AF00041505040D8F70895FB01DC0101900D9240
:102B00000020E1F70895FB01DC014150504048F0FE
:102B100001900D920020C9F701C01D924150504014
:102B2000E0F70895F894FFCFDD0401DD04C500014E
:102B300000000000D007E803E803D007FFFF41DDF5
:102B40000400007A0280003C0475040000000001CB
:102B5000FF00000000D10131015E013E028F016DD6
:102B60000181010D0A0052756E6E696E6720477211
:102B700069707065722064656D6F2070726F677226
:102B8000616D00436F6D706C657465642047726998
:102B9000707065722064656D6F2070726F6772610E
:102BA0006D000895F894FFCFDD0401DD04C5000138
:102BB00000000000D007E803E803D007FFFF41DD75
:102BC0000400007A0280003C04750400000000014B
:102BD000FF00000000D10131015E013E028F016D56
:102BE0000181010D0A0052756E6E696E6720477291
:102BF00069707065722064656D6F2070726F6772A6
:00000001FF
