:100000000C9476000C949E000C949E000C94C90BEA
:100010000C94C10B0C94B90B0C949E000C94800BA7
:100020000C949E000C949E000C949E000C949E00D8
:100030000C949E000C949E000C943D0B0C94FA0AB8
:100040000C94B00A0C949E000C947E0A0C94580AEE
:100050000C949E000C949E000C949E000C949E00A8
:100060000C949E000C949E00071626374858677F14
:1000700097A6B5C7D8E7F6422050200042204C2072
:1000800000FFFF0000204E00005C20BE023018C3BD
:1000900000F60F3B00A10A1500600708005C05048C
:1000A000001104020035030100000041542B4E41B1
:1000B0004D45004C65616E626F7420004C4200FE3D
:1000C000FDF77FBFFB0600010203040500040302E5
:1000D00001060543310043320043330000040001B0
:1000E00041200000422047200000F00B11241FBED9
:1000F000CFEFD8E0DEBFCDBF11E0A0E0B1E0E2E29B
:10010000FBE202C005900D92AC37B107D9F722E0AF
:10011000ACE7B1E001C01D92AC37B207E1F710E0E7
:10012000C6E7D0E004C02197FE010E948813C537BE
:10013000D107C9F70E94210C0C948F150C94000074
:1001400096B588E026B5291304C081500000000050
:10015000F9CF80939D0190939E0108950895AF92E9
:10016000BF92CF92DF92EF92FF920F931F93CF93A4
:10017000DF936C017B018B01040F151FEB015E0106
:10018000AE18BF08C017D10759F06991D601ED919B
:10019000FC910190F081E02DC6010995892B79F73A
:1001A000C501DF91CF911F910F91FF90EF90DF90EC
:1001B000CF90BF90AF900895FC01538D448D252FB3
:1001C00030E0842F90E0821B930B541710F0CF96F1
:1001D000089501970895FC01918D828D981761F023
:1001E000A28DAE0FBF2FB11D5D968C91928D9F5F3A
:1001F0009F73928F90E008958FEF9FEF0895FC0119
:10020000918D828D981731F0828DE80FF11D858DCB
:1002100090E008958FEF9FEF0895FC01918D228D5E
:10022000892F90E0805C9F4F821B91098F739927E3
:10023000089589ED91E00E940D0121E0892B09F4D8
:1002400020E0822F089580E090E0892B29F00E9421
:10025000190181110C9400000895FC01A48DA80FD0
:10026000B92FB11DA35ABF4F2C91848D90E00196F8
:100270008F739927848FA689B7892C93A089B18918
:100280008C91837080648C93938D848D981306C0B9
:100290000288F389E02D80818F7D80830895EF921D
:1002A000FF920F931F93CF93DF93EC0181E0888F30
:1002B0009B8D8C8D98131AC0E889F989808185FF00
:1002C00015C09FB7F894EE89FF896083E889F989A2
:1002D00080818370806480839FBF81E090E0DF91A4
:1002E000CF911F910F91FF90EF900895F62E0B8DF7
:1002F00010E00F5F1F4F0F731127E02E8C8D8E11B2
:100300000CC00FB607FCFACFE889F989808185FF18
:10031000F5CFCE010E942D01F1CFEB8DEC0FFD2F1B
:10032000F11DE35AFF4FF0829FB7F8940B8FEA89D3
:10033000FB8980818062CFCF0F931F93CF93DF9390
:100340008C01D0E0C0E0F801EC0FFD1F6491662342
:1003500041F089ED91E00E944F01892B11F0219627
:10036000F2CFCE01DF91CF911F910F910895682FA9
:1003700089ED91E00C944F01CF93DF93EC01888DD0
:100380008823B9F0AA89BB89E889F9898C9185FD10
:1003900003C0808186FD0DC00FB607FCF7CF8C919E
:1003A00085FFF2CF808185FFEDCFCE010E942D0128
:1003B000E9CFDF91CF9108953FB7F89480918B01F9
:1003C00090918C01A0918D01B0918E0126B5A89BD2
:1003D00005C02F3F19F00196A11DB11D3FBFBA2FD7
:1003E000A92F982F8827BC01CD01620F711D811D97
:1003F000911D42E0660F771F881F991F4A95D1F71C
:1004000008958F929F92AF92BF92CF92DF92EF9218
:10041000FF926B017C010E94DC014B015C01C11465
:10042000D104E104F104B9F00E94DC0168197909F2
:100430008A099B09683E73408105910580F321E09C
:10044000C21AD108E108F10888EE880E83E0981EF0
:10045000A11CB11CE4CFFF90EF90DF90CF90BF9034
:10046000AF909F908F9008952FB7F8946091870177
:10047000709188018091890190918A012FBF089520
:10048000CF92DF92EF92FF926A017B01239A9C0147
:1004900050E040E060E472E48FE090E00E94AF1230
:1004A00082E091E1332361F036952795492F417021
:1004B00002C0369527954A95E2F796958F5FF2CF61
:1004C0001092700092E49093B0008093B10021509C
:1004D0002093B300C114D104E104F10489F00E9417
:1004E0003402C60ED71EE81EF91EC092D501D09266
:1004F000D601E092D701F092D80182E0809370009B
:10050000FF90EF90DF90CF9008950F931F930E947C
:1005100034026093E1017093E2018093E3019093D0
:10052000E40189ED91E00E94EB0097FF1DC00E945D
:1005300034020091E1011091E2012091E301309138
:10054000E401601B710B820B930B0091DD01109194
:10055000DE012091DF013091E00160177107820711
:100560009307F8F28FEF9FEF1F910F9108950F936C
:100570001F93CF93DF93EC0145BD8A819B81AC81B2
:10058000BD818A179B0711F13981432F50E0440F39
:10059000551F4D575F4FFA0105911491FA01A817A5
:1005A000B90708F03DC0329645915491801B910BDC
:1005B000012B09F4CA01A817B90708F4DC014A178E
:1005C0005B0708F03E5F3983BB83AA83B7FF07C090
:1005D00080E88B0FB9F18D8369B9A0E0B3E02E817B
:1005E0003F81488589B16823A9F12150310941092A
:1005F0002E833F83488788818A0F9B2F911D282F48
:10060000237028839695879596958795803410F466
:10061000806890689987DF91CF911F910F9108951D
:10062000329745915491800F911F012B09F4CA0113
:100630008A179B0708F4DC01A417B50708F4C3CF99
:100640003250C1CFF89480916E00282320936E0021
:100650007894C5CF2F5F3F4F4F4FCACFE09107012E
:10066000F0910801E80FF11DE49123E0E29FC00141
:1006700011248E559E4F0895CF92DF92EF920F93E3
:100680001F93CF936B01E82EC0E0042F10E040FFD2
:1006900007C08C2F0E942E03FC01C082D182E2820F
:1006A000A80155954795CF5F4111EFCFCF911F918D
:1006B0000F91EF90DF90CF9008954FE760E070E0EA
:1006C00080E00C943C0397B19C6097B998B1937FFC
:1006D000492F486028E034E087FF07C048B936B9A1
:1006E000880F2150C9F798B9089598B9F8CFCF92DB
:1006F000DF92EF92FF92FA01641775075CF501969D
:100700006B01CC0CDD1CCE1ADF0A0D2C000CEE08A0
:10071000FF089C01990F440B550B2C193D094E09FC
:100720005F09A4EBB0E00E94CE129F01FF0F440BC3
:10073000550B2C193D094E095F090E94AF12DA01D1
:10074000C9018A559109A109B109FF90EF90DF9085
:10075000CF9008950197D4CF0E94DC01189B05C06B
:100760007093D4016093D301089510926B0020918F
:10077000D3013091D401621B730BF2CF0E9434027B
:1007800020917C0130917D01AB01421B530B57FD41
:1007900008C06C597F4F70937D0160937C0181E0AC
:1007A000089580E00895CF93DF93209109012111EE
:1007B0000EC0EC010E94BE03882349F0CE010E94C6
:1007C0009C018AE090E0DF91CF910C94B701DF911A
:1007D000CF9108958F7390E0C0960C94B701CF939A
:1007E000DF93D0918501DD2379F18CE790E00E94C1
:1007F0009C018091B701869586950E94EA03C0E02E
:100800008C2F0E942E03FC018081869586950E9484
:10081000EA038C2F0E942E03FC0181818695869528
:100820000E94EA038C2F0E942E03FC018281869590
:1008300086950E94EA03CF5FC73011F78AE090E007
:100840000E94B701109285018D2FDF91CF910895FD
:10085000CF93DF9320911601309117012F3F32077C
:1008600069F1AFEFBFE00E94321325E033E440E0CE
:1008700050E00E94AF12E9012115304110F0CFEF96
:10088000DFE087E790E00E949C01CE0126E096958C
:1008900087952A95E1F70E94EA038C2F0E94EA03CC
:1008A0008AE090E00E94B7018FEF9FEF90931701CD
:1008B0008093160181E0DF91CF91089580E0FBCF16
:1008C000FF920F931F93CF93DF93F62EC72F082F1E
:1008D00010E0869586950E94EA03D0E084E0000F40
:1008E000111F8A95E1F7CE0124E0959587952A9509
:1008F000E1F7802B0E94EA03CC0FDD1FCC0FDD1F38
:100900008F2D82958695869583708C2B0E94EA03A5
:100910008F2DDF91CF911F910F91FF900C94EA03DF
:10092000189580917A00806480937A0080917A0093
:1009300086FDFCCF809178009091790008950F9307
:100940001F93CF93DF93CCE7D0E08EE488830E949F
:1009500091040E9491040E9491040E9491040E94BB
:1009600091048C0118828EE088830E9491040E9479
:1009700091040E9491040E9491040E9491041882A3
:100980009C01A4EEBCE00E943213980150E040E0CC
:100990000E941013C901DF91CF911F910F9108950B
:1009A000409103015091040125E038E0429FC001CD
:1009B000439F900D529F900D1124875E994C909308
:1009C000040180930301890F08951092020187E0CA
:1009D00080937C0080917A00806480937A0080917B
:1009E0007A0086FDFCCF909178008091790089276C
:1009F000982789279695879596958795982FE8E665
:100A0000F0E080E02491921720F08F5F31968F30D4
:100A1000C9F70895CF92DF92EF92FF921F93CF9381
:100A2000DF9300D000D0CDB7DEB7809109018111EE
:100A3000D4C010911801113409F4CFC00E94BE0334
:100A4000882309F4CAC0612F89ED91E00E944F010B
:100A500080E290E00E94B701F894C090CE01D0905F
:100A6000CF01E090D001F090D101789480919F0166
:100A7000882341F0F094E094D094C094C11CD11C20
:100A8000E11CF11CCD2CDE2CEF2CFF24E7FCFA94AA
:100A9000F8948091C4019091C501A091C601B091D4
:100AA000C701789420919F01222339F0B095A09539
:100AB000909581959F4FAF4FBF4F892F9A2FAB2FA6
:100AC000BB27A7FDBA959F77AA27BB274FE0CC0C81
:100AD000DD1CEE1CFF1C4A95D1F7CC2420E8D22265
:100AE0002FE3F222C82AD92AEA2AFB2A8F2D0E9454
:100AF000EA03C701B6010E94600480E290E00E9410
:100B0000B7010E943402C090B801D090B901E090C2
:100B1000BA01F090BB019B01AC012C193D094E09B3
:100B20005F0969017A018F2D0E94EA03C701B601AE
:100B30000E94600480E290E00E94B70180917F01F2
:100B40000E94EA0310927F010E94E5040E94EA03DA
:100B50008AE090E00E94B7018091210190912201EA
:100B6000A0912301B091240189839A83AB83BC8334
:100B700080917E0190E001968170992780937E019B
:100B8000880F991FE1E0F0E0EC0FFD1FE80FF91F5F
:100B90000190F081E02D099581111FC080917E01A7
:100BA00090E001968170992780937E01880F991FAC
:100BB00041E050E04C0F5D1F840F951FDC01ED916B
:100BC000FC910F900F900F900F90DF91CF911F919C
:100BD000FF90EF90DF90CF9009940F900F900F90BF
:100BE0000F90DF91CF911F91FF90EF90DF90CF900A
:100BF0000895CF93DF932898209A81E083B9E3E2A8
:100C0000F0E03197F1F783B920982CEA33E0309384
:100C10001A01209319018BBB909168009160909309
:100C2000680080936B000E94DC01EB01C158D64E36
:100C300080916B00882379F00E94DC016C1B7D0B96
:100C400064367105A8F710926B0088EA9EED9093C8
:100C5000D4018093D30180911801813451F08091A7
:100C6000D3019091D40190931701809316010E94B3
:100C70000A058091D3019091D401DF91CF9108951D
:100C8000AF92BF92DF92EF92FF920F931F93CF9399
:100C9000DF93C091B7010E94DC01009181011091A6
:100CA00082012091830130918401601B710B820BC2
:100CB000930B6A3F71058105910568F30E94DC0181
:100CC00060938101709382018093830190938401EA
:100CD0000E94DC012091760230917702621B730B37
:100CE0006A307105A8F3F894E091A001F091A10198
:100CF00075B1706265B16F7D65B9259A81E08C0F21
:100D0000118123E030E090E0A7E0AA2EB12CD501BC
:100D1000092FC92FD92FF92E492F592F518111276A
:100D2000889451115C0F08F45FEFC195889480FDA1
:100D3000150F1795889481FD150F1795889482FDDE
:100D4000150F1795889483FD150F1795889484FDCA
:100D5000150F1795889485FD150F1795889486FDB6
:100D6000150F1795889487FD150F17958894052FF3
:100D70008111012FC90F102F002C75B900C017FF6A
:100D800065B950810027889400C000C0002C65B967
:100D900051115D0F00C0002C75B900C016FF65B978
:100DA00008F45FEFD195889400C000C0002C65B9AD
:100DB00080FD050F00C0002C75B900C015FF65B996
:100DC0000795889481FD050F00C000C0002C65B90F
:100DD0000795889400C0002C75B900C014FF65B950
:100DE00082FD050F0795889400C000C0002C65B9EE
:100DF00083FD050F00C0002C75B900C013FF65B955
:100E00000795889484FD050F00C000C0002C65B9CB
:100E10000795889400C0002C75B900C012FF65B911
:100E200085FD050F0795889400C000C0002C65B9AA
:100E300086FD050F00C0002C75B900C011FF65B913
:100E40000795889487FD050F00C000C0002C65B988
:100E50000795889400C0002C75B900C010FF65B9D3
:100E6000152F8111102FD90F00C000C0002C65B9BB
:100E700000C000C0002C75B900C017FF65B95281D1
:100E80000027889400C000C0002C65B951115F0D87
:100E900000C0002C75B900C016FF65B908F45FEFFB
:100EA000E20FF31F00C000C0002C65B980FD050FE4
:100EB00000C0002C75B900C015FF65B9079588946E
:100EC00081FD050F00C000C0002C65B9079588940E
:100ED00000C0002C75B900C014FF65B982FD050F74
:100EE0000795889400C000C0002C65B983FD050FEC
:100EF00000C0002C75B900C013FF65B90795889430
:100F000084FD050F00C000C0002C65B907958894CA
:100F100000C0002C75B900C012FF65B985FD050F32
:100F20000795889400C000C0002C65B986FD050FA8
:100F300000C0002C75B900C011FF65B907958894F1
:100F400087FD050F00C000C0002C65B90795889487
:100F500000C0002C75B900C010FF65B9152F8111B4
:100F6000102FF19400C000C0002C65B9F90E00C02C
:100F700000C075B900C017FF65B95181002788947A
:100F800000C000C0002C65B951115C0F00C0002CDE
:100F900075B900C016FF65B908F45FEFC195889474
:100FA00000C000C0002C65B980FD050F00C0002CFA
:100FB00075B900C015FF65B90795889481FD050FC7
:100FC00000C000C0002C65B90795889400C0002CB3
:100FD00075B900C014FF65B982FD050F07958894A7
:100FE00000C000C0002C65B983FD050F00C0002CB7
:100FF00075B900C013FF65B90795889484FD050F86
:1010000000C000C0002C65B90795889400C0002C72
:1010100075B900C012FF65B985FD050F0795889465
:1010200000C000C0002C65B986FD050F00C0002C73
:1010300075B900C011FF65B90795889487FD050F44
:1010400000C000C0002C65B90795889400C0002C32
:1010500075B900C010FF65B9152F8111102FC90F88
:1010600000C000C0002C65B9119709F086CE30E0B1
:1010700020E0C9016AE9A69E0A0C811DB69E800D7A
:10108000911D11248B0D911DB0E0A0E0AC01BD01BC
:101090004E525F4F6F4F7F4F493E53406105710580
:1010A00008F434C086519340A109B10942E0B695D5
:1010B000A795979587954A95D1F747E0849F080EA5
:1010C000211D949F200D311D1124290F311D4091A8
:1010D000800150E0840F951F280F391F80918701F0
:1010E00090918801A0918901B0918A01432F5527E1
:1010F000840F951FA11DB11D8093870190938801D6
:10110000A0938901B0938A012093800178940E9472
:10111000DC0170937702609376028091180181342C
:1011200071F081E080938501DF91CF911F910F9144
:10113000FF90EF90DF90BF90AF900C940A05DF9185
:10114000CF911F910F91FF90EF90DF90BF90AF90E4
:101150000895CF93DF93EC010E9440068AB1806F1F
:101160008AB99E01220F331F220F331F25503109E8
:101170008FEF9FE740E650EF49B959B9C230D1052A
:1011800018F0F9013197F1F78C1B9D0B97FFF4CF05
:10119000DF91CF910895CF93DF93EC010E940A0570
:1011A000209751F061E070E080E090E00E94010241
:1011B0000E940A052197F4CFDF91CF910895CF9334
:1011C000DF93D82FC0E086E990E00E94CB0842E38D
:1011D00050E060E070E080EE96E00E944002CF5F59
:1011E000DC13F1CFDF91CF9108950E949F042091ED
:1011F000BD013091BE01A901481B590BCA01181647
:10120000190644F495958795281B390B3093BE0138
:101210002093BD0190E080E00C94CB08009761F032
:10122000813629E0920714F080E699E0883522E0C3
:10123000920714F488E592E022EB209380009093CB
:1012400089008093880080E286BBB59903C00E9424
:10125000F508FBCF0895009761F0813629E09207E9
:1012600014F080E699E0883542E0940714F488E5AC
:1012700092E02091860030918700A901481B590B0C
:1012800020EB2093800050938B0040938A0081E0F4
:1012900086BBB09903C00E94F508FBCF089590E08B
:1012A00080E00E942B0990E080E00C940E09FF92F0
:1012B0000F931F93CF93DF93C62FF72E8C01D42F5C
:1012C0000E945D038C2F9F2DD8018D01222733278B
:1012D000892F9A2FAB2FBB274D2F602F782F8C2F64
:1012E0000E943C030E94400684EF91E0DF91CF9181
:1012F0001F910F91FF900C94CB08FC0101900020EE
:10130000E9F73197AF01481B590BBC0189ED91E01A
:101310000C94AF00FC0180819181009711F00C9436
:101320002A1408958FE891E00C948A090F931F9373
:10133000CF93DF93EC0188819981009759F02A813E
:101340003B812617370730F081E0DF91CF911F9165
:101350000F9108958B016F5F7F4F0E94B314009728
:1013600059F0998388831B830A832C813D81232B29
:1013700059F7FC011082E8CF80E0E7CFEF92FF92AF
:101380000F931F93CF93DF93EC017B018A01BA0186
:101390000E94960928813981811114C021153105D7
:1013A00019F0C9010E942A14198218821D821C8218
:1013B0001B821A82CE01DF91CF911F910F91FF9076
:1013C000EF9008951D830C83B701C9010E94791520
:1013D000F1CF1F93CF93DF93EC010E94A712182F38
:1013E000CE0101960E94A712912FDF91CF911F91FC
:1013F00008959F92AF92BF92CF92DF92EF92FF92A9
:101400000F931F93CF93DF935C01D62E972EC42E9C
:10141000C0E0D2E0CE010E94E909A816B90639F071
:101420006096C11584E0D807A9F780E035C0F12C9B
:10143000E12C02EA1EE7CE018E0D9F1D0E94A7122D
:10144000082788E0902F917016950795992321F031
:1014500091E0092790EA19278150A1F7EFEFEE1AE2
:10146000FE0AFEE0EF16F10431F7CE010E960E945F
:10147000E90980179107A1F62296FD2C0D2D192D53
:10148000CE010E94A712F80181938F0121968E2F21
:101490008F198C15A8F381E0DF91CF911F910F91E7
:1014A000FF90EF90DF90CF90BF90AF909F90089506
:1014B0001F920F920FB60F9211242F933F934F93C9
:1014C0005F936F937F938F939F93AF93BF93EF93AC
:1014D000FF9389ED91E00E942D01FF91EF91BF9163
:1014E000AF919F918F917F916F915F914F913F91BC
:1014F0002F910F900FBE0F901F9018951F920F9273
:101500000FB60F9211242F938F939F93EF93FF9316
:10151000E091E901F091EA018081E091EF01F09121
:10152000F00182FD1BC090818091F2018F5F8F736B
:101530002091F301821741F0E091F201F0E0E752CF
:10154000FE4F958F8093F201FF91EF919F918F91C4
:101550002F910F900FBE0F901F9018958081F4CFA0
:101560001F920F920FB60F9211242F933F938F93D8
:101570009F93AF93BF938091870190918801A09131
:101580008901B0918A013091860123E0230F2D3724
:1015900058F50196A11DB11D209386018093870106
:1015A00090938801A0938901B0938A0180918B0167
:1015B00090918C01A0918D01B0918E010196A11D99
:1015C000B11D80938B0190938C01A0938D01B093FA
:1015D0008E01BF91AF919F918F913F912F910F906D
:1015E0000FBE0F901F90189526E8230F0296A11D9D
:1015F000B11DD2CF78941F920F920FB60F92112483
:101600002F933F934F935F936F937F938F939F930A
:10161000AF93BF93EF93FF9304B405FC0AC02BEF85
:1016200043E460E18FEB91E00E94B70298B5890F27
:1016300088BD8091C801982F9F77D1F498B5890F04
:1016400088BD90E1F89484B58F7C892B84BDFF918F
:10165000EF91BF91AF919F918F917F916F915F912A
:101660004F913F912F910F900FBE0F901F901895A3
:1016700081508093C80190E2E5CF78941F920F9239
:101680000FB60F9211242F933F934F935F936F9355
:101690007F938F939F93AF93BF93EF93FF9304B484
:1016A00007FC0AC02DEF43E860E889EC91E00E9456
:1016B000B70297B5890F87BD8091D201982F9F7788
:1016C000D1F497B5890F87BD90E4F89484B58F73F2
:1016D000892B84BDFF91EF91BF91AF919F918F9125
:1016E0007F916F915F914F913F912F910F900FBE1E
:1016F0000F901F90189581508093D20190E8E5CF0C
:101700001F920F920FB60F9211244F935F936F9316
:101710007F938F939F93AF93BF9340918701509195
:1017200088016091890170918A018091D501909121
:10173000D601A091D701B091D801481759076A077F
:101740007B0750F0109270001092B30081E08093FC
:10175000B00084E08093B100BF91AF919F918F91D1
:101760007F916F915F914F910F900FBE0F901F90DF
:101770001895EF93FF93E0910001F09101010C9413
:10178000CF0BEF93FF93E0910501F09106010C94CC
:10179000CF0BEF93FF93E0911901F0911A011F9283
:1017A0000F920FB60F9211242F933F934F935F9395
:1017B0006F937F938F939F93AF93BF930995BF913F
:1017C000AF919F918F917F916F915F914F913F91D9
:1017D0002F910F900FBE0F901F90FF91EF911895D2
:1017E000E9EDF1E01382128288EE93E0A0E0B0E030
:1017F00084839583A683B7838FE291E0918380836E
:1018000085EC90E09587848784EC90E097878687C5
:1018100080EC90E0918B808B81EC90E0938B828BBD
:1018200082EC90E0958B848B86EC90E0978B868B96
:10183000118E128E138E148E1092770210927602F1
:101840000895CF93DF93CDB7DEB7E9970FB6F8943D
:10185000DEBF0FBECDBF789484B5826084BD84B5F1
:10186000816084BD85B5826085BD85B5816085BD9B
:1018700080916E00816080936E0010928100809153
:1018800081008260809381008091810081608093DB
:101890008100809180008160809380008091B10000
:1018A00084608093B1008091B00081608093B0002B
:1018B00080917A00846080937A0080917A008260BF
:1018C00080937A0080917A00816080937A00809181
:1018D0007A00806880937A001092C100E091E9015B
:1018E000F091EA0182E08083E091E501F091E60168
:1018F0001082E091E701F091E80180E1808310928D
:10190000F101E091ED01F091EE0186E08083E0913C
:10191000EB01F091EC01808180618083E091EB012B
:10192000F091EC01808188608083E091EB01F0917F
:10193000EC01808180688083E091EB01F091EC0103
:1019400080818F7D80838DE391E00E947D0962E339
:1019500070E080E090E00E9401028BEA90E00E943B
:101960009C018DE391E00E947D0980919501811198
:101970000FC01092900110928F011092920110925C
:101980009101109294011092930181E0809395014E
:101990006CE170E08FE891E00E9496091A8219824A
:1019A0001C821B821E821D8250E040E06FE371E0CA
:1019B0009E012F5F3F4F7901C9010E94BE090E941D
:1019C000850297FD1DC08A309105D1F08AA31BA224
:1019D0000D811E810F5F1F4FB801C7010E9496093C
:1019E000882369F329813A818D819E81BE016E5DD4
:1019F0007F4F820F931F0E9479151E830D83DFCFC7
:101A000080918F019091900169817A81009709F40A
:101A10006CC16115710509F466C140919101509145
:101A200092012D813E814217530708F45CC10E9448
:101A300079158D819E8190939401809393011E82EC
:101A40001D82C7010E948A091A8219821C821B8288
:101A50001E821D8260918F01709190016115710548
:101A600039F04091930150919401C7010E94BE0941
:101A70004D815E8141155105B9F066E070E0463058
:101A8000510508F4BA0189819A81461B570B5E8380
:101A90004D83680F791F0E948015E981FA818D813D
:101AA0009E81E80FF91F108209811A8148E050E0F9
:101AB00063EB70E0C8010E9484127FE3872E72E41A
:101AC000972E7FE0A72EB12C892B31F4C801089600
:101AD0000E945D124B015C01C7010E948A098CEBD8
:101AE00090E00E949C0119A28E010F5D1F4F6AE0D9
:101AF000462E512C612C712CC501B401A301920119
:101B00000E94101349015A01605DD8016E938D0146
:101B100081149104A104B10479F7109719F0CD0153
:101B20000E947D098DE391E00E947D09EFEBF0E0DA
:101B300084910E94630389ED91E00E94BC01F894B6
:101B400086B596B58917E9F39CE096B990916E0039
:101B50009E7F90936E0092E0980F8E5980939E0125
:101B600086B59813FDCF87B1837F87B98CE086B99E
:101B700020EA30E0309306012093050182E08BBB20
:101B80008091680082608093680084E080936C009C
:101B9000789486B5891B8036E0F310926C00F89437
:101BA00080916E00816080936E00789480919E0198
:101BB00080919D018FEC0E9463038CE086B90E94A6
:101BC000E5046AE070E080E090E00E94010286E0B7
:101BD000E5E2F1E0D70101900D928A95E1F746E048
:101BE000B70184EE9BEF0E94F909811195C08CEC3E
:101BF00090E0909308018093070188E0F70111922B
:101C00008A95E9F748E0B70186E291E30E94F90975
:101C10006AEF70E080E090E00E94010287E69BE2BC
:101C2000909387008093860082EB8093800082E10E
:101C30008093810084B1866084B980910E01909177
:101C40000F0190930B0180930A010E942B0968EC0D
:101C500070E080E090E00E9401028091120190917A
:101C6000130190930D0180930C010E940E0968EC02
:101C700070E080E090E00E9401020E944F0982EA39
:101C800091E09093A1018093A00180E38093B7013C
:101C90000E945D030E94400608EE13E041E250E01E
:101CA00060E070E08CEB92E00E944002C8010E946C
:101CB000A9080E945D03C8010E94A9084FE76FEFC1
:101CC0007FEF8FEF0E943C030E949F048C339F4064
:101CD00008F095C0C80144E0969587954A95E1F7CC
:101CE000081B190BDBCF0E942A1489819A819093DB
:101CF000900180938F018B819C81909392018093BE
:101D000091018D819E8190939401809393011A8219
:101D100019821C821B8293CE0C81002E000C110BA9
:101D2000065A1F4F7B80CA800C2C000CDD08BAE5D8
:101D3000CB0ED11C2981022E000C330BA8E1BCEF85
:101D40000E9479135AE5852E912CA12CB12CA50166
:101D500094010E94AF122053384F4F4F5F4F309382
:101D60000F0120930E019601A8E1BCEF0E947913A8
:101D7000A50194010E94AF122053384F4F4F5F4F7F
:101D80003093110120931001A72D770CBB0B28EE87
:101D900033E00E948113A50194010E94AF122851E3
:101DA0003C4F4F4F5F4F309313012093120128EEA9
:101DB00033E0D8010E948113A50194010E94AF1263
:101DC00028513C4F4F4F5F4F309315012093140122
:101DD0008D81813051F0823079F081E09E8197379A
:101DE00009F080E080939F0108CF8CEC90E0909305
:101DF000080180930701F1CF85EC90E0F8CF0E94B5
:101E00005D0320E030E83093CE012093CD01809136
:101E10006E00826080936E0078943093C4012093AA
:101E2000C30180916E00846080936E00789481E499
:101E30008093180181E08093090182E00E94DF080D
:101E400026E6D22E33E3C32E1091BC011F5F109300
:101E5000BC010E945D03E12FE695E695E370F0E09A
:101E6000E452FF4F84910E942E03FC01D082C18274
:101E7000D2820E9440066DE770E080E090E00E9410
:101E8000010280910901811110C00E94BE038823C4
:101E900061F080EE90E00E949C0183EE90E00E9451
:101EA0009C018AE090E00E94B7010E94E5048C301A
:101EB00009F444C089ED91E00E940D01892B21F2C3
:101EC0001A8219821C821B821E821D8250E040E011
:101ED0006FE371E0C7010E94BE090E9485020D8177
:101EE0001E8197FD1BC08A309105C1F08AA31BA2F9
:101EF0000F5F1F4FB801C7010E949609882369F33D
:101F000029813A818D819E81BE016E5D7F4F820F56
:101F1000931F0E9479151E830D83DFCF012B39F0AB
:101F2000E981FA81309719F08081813421F0C7016D
:101F30000E948A0989CFC7010E948A096DE770E073
:101F400080E090E00E9401020E9434028B0183E451
:101F50008093180189ED90E00E94D30381E00E94F4
:101F6000DF080E945D0343E166E673E386E60E94B4
:101F70003C030E9440060E943402601B710B683EC5
:101F80007340CCF386ED90E00E94D30381E00E9481
:101F9000DF0881E00E942E03FC0110821182128270
:101FA0000E9440060E943402601B710B603D774026
:101FB000CCF383ED90E00E94D30381E00E94DF0820
:101FC00080E00E942E03FC011082118212820E9486
:101FD00040060E943402601B710B683B7B40CCF3CF
:101FE0000E9434026093B8017093B9018093BA01E2
:101FF0009093BB0182E48093180181E090E00E94FD
:10200000CB0842E350E060E070E08CE298E00E9490
:10201000400284E00E942E03FC0110821182128291
:102020000E94400680E491E00E947D098DE391E0EA
:102030000E947D094FE765E575E585E590E00E9422
:10204000570943E060E070E08FEF90E00E9457098D
:1020500043E460E07FEF8FEF90E00E94570943E692
:1020600060E07FEF80E090E00E94570942E76FEF69
:102070007FEF80E090E00E9457094AE76FEF70E041
:1020800080E090E00E9457094EE76FEF70E0CB01CF
:102090000E94570904E010E00E94D004F82E0E942C
:1020A000D004E82E0E94D004D82E80E00E942E0397
:1020B000FC01D082E182F2820E94D004F82E0E94BC
:1020C000D004E82E0E94D004D82E81E00E942E0376
:1020D000FC01D082E182F2820E94D004F82E0E949C
:1020E000D004E82E0E94D004D82E86E00E942E0351
:1020F000FC01D082E182F2820E94D004F82E0E947C
:10210000D004E82E0E94D004D82E85E00E942E0331
:10211000FC01D082E182F2820E94D004F82E0E945B
:10212000D004E82E0E94D004D82E84E00E942E0312
:10213000FC01D082E182F2820E94D004F82E0E943B
:10214000D004E82E0E94D004D82E83E00E942E03F3
:10215000FC01D082E182F2820E94D004F82E0E941B
:10216000D004E82E0E94D004D82E82E00E942E03D4
:10217000FC01D082E182F2820E94400684EF91E06D
:102180000E94CB080150110909F086CF8DE591E03E
:102190000E947D098DE391E00E947D0920E030E8F6
:1021A0003093CE012093CD0180916E0082608093A8
:1021B0006E0078943093C4012093C30180916E0027
:1021C000846080936E0078948091CC01803809F00F
:1021D00055C18091C201803809F050C18AE58093D1
:1021E000180183E00E94DF0810E0812F0E942E0377
:1021F000FC018081811111C0818181110EC0828119
:1022000081110BC01F5F173081F743E166E673E36E
:1022100086E60E943C030E944006409110015091C6
:10222000110160910E0170910F0180910A0190914E
:102230000B010E9477038C0188279927801B910B43
:1022400017FD8C014091140150911501609112010C
:102250007091130180910C0190910D010E94770300
:1022600022273327281B390B97FDC90120918600AF
:1022700030918700D801081719070CF4DC010E947F
:10228000811328EE33E040E050E00E941013290152
:102290003DA72CA70E94F905C0900C01D0900D011C
:1022A00000911201109113014091140150911501F8
:1022B000B801C6010E9477035C01E0900A01F0902A
:1022C0000B0120900E0130900F01409110015091B0
:1022D0001101B101C7010E9477034C0180910901EE
:1022E000811130C080911801813461F184EE90E059
:1022F0000E949C01852D859585950E94EA0384E0C6
:10230000559447948A95E1F7842D0E94EA0393E05F
:10231000692E712CC401B3010E946513862F0E949F
:10232000EA0380E00E94EA03C501B3010E9465133D
:10233000862F0E94EA0380E00E94EA038AE090E090
:102340000E94B7010E9434026AAB7BAB8CAB9DABA1
:102350008FE097E29093BE018093BD01809186004B
:102360009091870064EF71E00E9451132701FF0CE8
:10237000660877088CA59DA5092E000CAA0BBB0B3F
:102380008EA79FA7A8ABB9ABC101032C000CAA0B69
:10239000BB0B9C01AD0124193509460957092EAB29
:1023A0003FAB48AF59AF0D2C000CEE08FF08C80139
:1023B000012E000CAA0BBB0B9C01AD012C193D0991
:1023C0004E095F0928A739A74AA75BA74CA55DA5B9
:1023D000641775070CF05EC04B01770FAA08BB08A5
:1023E0002EA93FA948AD59ADC501B4010E944113C2
:1023F0002EA53FA548A959A90E94AF12DA01C9012B
:10240000840D951DA61DB71D8CA39DA3AEA3BFA3D0
:1024100028A539A54AA55BA5C501B4010E944113B1
:102420002EA53FA548A959A90E94AF1249015A01FA
:102430008C0C9D1CAE1CBF1CACA1BDA1B0930B01AC
:10244000A0930A0190920D0180920C01CD010E948F
:102450002B09C4010E940E098091BD019091BE011B
:102460008C3C904184F40E944F0960E177E280E067
:1024700090E00E9401020E940A05F7CF81E090E0FF
:102480000E94CB08A1CE0E943402EAA9FBA96E1BD0
:102490007F0B9CCF30920B0120920A0110930D010B
:1024A00000930C01C1010E942B09C8010E940E0972
:1024B0000E944F090E94F905D8CF1F93FC0199276C
:1024C0008827BC01E89411911032E9F3193010F01B
:1024D0001E30C8F31B3251F01D3249F4689406C017
:1024E0000E949212610F711D811D911D1191105357
:1024F0001A30B0F33EF490958095709561957F4FBA
:102500008F4F9F4F1F910895FB01DC0141505040B8
:1025100030F08D910590801919F40020B9F7881BCF
:10252000990B0895592F482F372F262F660F771FA5
:10253000881F991F660F771F881F991F620F731FCF
:10254000841F951F660F771F881F991F0895F9999B
:10255000FECF92BD81BDF89A992780B50895052ECA
:1025600097FB1EF400940E94C61257FD07D00E94EC
:10257000101307FC03D04EF40C94C61250954095EE
:10258000309521953F4F4F4F5F4F0895909580951F
:10259000709561957F4F8F4F9F4F08950E94321322
:1025A000A59F900DB49F900DA49F800D911D1124A7
:1025B00008952F923F924F925F926F927F928F92E7
:1025C0009F92AF92BF92CF92DF92EF92FF920F93C2
:1025D0001F93CF93DF93CDB7DEB7CA1BDB0B0FB6CC
:1025E000F894DEBF0FBECDBF09942A883988488889
:1025F0005F846E847D848C849B84AA84B984C8841F
:10260000DF80EE80FD800C811B81AA81B981CE0F15
:10261000D11D0FB6F894DEBF0FBECDBFED010895FA
:10262000A1E21A2EAA1BBB1BFD010DC0AA1FBB1FD6
:10263000EE1FFF1FA217B307E407F50720F0A21B48
:10264000B30BE40BF50B661F771F881F991F1A94B5
:1026500069F760957095809590959B01AC01BD01DF
:10266000CF010895A29FB001B39FC001A39F700D39
:10267000811D1124911DB29F700D811D1124911D8A
:102680000895DB018F939F930E94CE12BF91AF916B
:10269000A29F800D911DA39F900DB29F900D1124BC
:1026A0000895AA1BBB1B51E107C0AA1FBB1FA61799
:1026B000B70710F0A61BB70B881F991F5A95A9F7EB
:1026C00080959095BC01CD01089597FB072E16F4D7
:1026D000009407D077FD09D00E94511307FC05D064
:1026E0003EF4909581959F4F0895709561957F4F29
:1026F00008950E943213332312F48A1B9B0B0C940F
:1027000083130E943213B7FF0895821B930B089521
:10271000EE0FFF1F0590F491E02D09940F931F9386
:10272000CF93DF938230910510F482E090E0E09146
:102730007A02F0917B0230E020E0B0E0A0E0309738
:1027400099F42115310509F44AC0281B390B2430AE
:102750003105D8F58A819B816115710589F1FB01ED
:1027600093838283FE0111C04081518102811381D4
:1027700048175907E0F04817590799F4109761F086
:1027800012960C93129713961C933296CF01DF91F9
:10279000CF911F910F91089500937A0210937B02BD
:1027A000F4CF2115310551F04217530738F0A90134
:1027B000DB019A01BD01DF01F801C1CFEF01F9CFC3
:1027C00090937B0280937A02CDCFFE01E20FF31F3C
:1027D000819391932250310939832883D7CF209157
:1027E000780230917902232B41F420911D01309120
:1027F0001E01309379022093780220911B013091C1
:102800001C012115310541F42DB73EB740911F0140
:1028100050912001241B350BE0917802F091790250
:10282000E217F307A0F42E1B3F0B2817390778F0A7
:10283000AC014E5F5F4F2417350748F04E0F5F1F06
:102840005093790240937802819391939FCFF0E067
:10285000E0E09CCFCF93DF930097E9F0FC01329743
:1028600013821282A0917A02B0917B02ED0130E0D6
:1028700020E01097A1F420813181820F931F2091D5
:102880007802309179022817390709F061C0F09376
:102890007902E0937802DF91CF910895EA01CE1793
:1028A000DF07E8F54A815B819E0141155105B1F7CB
:1028B000E901FB83EA8349915991C40FD51FEC17B5
:1028C000FD0761F4808191810296840F951FE901D3
:1028D00099838883828193819B838A83F0E0E0E0FF
:1028E00012968D919C9113970097B9F52D913C917B
:1028F0001197CD010296820F931F2091780230919B
:1029000079022817390739F6309751F510927B0272
:1029100010927A02B0937902A0937802BCCFD3834D
:10292000C28340815181840F951FC817D90761F474
:102930004E5F5F4F88819981480F591F51834083B3
:102940008A819B81938382832115310509F0B0CF61
:10295000F0937B02E0937A029ECFFD01DC01C0CFB1
:1029600013821282D7CFB0E0A0E0E9EBF4E10C943F
:10297000DB128C01009751F4CB010E948E138C0165
:10298000C801CDB7DEB7E0E10C94F712FC01E60F09
:10299000F71F9C0122503109E217F30708F49DC08C
:1029A000D901CD91DC911197C617D70798F0C530A2
:1029B000D10530F3CE0104978617970708F3C61B9D
:1029C000D70B2297C193D1936D937C93CF010E9433
:1029D0002A14D6CF5B01AC1ABD0A4C018C0E9D1E89
:1029E000A0917A02B0917B02512C412CF12CE12C68
:1029F000109731F5809178029091790288159905A8
:102A000009F05CC04616570608F058C080911B01BB
:102A100090911C01009741F48DB79EB740911F0122
:102A200050912001841B950BE817F90708F055C059
:102A3000F0937902E0937802F90171836083A0CF6B
:102A40008D919C91119712966C90129713967C9091
:102A50001397A815B90559F56C0142E0C40ED11CB5
:102A6000CA14DB0420F1AC014A195B09DA011296A1
:102A7000159780F06282738251834083D9016D93F0
:102A80007C93E114F10471F0D7011396FC93EE935B
:102A9000129776CF22968C0F9D1FF9019183808328
:102AA000F301EFCFF0937B02E0937A0269CF4816EF
:102AB000590608F42C017D01D3019ACFCB010E9465
:102AC0008E137C01009749F0AE01B8010E94701589
:102AD000C8010E942A14870153CF10E000E050CFB4
:102AE000FB01DC0102C001900D9241505040D8F72B
:102AF0000895FB01DC0101900D920020E1F708959B
:102B0000FB01DC014150504048F001900D92002043
:102B1000C9F701C01D9241505040E0F70895F89464
:102B2000FFCF90040139059004C5000100000000AA
:102B3000D007E803E803D007FFFF41900400007CC2
:102B4000028000EF0328040000000001FF000000E5
:102B5000004F01AF00DC00BC010D01EB00FF000DD8
:102B60000A0052756E6E696E67204C65642052478C
:102B7000422064656D6F2070726F6772616D0043F3
:102B80006F6D706C65746564204C656420524742BB
:102B90002064656D6F2070726F6772616D00F894CC
:102BA000FFCF90040139059004C50001000000002A
:102BB000D007E803E803D007FFFF41900400007C42
:102BC000028000EF0328040000000001FF00000065
:102BD000004F01AF00DC00BC010D01EB00FF000D58
:102BE0000A0052756E6E696E67204C65642052470C
:102BF000422064656D6F2070726F6772616D004373
:00000001FF
