:100000000C9476000C949E000C949E000C94C40BEF
:100010000C94BC0B0C94B40B0C949E000C947B0BB6
:100020000C949E000C949E000C949E000C949E00D8
:100030000C949E000C949E000C94380B0C94F50AC2
:100040000C94AB0A0C949E000C94790A0C94530AFD
:100050000C949E000C949E000C949E000C949E00A8
:100060000C949E000C949E00071626374858677F14
:1000700097A6B5C7D8E7F6422050200042204C2072
:1000800000FFFF0000204E00005C20BE023018C3BD
:1000900000F60F3B00A10A1500600708005C05048C
:1000A000001104020035030100000041542B4E41B1
:1000B0004D45004C65616E626F7420004C4200FE3D
:1000C000FDF77FBFFB0600010203040500040302E5
:1000D00001060543310043320043330000040001B0
:1000E00041200000422047200000EB0B11241FBEDE
:1000F000CFEFD8E0DEBFCDBF11E0A0E0B1E0E0E09F
:10010000FBE202C005900D92A034B107D9F722E0BE
:10011000A0E4B1E001C01D92A034B207E1F710E005
:10012000C6E7D0E004C02197FE010E947713C537CF
:10013000D107C9F70E941C0C0C947E150C9400008A
:1001400096B588E026B5291304C081500000000050
:10015000F9CF809361019093620108950895AF9261
:10016000BF92CF92DF92EF92FF920F931F93CF93A4
:10017000DF936C017B018B01040F151FEB015E0106
:10018000AE18BF08C017D10759F06991D601ED919B
:10019000FC910190F081E02DC6010995892B79F73A
:1001A000C501DF91CF911F910F91FF90EF90DF90EC
:1001B000CF90BF90AF900895FC01538D448D252FB3
:1001C00030E0842F90E0821B930B541710F0CF96F1
:1001D000089501970895FC01918D828D981761F023
:1001E000A28DAE0FBF2FB11D5D968C91928D9F5F3A
:1001F0009F73928F90E008958FEF9FEF0895FC0119
:10020000918D828D981731F0828DE80FF11D858DCB
:1002100090E008958FEF9FEF0895FC01918D228D5E
:10022000892F90E0805C9F4F821B91098F739927E3
:1002300008958DE991E00E940D0121E0892B09F4D8
:1002400020E0822F089580E090E0892B29F00E9421
:10025000190181110C9400000895FC01A48DA80FD0
:10026000B92FB11DA35ABF4F2C91848D90E00196F8
:100270008F739927848FA689B7892C93A089B18918
:100280008C91837080648C93938D848D981306C0B9
:100290000288F389E02D80818F7D80830895EF921D
:1002A000FF920F931F93CF93DF93EC0181E0888F30
:1002B0009B8D8C8D98131AC0E889F989808185FF00
:1002C00015C09FB7F894EE89FF896083E889F989A2
:1002D00080818370806480839FBF81E090E0DF91A4
:1002E000CF911F910F91FF90EF900895F62E0B8DF7
:1002F00010E00F5F1F4F0F731127E02E8C8D8E11B2
:100300000CC00FB607FCFACFE889F989808185FF18
:10031000F5CFCE010E942D01F1CFEB8DEC0FFD2F1B
:10032000F11DE35AFF4FF0829FB7F8940B8FEA89D3
:10033000FB8980818062CFCF0F931F93CF93DF9390
:100340008C01D0E0C0E0F801EC0FFD1F6491662342
:1003500041F08DE991E00E944F01892B11F0219627
:10036000F2CFCE01DF91CF911F910F910895682FA9
:100370008DE991E00C944F01CF93DF93EC01888DD0
:100380008823B9F0AA89BB89E889F9898C9185FD10
:1003900003C0808186FD0DC00FB607FCF7CF8C919E
:1003A00085FFF2CF808185FFEDCFCE010E942D0128
:1003B000E9CFDF91CF9108953FB7F89480914F0135
:1003C00090915001A0915101B091520126B5A89B86
:1003D00005C02F3F19F00196A11DB11D3FBFBA2FD7
:1003E000A92F982F8827BC01CD01620F711D811D97
:1003F000911D42E0660F771F881F991F4A95D1F71C
:1004000008958F929F92AF92BF92CF92DF92EF9218
:10041000FF926B017C010E94DC014B015C01C11465
:10042000D104E104F104B9F00E94DC0168197909F2
:100430008A099B09683E73408105910580F321E09C
:10044000C21AD108E108F10888EE880E83E0981EF0
:10045000A11CB11CE4CFFF90EF90DF90CF90BF9034
:10046000AF909F908F9008952FB7F89460914B01B3
:1004700070914C0180914D0190914E012FBF0895D4
:10048000CF92DF92EF92FF926A017B01239A9C0147
:1004900050E040E060E472E48FE090E00E949E1241
:1004A00082E091E1332361F036952795492F417021
:1004B00002C0369527954A95E2F796958F5FF2CF61
:1004C0001092700092E49093B0008093B10021509C
:1004D0002093B300C114D104E104F10489F00E9417
:1004E0003402C60ED71EE81EF91EC0929901D092A2
:1004F0009A01E0929B01F0929C0182E0809370004F
:10050000FF90EF90DF90CF9008950F931F930E947C
:1005100034026093A5017093A6018093A701909384
:10052000A8018DE991E00E94EB0097FF1DC00E9499
:1005300034020091A5011091A6012091A7013091EC
:10054000A801601B710B820B930B0091A10110910C
:10055000A2012091A3013091A401601771078207C5
:100560009307F8F28FEF9FEF1F910F9108950F936C
:100570001F93CF93DF93EC0145BD8A819B81AC81B2
:10058000BD818A179B0711F13981432F50E0440F39
:10059000551F4D575F4FFA0105911491FA01A817A5
:1005A000B90708F03DC0329645915491801B910BDC
:1005B000012B09F4CA01A817B90708F4DC014A178E
:1005C0005B0708F03E5F3983BB83AA83B7FF07C090
:1005D00080E88B0FB9F18D8369B9A0E0B3E02E817B
:1005E0003F81488589B16823A9F12150310941092A
:1005F0002E833F83488788818A0F9B2F911D282F48
:10060000237028839695879596958795803410F466
:10061000806890689987DF91CF911F910F9108951D
:10062000329745915491800F911F012B09F4CA0113
:100630008A179B0708F4DC01A417B50708F4C3CF99
:100640003250C1CFF89480916E00282320936E0021
:100650007894C5CF2F5F3F4F4F4FCACFE09107012E
:10066000F0910801E80FF11DE49123E0E29FC00141
:1006700011248A599E4F0895CF92DF92EF920F93E3
:100680001F93CF936B01E82EC0E0042F10E040FFD2
:1006900007C08C2F0E942E03FC01C082D182E2820F
:1006A000A80155954795CF5F4111EFCFCF911F918D
:1006B0000F91EF90DF90CF9008954FE760E070E0EA
:1006C00080E00C943C0397B19C6097B998B1937FFC
:1006D000492F486028E034E087FF07C048B936B9A1
:1006E000880F2150C9F798B9089598B9F8CFCF92DB
:1006F000DF92EF92FF92FA01641775075CF501969D
:100700006B01CC0CDD1CCE1ADF0A0D2C000CEE08A0
:10071000FF089C01990F440B550B2C193D094E09FC
:100720005F09A4EBB0E00E94BD129F01FF0F440BD4
:10073000550B2C193D094E095F090E949E12DA01E2
:10074000C9018A559109A109B109FF90EF90DF9085
:10075000CF9008950197D4CF0E94DC01189B05C06B
:100760007093980160939701089510926B00209107
:10077000970130919801621B730BF2CF0E943402F3
:100780002091400130914101AB01421B530B57FDB9
:1007900008C06C597F4F709341016093400181E024
:1007A000089580E00895CF93DF93209109012111EE
:1007B0000EC0EC010E94BE03882349F0CE010E94C6
:1007C0009C018AE090E0DF91CF910C94B701DF911A
:1007D000CF9108958F7390E0C0960C94B701CF939A
:1007E000DF93D0914901DD2379F18CE790E00E94FD
:1007F0009C0180917B01869586950E94EA03C0E06A
:100800008C2F0E942E03FC018081869586950E9484
:10081000EA038C2F0E942E03FC0181818695869528
:100820000E94EA038C2F0E942E03FC018281869590
:1008300086950E94EA03CF5FC73011F78AE090E007
:100840000E94B701109249018D2FDF91CF91089539
:10085000CF93DF9320911601309117012F3F32077C
:1008600069F1AFEFBFE00E94211325E033E440E0DF
:1008700050E00E949E12E9012115304110F0CFEFA7
:10088000DFE087E790E00E949C01CE0126E096958C
:1008900087952A95E1F70E94EA038C2F0E94EA03CC
:1008A0008AE090E00E94B7018FEF9FEF90931701CD
:1008B0008093160181E0DF91CF91089580E0FBCF16
:1008C000FF920F931F93CF93DF93F62EC72F082F1E
:1008D00010E0869586950E94EA03D0E084E0000F40
:1008E000111F8A95E1F7CE0124E0959587952A9509
:1008F000E1F7802B0E94EA03CC0FDD1FCC0FDD1F38
:100900008F2D82958695869583708C2B0E94EA03A5
:100910008F2DDF91CF911F910F91FF900C94EA03DF
:10092000189580917A00806480937A0080917A0093
:1009300086FDFCCF809178009091790008950F9307
:100940001F93CF93DF93CCE7D0E08EE488830E949F
:1009500091040E9491040E9491040E9491040E94BB
:1009600091048C0118828EE088830E9491040E9479
:1009700091040E9491040E9491040E9491041882A3
:100980009C01A4EEBCE00E942113980150E040E0DD
:100990000E94FF12C901DF91CF911F910F9108951D
:1009A000409103015091040125E038E0429FC001CD
:1009B000439F900D529F900D1124875E994C909308
:1009C000040180930301890F08951092020187E0CA
:1009D00080937C0080917A00806480937A0080917B
:1009E0007A0086FDFCCF909178008091790089276C
:1009F000982789279695879596958795982FE8E665
:100A0000F0E080E02491921720F08F5F31968F30D4
:100A1000C9F70895CF92DF92EF92FF921F93CF9381
:100A2000DF9300D000D0CDB7DEB7809109018111EE
:100A3000D4C010911801113409F4CFC00E94BE0334
:100A4000882309F4CAC0612F8DE991E00E944F010B
:100A500080E290E00E94B701F894C0909201D0909B
:100A60009301E0909401F090950178948091630156
:100A7000882341F0F094E094D094C094C11CD11C20
:100A8000E11CF11CCD2CDE2CEF2CFF24E7FCFA94AA
:100A9000F8948091880190918901A0918A01B09188
:100AA0008B01789420916301222339F0B095A095B1
:100AB000909581959F4FAF4FBF4F892F9A2FAB2FA6
:100AC000BB27A7FDBA959F77AA27BB274FE0CC0C81
:100AD000DD1CEE1CFF1C4A95D1F7CC2420E8D22265
:100AE0002FE3F222C82AD92AEA2AFB2A8F2D0E9454
:100AF000EA03C701B6010E94600480E290E00E9410
:100B0000B7010E943402C0907C01D0907D01E0903A
:100B10007E01F0907F019B01AC012C193D094E092B
:100B20005F0969017A018F2D0E94EA03C701B601AE
:100B30000E94600480E290E00E94B701809143012E
:100B40000E94EA03109243010E94E5040E94EA0316
:100B50008AE090E00E94B7018091210190912201EA
:100B6000A0912301B091240189839A83AB83BC8334
:100B70008091420190E00196817099278093420113
:100B8000880F991FE1E0F0E0EC0FFD1FE80FF91F5F
:100B90000190F081E02D099581111FC080914201E3
:100BA00090E001968170992780934201880F991FE8
:100BB00041E050E04C0F5D1F840F951FDC01ED916B
:100BC000FC910F900F900F900F90DF91CF911F919C
:100BD000FF90EF90DF90CF9009940F900F900F90BF
:100BE0000F90DF91CF911F91FF90EF90DF90CF900A
:100BF0000895CF93DF932898209A81E083B9E3E2A8
:100C0000F0E03197F1F783B920982CEA33E0309384
:100C10001A01209319018BBB909168009160909309
:100C2000680080936B000E94DC01EB01C158D64E36
:100C300080916B00882379F00E94DC016C1B7D0B96
:100C400064367105A8F710926B0088EA9EED9093C8
:100C500098018093970180911801813451F080911F
:100C600097019091980190931701809316010E942B
:100C70000A058091970190919801DF91CF91089595
:100C8000AF92BF92DF92EF92FF920F931F93CF9399
:100C9000DF93C0917B010E94DC010091450110911E
:100CA00046012091470130914801601B710B820B76
:100CB000930B6A3F71058105910568F30E94DC0181
:100CC00060934501709346018093470190934801DA
:100CD0000E94DC0120913A0230913B02621B730BAF
:100CE0006A307105A8F3F894E0916401F091650110
:100CF00075B1706265B16F7D65B9259A81E08C0F21
:100D0000118123E030E090E0A7E0AA2EB12CD501BC
:100D1000092FC92FD92FF92E492F592F518111276A
:100D2000889451115C0F08F45FEFC195889480FDA1
:100D3000150F1795889481FD150F1795889482FDDE
:100D4000150F1795889483FD150F1795889484FDCA
:100D5000150F1795889485FD150F1795889486FDB6
:100D6000150F1795889487FD150F17958894052FF3
:100D70008111012FC90F102F002C75B900C017FF6A
:100D800065B950810027889400C000C0002C65B967
:100D900051115D0F00C0002C75B900C016FF65B978
:100DA00008F45FEFD195889400C000C0002C65B9AD
:100DB00080FD050F00C0002C75B900C015FF65B996
:100DC0000795889481FD050F00C000C0002C65B90F
:100DD0000795889400C0002C75B900C014FF65B950
:100DE00082FD050F0795889400C000C0002C65B9EE
:100DF00083FD050F00C0002C75B900C013FF65B955
:100E00000795889484FD050F00C000C0002C65B9CB
:100E10000795889400C0002C75B900C012FF65B911
:100E200085FD050F0795889400C000C0002C65B9AA
:100E300086FD050F00C0002C75B900C011FF65B913
:100E40000795889487FD050F00C000C0002C65B988
:100E50000795889400C0002C75B900C010FF65B9D3
:100E6000152F8111102FD90F00C000C0002C65B9BB
:100E700000C000C0002C75B900C017FF65B95281D1
:100E80000027889400C000C0002C65B951115F0D87
:100E900000C0002C75B900C016FF65B908F45FEFFB
:100EA000E20FF31F00C000C0002C65B980FD050FE4
:100EB00000C0002C75B900C015FF65B9079588946E
:100EC00081FD050F00C000C0002C65B9079588940E
:100ED00000C0002C75B900C014FF65B982FD050F74
:100EE0000795889400C000C0002C65B983FD050FEC
:100EF00000C0002C75B900C013FF65B90795889430
:100F000084FD050F00C000C0002C65B907958894CA
:100F100000C0002C75B900C012FF65B985FD050F32
:100F20000795889400C000C0002C65B986FD050FA8
:100F300000C0002C75B900C011FF65B907958894F1
:100F400087FD050F00C000C0002C65B90795889487
:100F500000C0002C75B900C010FF65B9152F8111B4
:100F6000102FF19400C000C0002C65B9F90E00C02C
:100F700000C075B900C017FF65B95181002788947A
:100F800000C000C0002C65B951115C0F00C0002CDE
:100F900075B900C016FF65B908F45FEFC195889474
:100FA00000C000C0002C65B980FD050F00C0002CFA
:100FB00075B900C015FF65B90795889481FD050FC7
:100FC00000C000C0002C65B90795889400C0002CB3
:100FD00075B900C014FF65B982FD050F07958894A7
:100FE00000C000C0002C65B983FD050F00C0002CB7
:100FF00075B900C013FF65B90795889484FD050F86
:1010000000C000C0002C65B90795889400C0002C72
:1010100075B900C012FF65B985FD050F0795889465
:1010200000C000C0002C65B986FD050F00C0002C73
:1010300075B900C011FF65B90795889487FD050F44
:1010400000C000C0002C65B90795889400C0002C32
:1010500075B900C010FF65B9152F8111102FC90F88
:1010600000C000C0002C65B9119709F086CE30E0B1
:1010700020E0C9016AE9A69E0A0C811DB69E800D7A
:10108000911D11248B0D911DB0E0A0E0AC01BD01BC
:101090004E525F4F6F4F7F4F493E53406105710580
:1010A00008F434C086519340A109B10942E0B695D5
:1010B000A795979587954A95D1F747E0849F080EA5
:1010C000211D949F200D311D1124290F311D4091A8
:1010D000440150E0840F951F280F391F80914B0168
:1010E00090914C01A0914D01B0914E01432F552795
:1010F000840F951FA11DB11D80934B0190934C014E
:10110000A0934D01B0934E012093440178940E9426
:10111000DC0170933B0260933A02809118018134A4
:1011200071F081E080934901DF91CF911F910F9180
:10113000FF90EF90DF90BF90AF900C940A05DF9185
:10114000CF911F910F91FF90EF90DF90BF90AF90E4
:101150000895CF93DF93EC010E9440068AB1806F1F
:101160008AB99E01220F331F220F331F25503109E8
:101170008FEF9FE740E650EF49B959B9C230D1052A
:1011800018F0F9013197F1F78C1B9D0B97FFF4CF05
:10119000DF91CF910895CF93DF93EC010E940A0570
:1011A000209751F061E070E080E090E00E94010241
:1011B0000E940A052197F4CFDF91CF910895CF9334
:1011C000DF93D82FC0E086E990E00E94CB0842E38D
:1011D00050E060E070E080EE96E00E944002CF5F59
:1011E000DC13F1CFDF91CF9108950E949F042091ED
:1011F000810130918201A901481B590BCA011816BF
:10120000190644F495958795281B390B3093820174
:101210002093810190E080E00C94CB08009761F06E
:10122000813629E0920714F080E699E0883522E0C3
:10123000920714F488E592E022EB209380009093CB
:1012400089008093880080E286BBB59903C00E9424
:10125000F508FBCF0895009761F0813629E09207E9
:1012600014F080E699E0883542E0940714F488E5AC
:1012700092E02091860030918700A901481B590B0C
:1012800020EB2093800050938B0040938A0081E0F4
:1012900086BBB09903C00E94F508FBCF089590E08B
:1012A00080E00E942B0990E080E00C940E09FF92F0
:1012B0000F931F93CF93DF93C62FF72E8C01D42F5C
:1012C0000E945D038C2F9F2DD8018D01222733278B
:1012D000892F9A2FAB2FBB274D2F602F782F8C2F64
:1012E0000E943C030E94400684EF91E0DF91CF9181
:1012F0001F910F91FF900C94CB0842E050E06DE3FA
:1013000071E08DE991E00C94AF00FC018081918146
:10131000009711F00C941914089583E591E00C9452
:1013200085090F931F93CF93DF93EC0188819981F7
:10133000009759F02A813B812617370730F081E06A
:10134000DF91CF911F910F9108958B016F5F7F4FB8
:101350000E94A214009759F0998388831B830A8303
:101360002C813D81232B59F7FC011082E8CF80E0CE
:10137000E7CFEF92FF920F931F93CF93DF93EC0190
:101380007B018A01BA010E9491092881398181116A
:1013900014C02115310519F0C9010E9419141982D0
:1013A00018821D821C821B821A82CE01DF91CF918E
:1013B0001F910F91FF90EF9008951D830C83B7014B
:1013C000C9010E946815F1CF1F93CF93DF93EC0101
:1013D0000E949612182FCE0101960E949612912F0C
:1013E000DF91CF911F9108959F92AF92BF92CF92BC
:1013F000DF92EF92FF920F931F93CF93DF935C01E5
:10140000D62E972EC42EC0E0D2E0CE010E94E40971
:10141000A816B90639F06096C11584E0D807A9F777
:1014200080E035C0F12CE12C02EA1EE7CE018E0DE2
:101430009F1D0E949612082788E0902F91701695A4
:101440000795992321F091E0092790EA1927815007
:10145000A1F7EFEFEE1AFE0AFEE0EF16F10431F706
:10146000CE010E960E94E40980179107A1F62296FC
:10147000FD2C0D2D192DCE010E949612F80181939D
:101480008F0121968E2F8F198C15A8F381E0DF91A3
:10149000CF911F910F91FF90EF90DF90CF90BF9071
:1014A000AF909F9008951F920F920FB60F92112444
:1014B0002F933F934F935F936F937F938F939F935C
:1014C000AF93BF93EF93FF938DE991E00E942D01BD
:1014D000FF91EF91BF91AF919F918F917F916F910C
:1014E0005F914F913F912F910F900FBE0F901F90E2
:1014F00018951F920F920FB60F9211242F938F936E
:101500009F93EF93FF93E091AD01F091AE01808145
:10151000E091B301F091B40182FD1BC090818091F4
:10152000B6018F5F8F732091B701821741F0E09170
:10153000B601F0E0E356FE4F958F8093B601FF9120
:10154000EF919F918F912F910F900FBE0F901F9051
:1015500018958081F4CF1F920F920FB60F9211242D
:101560002F933F938F939F93AF93BF9380914B01A2
:1015700090914C01A0914D01B0914E0130914A01E2
:1015800023E0230F2D3758F50196A11DB11D20939F
:101590004A0180934B0190934C01A0934D01B0936D
:1015A0004E0180914F0190915001A0915101B09155
:1015B00052010196A11DB11D80934F0190935001DE
:1015C000A0935101B0935201BF91AF919F918F9120
:1015D0003F912F910F900FBE0F901F90189526E806
:1015E000230F0296A11DB11DD2CF78941F920F92A6
:1015F0000FB60F9211242F933F934F935F936F93E6
:101600007F938F939F93AF93BF93EF93FF9304B414
:1016100005FC0AC02BEF43E460E183E891E00E94FF
:10162000B70298B5890F88BD80918C01982F9F775C
:10163000D1F498B5890F88BD90E1F89484B58F7C7A
:10164000892B84BDFF91EF91BF91AF919F918F91B5
:101650007F916F915F914F913F912F910F900FBEAE
:101660000F901F901895815080938C0190E2E5CFE8
:1016700078941F920F920FB60F9211242F933F93DD
:101680004F935F936F937F938F939F93AF93BF938A
:10169000EF93FF9304B407FC0AC02DEF43E860E822
:1016A0008DE891E00E94B70297B5890F87BD8091C0
:1016B0009601982F9F77D1F497B5890F87BD90E455
:1016C000F89484B58F73892B84BDFF91EF91BF91FE
:1016D000AF919F918F917F916F915F914F913F91CA
:1016E0002F910F900FBE0F901F90189581508093EF
:1016F000960190E8E5CF1F920F920FB60F9211243A
:101700004F935F936F937F938F939F93AF93BF9309
:1017100040914B0150914C0160914D0170914E01EF
:101720008091990190919A01A0919B01B0919C01A7
:10173000481759076A077B0750F010927000109203
:10174000B30081E08093B00084E08093B100BF914A
:10175000AF919F918F917F916F915F914F910F907A
:101760000FBE0F901F901895EF93FF93E09100012B
:10177000F09101010C94CA0BEF93FF93E0910501E6
:10178000F09106010C94CA0BEF93FF93E0911901BD
:10179000F0911A011F920F920FB60F9211242F93FE
:1017A0003F934F935F936F937F938F939F93AF93E9
:1017B000BF930995BF91AF919F918F917F916F9149
:1017C0005F914F913F912F910F900FBE0F901F90FF
:1017D000FF91EF911895EDE9F1E01382128288EE06
:1017E00093E0A0E0B0E084839583A683B7838FE283
:1017F00091E09183808385EC90E09587848784ECE9
:1018000090E09787868780EC90E0918B808B81ECCD
:1018100090E0938B828B82EC90E0958B848B86ECAE
:1018200090E0978B868B118E128E138E148E1092F1
:101830003B0210923A020895CF93DF93CDB7DEB703
:10184000E9970FB6F894DEBF0FBECDBF789484B58C
:10185000826084BD84B5816084BD85B5826085BDAC
:1018600085B5816085BD80916E00816080936E003A
:10187000109281008091810082608093810080912C
:1018800081008160809381008091800081608093DD
:1018900080008091B10084608093B1008091B0009D
:1018A00081608093B00080917A00846080937A0098
:1018B00080917A00826080937A0080917A008160C2
:1018C00080937A0080917A00806880937A001092E9
:1018D000C100E091AD01F091AE0182E08083E09122
:1018E000A901F091AA011082E091AB01F091AC0145
:1018F00080E180831092B501E091B101F091B201D5
:1019000086E08083E091AF01F091B0018081806139
:101910008083E091AF01F091B00180818860808385
:10192000E091AF01F091B001808180688083E09107
:10193000AF01F091B00180818F7D80830E947D098D
:1019400062E370E080E090E00E9401028BEA90E0A8
:101950000E949C010E947D098091590181110FC054
:101960001092540110925301109256011092550199
:10197000109258011092570181E0809359016CE157
:1019800070E083E591E00E9491091A8219821C821D
:101990001B821E821D8250E040E06FE371E09E01D9
:1019A0002F5F3F4F7901C9010E94B9090E9485024A
:1019B00097FD1DC08A309105D1F08AA31BA20D812D
:1019C0001E810F5F1F4FB801C7010E949109882334
:1019D00069F329813A818D819E81BE016E5D7F4FC1
:1019E000820F931F0E9468151E830D83DFCF8091A5
:1019F00053019091540169817A81009709F474C16F
:101A00006115710509F46EC140915501509156015F
:101A10002D813E814217530708F464C10E94681566
:101A20008D819E8190935801809357011E821D8263
:101A3000C7010E9485091A8219821C821B821E829C
:101A40001D8260915301709154016115710539F047
:101A50004091570150915801C7010E94B9094D8129
:101A60005E8141155105B9F066E070E046305105E0
:101A700008F4BA0189819A81461B570B5E834D8316
:101A8000680F791F0E946F15E981FA818D819E810F
:101A9000E80FF91F108209811A8148E050E063EBDA
:101AA00070E0C8010E9473127FE3872E72E4972EC4
:101AB0007FE0A72EB12C892B31F4C80108960E9433
:101AC0004C124B015C01C7010E9485098CEB90E030
:101AD0000E949C0119A28E010F5D1F4F6AE0462EE5
:101AE000512C612C712CC501B401A30192010E94FB
:101AF000FF1249015A01605DD8016E938D01811476
:101B00009104A104B10479F7109769F0FD010190E7
:101B10000020E9F73197AF014A1B5B0BBD018DE94E
:101B200091E00E94AF000E947D09EFEBF0E084910C
:101B30000E9463038DE991E00E94BC01F89486B590
:101B400096B58917E9F39CE096B990916E009E7F57
:101B500090936E0092E0980F8E598093620186B543
:101B60009813FDCF87B1837F87B98CE086B920EACF
:101B700030E0309306012093050182E08BBB809119
:101B8000680082608093680084E080936C007894A1
:101B900086B5891B8036E0F310926C00F894809132
:101BA0006E00816080936E007894809162018091D4
:101BB00061018FEC0E9463038CE086B90E94E5040A
:101BC0006AE070E080E090E00E94010286E0E5E2D9
:101BD000F1E0D70101900D928A95E1F746E0B70157
:101BE00084EE9BEF0E94F409811195C08CEC90E08B
:101BF000909308018093070188E0F70111928A957C
:101C0000E9F748E0B70186E291E30E94F4096AEF40
:101C100070E080E090E00E94010287E69BE29093F2
:101C200087008093860082EB8093800082E180931E
:101C3000810084B1866084B980910E0190910F017A
:101C400090930B0180930A010E942B0968EC70E0CD
:101C500080E090E00E9401028091120190911301B6
:101C600090930D0180930C010E940E0968EC70E0C6
:101C700080E090E00E9401020E944F0986E691E018
:101C8000909365018093640180E380937B010E94BF
:101C90005D030E94400608EE13E041E250E060E080
:101CA00070E08CEB92E00E944002C8010E94A908FB
:101CB0000E945D03C8010E94A9084FE76FEF7FEF04
:101CC0008FEF0E943C030E949F048C339F4008F0DA
:101CD00095C0C80144E0969587954A95E1F7081BA1
:101CE000190BDBCF0E94191489819A8190935401BA
:101CF000809353018B819C81909356018093550171
:101D00008D819E8190935801809357011A82198288
:101D10001C821B828BCE0C81002E000C110B065AEC
:101D20001F4F7B80CA800C2C000CDD08BAE5CB0E5F
:101D3000D11C2981022E000C330BA8E1BCEF0E94BC
:101D400068135AE5852E912CA12CB12CA501940184
:101D50000E949E122053384F4F4F5F4F30930F0118
:101D600020930E019601A8E1BCEF0E946813A50123
:101D700094010E949E122053384F4F4F5F4F309373
:101D8000110120931001A72D770CBB0B28EE33E037
:101D90000E947013A50194010E949E1228513C4F8D
:101DA0004F4F5F4F309313012093120128EE33E021
:101DB000D8010E947013A50194010E949E1228511F
:101DC0003C4F4F4F5F4F30931501209314018D818D
:101DD000813051F0823079F081E09E81973709F0AF
:101DE00080E08093630108CF8CEC90E09093080131
:101DF00080930701F1CF85EC90E0F8CF0E945D035E
:101E000020E030E8309392012093910180916E00A0
:101E1000826080936E0078943093880120938701CC
:101E200080916E00846080936E00789481E480934A
:101E3000180181E08093090182E00E94DF0826E614
:101E4000D22E33E3C32E109180011F5F10938001C7
:101E50000E945D03E12FE695E695E370F0E0E45221
:101E6000FF4F84910E942E03FC01D082C182D28256
:101E70000E9440066DE770E080E090E00E94010261
:101E800080910901811110C00E94BE03882361F076
:101E900080EE90E00E949C0183EE90E00E949C0105
:101EA0008AE090E00E94B7010E94E5048C3009F4BA
:101EB00044C08DE991E00E940D01892B21F21A8224
:101EC00019821C821B821E821D8250E040E06FE35B
:101ED00071E0C7010E94B9090E9485020D811E812F
:101EE00097FD1BC08A309105C1F08AA31BA20F5F2A
:101EF0001F4FB801C7010E949109882369F3298106
:101F00003A818D819E81BE016E5D7F4F820F931F4E
:101F10000E9468151E830D83DFCF012B39F0E98104
:101F2000FA81309719F08081813421F0C7010E9435
:101F3000850989CFC7010E9485096DE770E080E0BF
:101F400090E00E9401020E9434028B0183E480939E
:101F5000180189ED90E00E94D30381E00E94DF0820
:101F60000E945D0343E166E673E386E60E943C035C
:101F70000E9440060E943402601B710B683E734051
:101F8000CCF386ED90E00E94D30381E00E94DF084D
:101F900081E00E942E03FC011082118212820E94B5
:101FA00040060E943402601B710B603D7740CCF309
:101FB00083ED90E00E94D30381E00E94DF0880E07F
:101FC0000E942E03FC011082118212820E944006A0
:101FD0000E943402601B710B683B7B40CCF30E9473
:101FE000340260937C0170937D0180937E01909315
:101FF0007F0182E48093180181E090E00E94CB0889
:1020000042E350E060E070E08CE298E00E94400221
:1020100084E00E942E03FC011082118212820E9431
:1020200040064FE765E575E585E590E00E945709B4
:1020300043E060E070E08FEF90E00E94570943E4D6
:1020400060E07FEF8FEF90E00E94570943E660E089
:102050007FEF80E090E00E94570942E76FEF7FEF4B
:1020600080E090E00E9457094AE76FEF70E080E05F
:1020700090E00E9457094EE76FEF70E0CB010E949D
:10208000570904E010E00E94D004F82E0E94D0040A
:10209000E82E0E94D004D82E80E00E942E03FC017E
:1020A000D082E182F2820E94D004F82E0E94D004F5
:1020B000E82E0E94D004D82E81E00E942E03FC015D
:1020C000D082E182F2820E94D004F82E0E94D004D5
:1020D000E82E0E94D004D82E86E00E942E03FC0138
:1020E000D082E182F2820E94D004F82E0E94D004B5
:1020F000E82E0E94D004D82E85E00E942E03FC0119
:10210000D082E182F2820E94D004F82E0E94D00494
:10211000E82E0E94D004D82E84E00E942E03FC01F9
:10212000D082E182F2820E94D004F82E0E94D00474
:10213000E82E0E94D004D82E83E00E942E03FC01DA
:10214000D082E182F2820E94D004F82E0E94D00454
:10215000E82E0E94D004D82E82E00E942E03FC01BB
:10216000D082E182F2820E94400684EF91E00E94D8
:10217000CB080150110909F086CF20E030E83093F8
:1021800092012093910180916E00826080936E0095
:102190007894309388012093870180916E00846049
:1021A00080936E00789480919001803809F055C139
:1021B00080918601803809F050C18AE5809318012A
:1021C00083E00E94DF0810E0812F0E942E03FC01B3
:1021D0008081811111C0818181110EC082818111A4
:1021E0000BC01F5F173081F743E166E673E386E6B5
:1021F0000E943C030E944006409110015091110141
:1022000060910E0170910F0180910A0190910B0174
:102210000E9477038C0188279927801B910B17FD5B
:102220008C0140911401509115016091120170913F
:10223000130180910C0190910D010E9477032227D8
:102240003327281B390B97FDC90120918600309157
:102250008700D801081719070CF4DC010E947013DD
:1022600028EE33E040E050E00E94FF1229013DA734
:102270002CA70E94F905C0900C01D0900D0100918F
:102280001201109113014091140150911501B801F0
:10229000C6010E9477035C01E0900A01F0900B01F7
:1022A00020900E0130900F014091100150911101CA
:1022B000B101C7010E9477034C018091090181118E
:1022C00030C080911801813461F184EE90E00E9469
:1022D0009C01852D859585950E94EA0384E055949F
:1022E00047948A95E1F7842D0E94EA0393E0692ED2
:1022F000712CC401B3010E945413862F0E94EA037B
:1023000080E00E94EA03C501B3010E945413862FA6
:102310000E94EA0380E00E94EA038AE090E00E94C3
:10232000B7010E9434026AAB7BAB8CAB9DAB8FE0F4
:1023300097E2909382018093810180918600909131
:10234000870064EF71E00E9440132701FF0C6608CC
:1023500077088CA59DA5092E000CAA0BBB0B8EA798
:102360009FA7A8ABB9ABC101032C000CAA0BBB0BF8
:102370009C01AD0124193509460957092EAB3FAB25
:1023800048AF59AF0D2C000CEE08FF08C801012E14
:10239000000CAA0BBB0B9C01AD012C193D094E0989
:1023A0005F0928A739A74AA75BA74CA55DA56417B5
:1023B00075070CF05EC04B01770FAA08BB082EA969
:1023C0003FA948AD59ADC501B4010E9430132EA5F7
:1023D0003FA548A959A90E949E12DA01C901840D9E
:1023E000951DA61DB71D8CA39DA3AEA3BFA328A5B5
:1023F00039A54AA55BA5C501B4010E9430132EA5DD
:102400003FA548A959A90E949E1249015A018C0C66
:102410009D1CAE1CBF1CACA1BDA1B0930B01A09331
:102420000A0190920D0180920C01CD010E942B09AE
:10243000C4010E940E0980918101909182018C3C1F
:10244000904184F40E944F0960E177E280E090E0DF
:102450000E9401020E940A05F7CF81E090E00E94ED
:10246000CB08A1CE0E943402EAA9FBA96E1B7F0B08
:102470009CCF30920B0120920A0110930D01009322
:102480000C01C1010E942B09C8010E940E090E9483
:102490004F090E94F905D8CF1F93FC01992788277F
:1024A000BC01E89411911032E9F3193010F01E309C
:1024B000C8F31B3251F01D3249F4689406C00E94E3
:1024C0008112610F711D811D911D119110531A30E0
:1024D000B0F33EF490958095709561957F4F8F4F46
:1024E0009F4F1F910895FB01DC014150504030F097
:1024F0008D910590801919F40020B9F7881B990B6C
:102500000895592F482F372F262F660F771F881FC2
:10251000991F660F771F881F991F620F731F841FF3
:10252000951F660F771F881F991F0895F999FECF91
:1025300092BD81BDF89A992780B50895052E97FB25
:102540001EF400940E94B51257FD07D00E94FF129E
:1025500007FC03D04EF40C94B5125095409530957D
:1025600021953F4F4F4F5F4F0895909580957095FF
:1025700061957F4F8F4F9F4F08950E942113A59F14
:10258000900DB49F900DA49F800D911D112408956E
:102590002F923F924F925F926F927F928F929F9273
:1025A000AF92BF92CF92DF92EF92FF920F931F9361
:1025B000CF93DF93CDB7DEB7CA1BDB0B0FB6F89412
:1025C000DEBF0FBECDBF09942A88398848885F8452
:1025D0006E847D848C849B84AA84B984C884DF80C3
:1025E000EE80FD800C811B81AA81B981CE0FD11DA7
:1025F0000FB6F894DEBF0FBECDBFED010895A1E286
:102600001A2EAA1BBB1BFD010DC0AA1FBB1FEE1F6C
:10261000FF1FA217B307E407F50720F0A21BB30BB7
:10262000E40BF50B661F771F881F991F1A9469F733
:1026300060957095809590959B01AC01BD01CF018F
:102640000895A29FB001B39FC001A39F700D811D8B
:102650001124911DB29F700D811D1124911D0895AB
:10266000DB018F939F930E94BD12BF91AF91A29FF8
:10267000800D911DA39F900DB29F900D1124089580
:10268000AA1BBB1B51E107C0AA1FBB1FA617B70798
:1026900010F0A61BB70B881F991F5A95A9F78095B4
:1026A0009095BC01CD01089597FB072E16F4009478
:1026B00007D077FD09D00E94401307FC05D03EF4F7
:1026C000909581959F4F0895709561957F4F0895DE
:1026D0000E942113332312F48A1B9B0B0C94721358
:1026E0000E942113B7FF0895821B930B0895EE0FEC
:1026F000FF1F0590F491E02D09940F931F93CF9342
:10270000DF938230910510F482E090E0E0913E0288
:10271000F0913F0230E020E0B0E0A0E0309799F483
:102720002115310509F44AC0281B390B2430310525
:10273000D8F58A819B816115710589F1FB0193832D
:102740008283FE0111C040815181028113814817AB
:102750005907E0F04817590799F4109761F012965D
:102760000C93129713961C933296CF01DF91CF9161
:102770001F910F91089500933E0210933F02F4CFF2
:102780002115310551F04217530738F0A901DB013B
:102790009A01BD01DF01F801C1CFEF01F9CF90939C
:1027A0003F0280933E02CDCFFE01E20FF31F8193E3
:1027B00091932250310939832883D7CF20913C024D
:1027C00030913D02232B41F420911D0130911E01D7
:1027D00030933D0220933C0220911B0130911C015B
:1027E0002115310541F42DB73EB740911F0150919D
:1027F0002001241B350BE0913C02F0913D02E217D1
:10280000F307A0F42E1B3F0B2817390778F0AC0113
:102810004E5F5F4F2417350748F04E0F5F1F5093F0
:102820003D0240933C02819391939FCFF0E0E0E022
:102830009CCFCF93DF930097E9F0FC01329713828E
:102840001282A0913E02B0913F02ED0130E020E003
:102850001097A1F420813181820F931F20913C02B7
:1028600030913D022817390709F061C0F0933D020D
:10287000E0933C02DF91CF910895EA01CE17DF0784
:10288000E8F54A815B819E0141155105B1F7E901E7
:10289000FB83EA8349915991C40FD51FEC17FD07BB
:1028A00061F4808191810296840F951FE9019983DB
:1028B0008883828193819B838A83F0E0E0E0129693
:1028C0008D919C9113970097B9F52D913C9111979B
:1028D000CD010296820F931F20913C0230913D0260
:1028E0002817390739F6309751F510923F021092A8
:1028F0003E02B0933D02A0933C02BCCFD383C2837F
:1029000040815181840F951FC817D90761F44E5F2C
:102910005F4F88819981480F591F518340838A8175
:102920009B81938382832115310509F0B0CFF09309
:102930003F02E0933E029ECFFD01DC01C0CF138237
:102940001282D7CFB0E0A0E0E8EAF4E10C94CA121A
:102950008C01009751F4CB010E947D138C01C801BA
:10296000CDB7DEB7E0E10C94E612FC01E60FF71FED
:102970009C0122503109E217F30708F49DC0D901E8
:10298000CD91DC911197C617D70798F0C530D105C6
:1029900030F3CE0104978617970708F3C61BD70BB1
:1029A0002297C193D1936D937C93CF010E94191408
:1029B000D6CF5B01AC1ABD0A4C018C0E9D1EA091B6
:1029C0003E02B0913F02512C412CF12CE12C10978A
:1029D00031F580913C0290913D028815990509F0EE
:1029E0005CC04616570608F058C080911B019091B4
:1029F0001C01009741F48DB79EB740911F01509183
:102A00002001841B950BE817F90708F055C0F093D7
:102A10003D02E0933C02F90171836083A0CF8D9168
:102A20009C91119712966C90129713967C90139725
:102A3000A815B90559F56C0142E0C40ED11CCA14A1
:102A4000DB0420F1AC014A195B09DA0112961597F3
:102A500080F06282738251834083D9016D937C93AD
:102A6000E114F10471F0D7011396FC93EE931297E1
:102A700076CF22968C0F9D1FF90191838083F301FD
:102A8000EFCFF0933F02E0933E0269CF481659061C
:102A900008F42C017D01D3019ACFCB010E947D1354
:102AA0007C01009749F0AE01B8010E945F15C80192
:102AB0000E941914870153CF10E000E050CFFB01B2
:102AC000DC0102C001900D9241505040D8F70895AA
:102AD000FB01DC0101900D920020E1F70895FB015C
:102AE000DC014150504048F001900D920020C9F7A0
:102AF00001C01D9241505040E0F70895F894FFCF77
:102B000090040139059004C5000100000000D007C1
:102B1000E803E803D007FFFF419004000040028073
:102B200000EF0328040000000001FF000000004F38
:102B300001AF00DC00BC010D01EB00FF000D0A003D
:102B4000DC0102C001900D9241505040D8F7089529
:102B5000FB01DC0101900D920020E1F70895FB01DB
:102B6000DC014150504048F001900D920020C9F71F
:102B700001C01D9241505040E0F70895F894FFCFF6
:00000001FF
