:100000000C9476000C949E000C949E000C94110DA0
:100010000C94090D0C94010D0C949E000C94C80CCA
:100020000C949E000C949E000C949E000C949E00D8
:100030000C949E000C949E000C94850C0C94420C25
:100040000C94F80B0C949E000C94C60B0C94A00B13
:100050000C949E000C949E000C949E000C949E00A8
:100060000C949E000C949E00071626374858677F14
:1000700097A6B5C7D8E7F6422050200042204C2072
:1000800000FFFF0000204E00005C20BE023018C3BD
:1000900000F60F3B00A10A1500600708005C05048C
:1000A000001104020035030100000041542B4E41B1
:1000B0004D45004C65616E626F7420004C4200FE3D
:1000C000FDF77FBFFB0600010203040500040302E5
:1000D00001060543310043320043330000040001B0
:1000E00041200000422047200000380D11241FBE8F
:1000F000CFEFD8E0DEBFCDBF11E0A0E0B1E0E0E699
:10010000FCE202C005900D92AE33B107D9F722E0B0
:10011000AEE3B1E001C01D92AE33B207E1F710E0EB
:10012000C6E7D0E004C02197FE010E942714C5371E
:10013000D107C9F70E94690D0C942E160C9400008B
:1001400096B588E026B5291304C081500000000050
:10015000F9CF80935F019093600108950895AF9265
:10016000BF92CF92DF92EF92FF920F931F93CF93A4
:10017000DF936C017B018B01040F151FEB015E0106
:10018000AE18BF08C017D10759F06991D601ED919B
:10019000FC910190F081E02DC6010995892B79F73A
:1001A000C501DF91CF911F910F91FF90EF90DF90EC
:1001B000CF90BF90AF900895FC01538D448D252FB3
:1001C00030E0842F90E0821B930B541710F0CF96F1
:1001D000089501970895FC01918D828D981761F023
:1001E000A28DAE0FBF2FB11D5D968C91928D9F5F3A
:1001F0009F73928F90E008958FEF9FEF0895FC0119
:10020000918D828D981731F0828DE80FF11D858DCB
:1002100090E008958FEF9FEF0895FC01918D228D5E
:10022000892F90E0805C9F4F821B91098F739927E3
:1002300008958BE991E00E940D0121E0892B09F4DA
:1002400020E0822F089580E090E0892B29F00E9421
:10025000190181110C9400000895FC01A48DA80FD0
:10026000B92FB11DA35ABF4F2C91848D90E00196F8
:100270008F739927848FA689B7892C93A089B18918
:100280008C91837080648C93938D848D981306C0B9
:100290000288F389E02D80818F7D80830895EF921D
:1002A000FF920F931F93CF93DF93EC0181E0888F30
:1002B0009B8D8C8D98131AC0E889F989808185FF00
:1002C00015C09FB7F894EE89FF896083E889F989A2
:1002D00080818370806480839FBF81E090E0DF91A4
:1002E000CF911F910F91FF90EF900895F62E0B8DF7
:1002F00010E00F5F1F4F0F731127E02E8C8D8E11B2
:100300000CC00FB607FCFACFE889F989808185FF18
:10031000F5CFCE010E942D01F1CFEB8DEC0FFD2F1B
:10032000F11DE35AFF4FF0829FB7F8940B8FEA89D3
:10033000FB8980818062CFCF682F8BE991E00C949C
:100340004F010F931F93CF93DF938C01D0E0C0E058
:10035000F801EC0FFD1F6491662341F08BE991E0F9
:100360000E944F01892B11F02196F2CFCE01DF912F
:10037000CF911F910F910895CF93DF93EC01888D5A
:100380008823B9F0AA89BB89E889F9898C9185FD10
:1003900003C0808186FD0DC00FB607FCF7CF8C919E
:1003A00085FFF2CF808185FFEDCFCE010E942D0128
:1003B000E9CFDF91CF9108953FB7F89480914D0137
:1003C00090914E01A0914F01B091500126B5A89B8C
:1003D00005C02F3F19F00196A11DB11D3FBFBA2FD7
:1003E000A92F982F8827BC01CD01620F711D811D97
:1003F000911D42E0660F771F881F991F4A95D1F71C
:1004000008958F929F92AF92BF92CF92DF92EF9218
:10041000FF926B017C010E94DC014B015C01C11465
:10042000D104E104F104B9F00E94DC0168197909F2
:100430008A099B09683E73408105910580F321E09C
:10044000C21AD108E108F10888EE880E83E0981EF0
:10045000A11CB11CE4CFFF90EF90DF90CF90BF9034
:10046000AF909F908F9008952FB7F89460914901B5
:1004700070914A0180914B0190914C012FBF0895DA
:10048000CF92DF92EF92FF926A017B01239A9C0147
:1004900050E040E060E472E48FE090E00E944E1390
:1004A00082E091E1332361F036952795492F417021
:1004B00002C0369527954A95E2F796958F5FF2CF61
:1004C0001092700092E49093B0008093B10021509C
:1004D0002093B300C114D104E104F10489F00E9417
:1004E0003402C60ED71EE81EF91EC0929701D092A4
:1004F0009801E0929901F0929A0182E08093700055
:10050000FF90EF90DF90CF9008950F931F930E947C
:1005100034026093A3017093A4018093A50190938A
:10052000A6018BE991E00E94EB0097FF1DC00E949D
:1005300034020091A3011091A4012091A5013091F2
:10054000A601601B710B820B930B00919F01109110
:10055000A0012091A1013091A201601771078207CB
:100560009307F8F28FEF9FEF1F910F910895CF93AC
:10057000DF93D62F24B5237039F020EA24BD23E081
:1005800025BD2AB1206F2AB9F8949C01C9B197FF03
:1005900004C0319521953109C095211588E03807AF
:1005A00010F02FEF37E02F31310510F42FE130E05C
:1005B000C90196958795A0E0805C9D4BA04FBC013A
:1005C0008A2F90E050E040E00E94AF13C901609193
:1005D00061016111C095CD2311F0C9019058DF91DF
:1005E000CF9108950F931F93CF93DF93EC0145BDF7
:1005F0008A819B81AC81BD818A179B0711F139816A
:10060000432F50E0440F551F4D575F4FFA0105919E
:100610001491FA01A817B90708F03DC03296459128
:100620005491801B910B012B09F4CA01A817B9073B
:1006300008F4DC014A175B0708F03E5F3983BB838F
:10064000AA83B7FF07C080E88B0FB9F18D8369B922
:10065000A0E0B3E02E813F81488589B16823A9F1EC
:100660002150310941092E833F83488788818A0FB1
:100670009B2F911D282F23702883969587959695FB
:100680008795803410F4806890689987DF91CF91C6
:100690001F910F910895329745915491800F911FAA
:1006A000012B09F4CA018A179B0708F4DC01A4177F
:1006B000B50708F4C3CF3250C1CFF89480916E00D3
:1006C000282320936E007894C5CF2F5F3F4F4F4F64
:1006D000CACFE0910501F0910601E80FF11DE49108
:1006E00023E0E29FC00111248C599E4F0895CF92C0
:1006F000DF92EF920F931F93CF936B01E82EC0E030
:10070000042F10E040FF07C08C2F0E946903FC01FA
:10071000C082D182E282A80155954795CF5F4111F1
:10072000EFCFCF911F910F91EF90DF90CF90089571
:100730004FE760E070E080E00C947703F8948091DC
:100740007F0190918001A0918101B0918201789404
:1007500020916101222339F0B095A0959095819563
:100760009F4FAF4FBF4F692F7A2F8B2F992787FD50
:100770009A950895F8948091890190918A01A091A9
:100780008B01B0918C01789420916101222339F082
:10079000B095A095909581959F4FAF4FBF4F692F12
:1007A0007A2F8B2F992787FD9A950895CF92DF9204
:1007B000EF92FF920E94BA036B017C010E949E039C
:1007C000A7019601261B370B480B590BCA01B9012B
:1007D000FF90EF90DF90CF900895CF92DF92EF924D
:1007E000FF920E94BA036B017C010E949E036C0D74
:1007F0007D1D8E1D9F1DFF90EF90DF90CF9008957F
:1008000097B19C6097B998B1937F492F486028E0D1
:1008100034E087FF07C048B936B9880F2150C9F7BF
:1008200098B9089598B9F8CFCF92DF92EF92FF92DE
:10083000FA01641775075CF501966B01CC0CDD1CA1
:10084000CE1ADF0A0D2C000CEE08FF089C01990F50
:10085000440B550B2C193D094E095F09A4EBB0E080
:100860000E946D139F01FF0F440B550B2C193D097E
:100870004E095F090E944E13DA01C9018A55910998
:10088000A109B109FF90EF90DF90CF9008950197F3
:10089000D4CF0E94DC01189B05C070939601609331
:1008A0009501089510926B00209195013091960169
:1008B000621B730BF2CF0E94340220913E013091F3
:1008C0003F01AB01421B530B57FD08C06C597F4FD2
:1008D00070933F0160933E0181E0089580E00895A8
:1008E000CF93DF932091070121110EC0EC010E94EC
:1008F0005B04882349F0CE010E94A1018AE090E0C8
:10090000DF91CF910C949C01DF91CF9108958F736B
:1009100090E0C0960C949C01CF93DF93D091470157
:10092000DD2379F18CE790E00E94A10180917901AB
:10093000869586950E948704C0E08C2F0E946903EB
:10094000FC018081869586950E9487048C2F0E94E9
:100950006903FC018181869586950E9487048C2F0E
:100960000E946903FC018281869586950E94870416
:10097000CF5FC73011F78AE090E00E949C0110928F
:1009800047018D2FDF91CF910895CF93DF93209171
:100990001401309115012F3F320769F1AFEFBFE02D
:1009A0000E94D11325E033E440E050E00E944E1352
:1009B000E9012115304110F0CFEFDFE087E790E04B
:1009C0000E94A101CE0126E0969587952A95E1F730
:1009D0000E9487048C2F0E9487048AE090E00E9486
:1009E0009C018FEF9FEF909315018093140181E09C
:1009F000DF91CF91089580E0FBCFFF920F931F937B
:100A0000CF93DF93F62EC72F082F10E0869586959B
:100A10000E948704D0E084E0000F111F8A95E1F75F
:100A2000CE0124E0959587952A95E1F7802B0E94C9
:100A30008704CC0FDD1FCC0FDD1F8F2D829586958F
:100A4000869583708C2B0E9487048F2DDF91CF9128
:100A50001F910F91FF900C948704189580917A0054
:100A6000806480937A0080917A0086FDFCCF80912B
:100A700078009091790008950F931F93CF93DF939F
:100A8000CCE7D0E08EE488830E942E050E942E05DC
:100A90000E942E050E942E050E942E058C011882B0
:100AA0008EE088830E942E050E942E050E942E054E
:100AB0000E942E050E942E0518829C01A4EEBCE027
:100AC0000E94D113980150E040E00E94AF13C90189
:100AD000DF91CF911F910F9108958F929F92AF92C6
:100AE000BF92CF92DF92EF92FF920F931F93CF931B
:100AF000DF938C0126EF37E0DB010E9420142CE30A
:100B0000822E912CA12CB12CA50194010E944E1390
:100B10006901E90126EF37E0D8010E942014A50100
:100B200094010E944E1380E090E82115310521F0D8
:100B300060E8C9010E94B7029093890180938801FF
:100B400080916E00826080936E00789480E090E8DF
:100B5000CD2B21F060E1C6010E94B70290937F0186
:100B600080937E0180916E00846080936E00789403
:100B7000DF91CF911F910F91FF90EF90DF90CF9079
:100B8000BF90AF909F908F9008951092020187E0E0
:100B900080937C0080917A00806480937A008091B9
:100BA0007A0086FDFCCF90917800809179008927AA
:100BB000982789279695879596958795982FE8E6A3
:100BC000F0E080E02491921720F08F5F31968F3013
:100BD000C9F70895CF92DF92EF92FF921F93CF93C0
:100BE000DF9300D000D0CDB7DEB78091070181112F
:100BF000A3C010911601113409F49EC00E945B0439
:100C0000882309F499C0612F8BE991E00E944F017C
:100C100080E290E00E949C010E94BA036B017C017B
:100C20000E949E033FE0CC0CDD1CEE1CFF1C3A959D
:100C3000D1F7CC2420E8D2222FE3F2227F77882735
:100C40009927C62AD72AE82AF92A8F2D0E948704D5
:100C5000C701B6010E94FD0480E290E00E949C0161
:100C60000E943402C0908E01D0908F01E0909001DC
:100C7000F09091019B01AC012C193D094E095F09CF
:100C800069017A018F2D0E948704C701B6010E9475
:100C9000FD0480E290E00E949C01809141010E944D
:100CA0008704109241010E94C5050E9487048AE0D2
:100CB00090E00E949C0180911F0190912001A091E1
:100CC0002101B091220189839A83AB83BC838091F7
:100CD000400190E001968170992780934001880F30
:100CE000991FE1E0F0E0EC0FFD1FE80FF91F019004
:100CF000F081E02D099581111FC08091400190E0A5
:100D000001968170992780934001880F991F41E0D7
:100D100050E04C0F5D1F840F951FDC01ED91FC919D
:100D20000F900F900F900F90DF91CF911F91FF9038
:100D3000EF90DF90CF9009940F900F900F900F904D
:100D4000DF91CF911F91FF90EF90DF90CF900895AA
:100D5000CF93DF932898209A81E083B9E3E2F0E013
:100D60003197F1F783B9209829E434E030931801E2
:100D7000209317018BBB909168009160909368005D
:100D800080936B000E94DC01EB01C158D64E80912C
:100D90006B00882379F00E94DC016C1B7D0B6436AC
:100DA0007105A8F710926B0088EA9EED909396016A
:100DB0008093950180911601813451F080919501C5
:100DC0009091960190931501809314010E94EA0579
:100DD0008091950190919601DF91CF910895AF9206
:100DE000BF92DF92EF92FF920F931F93CF93DF9307
:100DF000C09179010E94DC010091430110914401EE
:100E00002091450130914601601B710B820B930BC1
:100E10006A3F71058105910568F30E94DC016093CA
:100E200043017093440180934501909346010E94D1
:100E3000DC012091380230913902621B730B6A3059
:100E40007105A8F3F894E0916201F091630175B126
:100E5000706265B16F7D65B9259A81E08C0F118153
:100E600023E030E090E0A7E0AA2EB12CD501092FB5
:100E7000C92FD92FF92E492F592F51811127889425
:100E800051115C0F08F45FEFC195889480FD150F38
:100E90001795889481FD150F1795889482FD150F7D
:100EA0001795889483FD150F1795889484FD150F69
:100EB0001795889485FD150F1795889486FD150F55
:100EC0001795889487FD150F17958894052F811124
:100ED000012FC90F102F002C75B900C017FF65B97D
:100EE00050810027889400C000C0002C65B95111C2
:100EF0005D0F00C0002C75B900C016FF65B908F47D
:100F00005FEFD195889400C000C0002C65B980FDCA
:100F1000050F00C0002C75B900C015FF65B9079515
:100F2000889481FD050F00C000C0002C65B90795AD
:100F3000889400C0002C75B900C014FF65B982FD0B
:100F4000050F0795889400C000C0002C65B983FD8B
:100F5000050F00C0002C75B900C013FF65B90795D7
:100F6000889484FD050F00C000C0002C65B907956A
:100F7000889400C0002C75B900C012FF65B985FDCA
:100F8000050F0795889400C000C0002C65B986FD48
:100F9000050F00C0002C75B900C011FF65B9079599
:100FA000889487FD050F00C000C0002C65B9079527
:100FB000889400C0002C75B900C010FF65B9152FCA
:100FC0008111102FD90F00C000C0002C65B900C0DE
:100FD00000C0002C75B900C017FF65B95281002709
:100FE000889400C000C0002C65B951115F0D00C08D
:100FF000002C75B900C016FF65B908F45FEFE20F69
:10100000F31F00C000C0002C65B980FD050F00C0B3
:10101000002C75B900C015FF65B90795889481FD4E
:10102000050F00C000C0002C65B90795889400C06A
:10103000002C75B900C014FF65B982FD050F079536
:10104000889400C000C0002C65B983FD050F00C066
:10105000002C75B900C013FF65B90795889484FD0D
:10106000050F00C000C0002C65B90795889400C02A
:10107000002C75B900C012FF65B985FD050F0795F5
:10108000889400C000C0002C65B986FD050F00C023
:10109000002C75B900C011FF65B90795889487FDCC
:1010A000050F00C000C0002C65B90795889400C0EA
:1010B000002C75B900C010FF65B9152F8111102FD4
:1010C000F19400C000C0002C65B9F90E00C000C04A
:1010D00075B900C017FF65B951810027889400C019
:1010E00000C0002C65B951115C0F00C0002C75B90F
:1010F00000C016FF65B908F45FEFC195889400C081
:1011000000C0002C65B980FD050F00C0002C75B92A
:1011100000C015FF65B90795889481FD050F00C0D3
:1011200000C0002C65B90795889400C0002C75B9E3
:1011300000C014FF65B982FD050F0795889400C0B3
:1011400000C0002C65B983FD050F00C0002C75B9E7
:1011500000C013FF65B90795889484FD050F00C092
:1011600000C0002C65B90795889400C0002C75B9A3
:1011700000C012FF65B985FD050F0795889400C072
:1011800000C0002C65B986FD050F00C0002C75B9A4
:1011900000C011FF65B90795889487FD050F00C051
:1011A00000C0002C65B90795889400C0002C75B963
:1011B00000C010FF65B9152F8111102FC90F00C095
:1011C00000C0002C65B9119709F086CE30E020E010
:1011D000C9016AE9A69E0A0C811DB69E800D911D6B
:1011E00011248B0D911DB0E0A0E0AC01BD014E5269
:1011F0005F4F6F4F7F4F493E53406105710508F4C3
:1012000034C086519340A109B10942E0B695A79533
:10121000979587954A95D1F747E0849F080E211D41
:10122000949F200D311D1124290F311D4091420141
:1012300050E0840F951F280F391F8091490190912C
:101240004A01A0914B01B0914C01432F5527840FC7
:10125000951FA11DB11D8093490190934A01A09350
:101260004B01B0934C012093420178940E94DC0121
:10127000709339026093380280911601813471F0C5
:1012800081E080934701DF91CF911F910F91FF90F3
:10129000EF90DF90BF90AF900C94EA05DF91CF9173
:1012A0001F910F91FF90EF90DF90BF90AF90089546
:1012B000CF93DF93EC010E94EF068AB1806F8AB969
:1012C0009E01220F331F220F331F255031098FEF4C
:1012D0009FE740E650EF49B959B9C230D10518F03F
:1012E000F9013197F1F78C1B9D0B97FFF4CFDF913C
:1012F000CF910895CF93DF93EC010E94EA052097E8
:1013000051F061E070E080E090E00E9401020E94F4
:10131000EA052197F4CFDF91CF9108958F929F92A4
:10132000AF92BF92CF92DF92EF92FF926B017C015E
:101330000E94D6034B015C01C601D701B7FF07C06D
:10134000B095A095909581959F4FAF4FBF4F6C0181
:101350007D01CC0CDD1CEE1CFF1C0E94D60368191D
:1013600079098A099B09161617061806190694F4B6
:101370000E94D603DC01CB0188199909AA09BB098F
:101380008C159D05AE05BF0584F481E090E00E94B8
:101390007A09E3CF0E94D603A5019401261B370BDF
:1013A000480B590BDA01C901EBCFFF90EF90DF90AA
:1013B000CF90BF90AF909F908F9008958F929F9203
:1013C000AF92BF92CF92DF92EF92FF926B017C01BE
:1013D0000E94ED034B015C01C601D701B7FF07C0B6
:1013E000B095A095909581959F4FAF4FBF4F6C01E1
:1013F0007D01CC0CDD1CEE1CFF1C0E94ED03681966
:1014000079098A099B09161617061806190694F415
:101410000E94ED03DC01CB0188199909AA09BB09D7
:101420008C159D05AE05BF0584F481E090E00E9417
:101430007A09E3CF0E94ED03A5019401261B370B27
:10144000480B590BDA01C901EBCFFF90EF90DF9009
:10145000CF90BF90AF909F908F900895CF93DF93E0
:10146000D82FC0E086E990E00E947A0942E350E07C
:1014700060E070E080EE96E00E944002CF5FDC13F7
:10148000F1CFDF91CF9108950E943C052091930107
:1014900030919401A901481B590BCA01181619066D
:1014A00044F495958795281B390B3093940120932C
:1014B000930190E080E00C947A09009761F0813606
:1014C00029E0920714F080E699E0883522E092073F
:1014D00014F488E592E022EB209380009093890039
:1014E0008093880080E286BBB59903C00E94440ABD
:1014F000FBCF0895009761F0813629E0920714F040
:1015000080E699E0883542E0940714F488E592E09B
:101510002091860030918700A901481B590B20EBD0
:101520002093800050938B0040938A0081E086BB1B
:10153000B09903C00E94440AFBCF089590E080E078
:101540000E947A0A90E080E00C945D0A42E050E04C
:101550006BE371E08BE991E00C94AF0020E030E8A0
:10156000309389012093880180916E00826080937E
:101570006E00789430937F0120937E0180916E00FD
:10158000846080936E00789480918701803821F484
:1015900080917D01803829F081E090E00E947A09F5
:1015A000F3CF0895FC0180819181009711F00C9494
:1015B000C914089581E591E00C94D20A0F931F930A
:1015C000CF93DF93EC0188819981009759F02A81AC
:1015D0003B812617370730F081E0DF91CF911F91D3
:1015E0000F9108958B016F5F7F4F0E9452150097F6
:1015F00059F0998388831B830A832C813D81232B97
:1016000059F7FC011082E8CF80E0E7CFEF92FF921C
:101610000F931F93CF93DF93EC017B018A01BA01F3
:101620000E94DE0A28813981811114C021153105FB
:1016300019F0C9010E94C914198218821D821C82E6
:101640001B821A82CE01DF91CF911F910F91FF90E3
:10165000EF9008951D830C83B701C9010E941816ED
:10166000F1CF1F93CF93DF93EC010E944613182F05
:10167000CE0101960E944613912FDF91CF911F91C9
:1016800008959F92AF92BF92CF92DF92EF92FF9216
:101690000F931F93CF93DF935C01D62E972EC42E0A
:1016A000C0E0D2E0CE010E94310BA816B90639F095
:1016B0006096C11584E0D807A9F780E035C0F12C09
:1016C000E12C02EA1EE7CE018E0D9F1D0E944613FB
:1016D000082788E0902F917016950795992321F09F
:1016E00091E0092790EA19278150A1F7EFEFEE1A50
:1016F000FE0AFEE0EF16F10431F7CE010E960E94CD
:10170000310B80179107A1F62296FD2C0D2D192D76
:10171000CE010E944613F80181938F0121968E2FEE
:101720008F198C15A8F381E0DF91CF911F910F9154
:10173000FF90EF90DF90CF90BF90AF909F90089573
:101740001F920F920FB60F9211242F933F934F9336
:101750005F936F937F938F939F93AF93BF93EF9319
:10176000FF938BE991E00E942D01FF91EF91BF91D2
:10177000AF919F918F917F916F915F914F913F9129
:101780002F910F900FBE0F901F9018951F920F92E0
:101790000FB60F9211242F938F939F93EF93FF9384
:1017A000E091AB01F091AC018081E091B101F09149
:1017B000B20182FD1BC090818091B4018F5F8F7355
:1017C0002091B501821741F0E091B401F0E0E556B7
:1017D000FE4F958F8093B401FF91EF919F918F9170
:1017E0002F910F900FBE0F901F9018958081F4CF0E
:1017F0001F920F920FB60F9211242F933F938F9346
:101800009F93AF93BF938091490190914A01A0911A
:101810004B01B0914C013091480123E0230F2D374B
:1018200058F50196A11DB11D2093480180934901EF
:1018300090934A01A0934B01B0934C0180914D01CC
:1018400090914E01A0914F01B09150010196A11DC0
:10185000B11D80934D0190934E01A0934F01B09321
:101860005001BF91AF919F918F913F912F910F9018
:101870000FBE0F901F90189526E8230F0296A11D0A
:10188000B11DD2CF78941F920F920FB60F921124F0
:101890002F933F934F935F936F937F938F939F9378
:1018A000AF93BF93EF93FF9304B405FC0AC02BEFF3
:1018B00043E460E18AE791E00E94F20298B5890F63
:1018C00088BD80918301982F9F77D1F498B5890FB7
:1018D00088BD90E1F89484B58F7C892B84BDFF91FD
:1018E000EF91BF91AF919F918F917F916F915F9198
:1018F0004F913F912F910F900FBE0F901F90189511
:1019000081508093830190E2E5CF78941F920F92EB
:101910000FB60F9211242F933F934F935F936F93C2
:101920007F938F939F93AF93BF93EF93FF9304B4F1
:1019300007FC0AC02DEF43E860E884E891E00E94CC
:10194000F20297B5890F87BD80918D01982F9F77FF
:10195000D1F497B5890F87BD90E4F89484B58F735F
:10196000892B84BDFF91EF91BF91AF919F918F9192
:101970007F916F915F914F913F912F910F900FBE8B
:101980000F901F901895815080938D0190E8E5CFBE
:101990001F920F920FB60F9211244F935F936F9384
:1019A0007F938F939F93AF93BF9340914901509141
:1019B0004A0160914B0170914C0180919701909187
:1019C0009801A0919901B0919A01481759076A07A7
:1019D0007B0750F0109270001092B30081E080936A
:1019E000B00084E08093B100BF91AF919F918F913F
:1019F0007F916F915F914F910F900FBE0F901F904D
:101A00001895EF93FF93E0910001F09101010C9480
:101A1000170DEF93FF93E0910301F09104010C94F3
:101A2000170DEF93FF93E0911701F09118011F92AA
:101A30000F920FB60F9211242F933F934F935F9302
:101A40006F937F938F939F93AF93BF930995BF91AC
:101A5000AF919F918F917F916F915F914F913F9146
:101A60002F910F900FBE0F901F90FF91EF9118953F
:101A7000EBE9F1E01382128288EE93E0A0E0B0E09F
:101A800084839583A683B7838DE291E091838083DD
:101A900085EC90E09587848784EC90E09787868733
:101AA00080EC90E0918B808B81EC90E0938B828B2B
:101AB00082EC90E0958B848B86EC90E0978B868B04
:101AC000118E128E138E148E1092390210923802DB
:101AD0000895CF93DF93CDB7DEB7E9970FB6F894AB
:101AE000DEBF0FBECDBF789484B5826084BD84B55F
:101AF000816084BD85B5826085BD85B5816085BD09
:101B000080916E00816080936E00109281008091C0
:101B10008100826080938100809181008160809348
:101B20008100809180008160809380008091B1006D
:101B300084608093B1008091B00081608093B00098
:101B400080917A00846080937A0080917A0082602C
:101B500080937A0080917A00816080937A008091EE
:101B60007A00806880937A001092C100E091AB0106
:101B7000F091AC0182E08083E091A701F091A8018F
:101B80001082E091A901F091AA0180E18083109276
:101B9000B301E091AF01F091B00186E08083E09164
:101BA000AD01F091AE01808180618083E091AD0153
:101BB000F091AE01808188608083E091AD01F09169
:101BC000AE01808180688083E091AD01F091AE012B
:101BD00080818F7D80830E94A60A62E370E080E0AE
:101BE00090E00E9401028BEA90E00E94A1010E9415
:101BF000A60A8091570181110FC0109252011092D4
:101C000051011092540110925301109256011092FA
:101C1000550181E0809357016CE170E081E591E02E
:101C20000E94DE0A1A8219821C821B821E821D8279
:101C300050E040E06DE371E09E012F5F3F4F79017E
:101C4000C9010E94060B0E94850297FD1DC08A30C3
:101C50009105D1F08AA31BA20D811E810F5F1F4F3A
:101C6000B801C7010E94DE0A882369F329813A81FD
:101C70008D819E81BE016E5D7F4F820F931F0E94FA
:101C800018161E830D83DFCF809151019091520170
:101C900069817A81009709F474C16115710509F4AD
:101CA0006EC140915301509154012D813E814217E4
:101CB000530708F464C10E9418168D819E81909389
:101CC0005601809355011E821D82C7010E94D20ACF
:101CD0001A8219821C821B821E821D826091510110
:101CE000709152016115710539F040915501509183
:101CF0005601C7010E94060B4D815E8141155105B9
:101D0000B9F066E070E04630510508F4BA01898107
:101D10009A81461B570B5E834D83680F791F0E9483
:101D20001F16E981FA818D819E81E80FF91F1082CB
:101D300009811A8148E050E063EB70E0C8010E941D
:101D400023137FE3872E72E4972E7FE0A72EB12C1A
:101D5000892B31F4C80108960E94FC124B015C01EA
:101D6000C7010E94D20A8CEB90E00E94A10119A247
:101D70008E010F5D1F4F6AE0462E512C612C712C95
:101D8000C501B401A30192010E94AF1349015A0198
:101D9000605DD8016E938D0181149104A104B1049A
:101DA00079F7109769F0FD0101900020E9F731976C
:101DB000AF014A1B5B0BBD018BE991E00E94AF00B4
:101DC0000E94A60AEFEBF0E084910E9400048BE9E8
:101DD00091E00E94BC01F89486B596B58917E9F3A5
:101DE0009CE096B990916E009E7F90936E0092E079
:101DF000980F8E598093600186B59813FDCF87B1F7
:101E0000837F87B98CE086B920EA30E03093040103
:101E10002093030182E08BBB8091680082608093F5
:101E2000680084E080936C00789486B5891B8036C6
:101E3000E0F310926C00F89480916E0081608093C2
:101E40006E0078948091600180915F018FEC0E9418
:101E500000048CE086B90E94C5056AE070E080E06D
:101E600090E00E94010286E0E3E2F1E0D7010190F8
:101E70000D928A95E1F746E0B70184EE9BEF0E9450
:101E8000410B811195C08CEC90E0909306018093FA
:101E9000050188E0F70111928A95E9F748E0B7015A
:101EA00086E291E30E94410B6AEF70E080E090E0EF
:101EB0000E94010287E69BE2909387008093860050
:101EC00082EB8093800082E18093810084B1866000
:101ED00084B980910C0190910D0190930901809338
:101EE00008010E947A0A68EC70E080E090E00E94AD
:101EF0000102809110019091110190930B01809348
:101F00000A010E945D0A68EC70E080E090E00E94A7
:101F100001020E949E0A84E691E0909363018093FF
:101F2000620180E3809379010E9498030E94EF068A
:101F300008EE13E041E250E060E070E08CEB92E0EC
:101F40000E944002C8010E9458090E949803C801DB
:101F50000E9458094FE76FEF7FEF8FEF0E947703E2
:101F60000E943C058C339F4008F095C0C80144E0B6
:101F7000969587954A95E1F7081B190BDBCF0E94D0
:101F8000C91489819A8190935201809351018B8168
:101F90009C8190935401809353018D819E819093F5
:101FA0005601809355011A8219821C821B828BCEA6
:101FB0000C81002E000C110B065A1F4F7B80CA802B
:101FC0000C2C000CDD08BAE5CB0ED11C2981022EA9
:101FD000000C330BA8E1BCEF0E9418145AE5852EC3
:101FE000912CA12CB12CA50194010E944E132053D9
:101FF000384F4F4F5F4F30930D0120930C019601E6
:10200000A8E1BCEF0E941814A50194010E944E1390
:102010002053384F4F4F5F4F30930F0120930E01E5
:10202000A72D770CBB0B28EE33E00E942014A501EE
:1020300094010E944E1328513C4F4F4F5F4F3093F5
:1020400011012093100128EE33E0D8010E942014E2
:10205000A50194010E944E1328513C4F4F4F5F4FF2
:1020600030931301209312018D81813051F0823021
:1020700079F081E09E81973709F080E080936101DB
:1020800008CF8CEC90E09093060180930501F1CF8E
:1020900085EC90E0F8CF0E94980320E030E8309380
:1020A00089012093880180916E00826080936E0088
:1020B000789430937F0120937E0180916E0084603C
:1020C00080936E00789481E48093160181E0809380
:1020D000070182E00E942E0A26E6D22E33E3C32EA9
:1020E000109192011F5F109392010E949803E12FBB
:1020F000E695E695E370F0E0E452FF4F84910E948C
:102100006903FC01D082C182D2820E94EF066DE792
:1021100070E080E090E00E9401028091070181114F
:1021200010C00E945B04882361F080EE90E00E9462
:10213000A10183EE90E00E94A1018AE090E00E945C
:102140009C010E94C5058C3009F444C08BE991E0E4
:102150000E940D01892B21F21A8219821C821B8296
:102160001E821D8250E040E06DE371E0C7010E94D5
:10217000060B0E9485020D811E8197FD1BC08A30CF
:102180009105C1F08AA31BA20F5F1F4FB801C701C1
:102190000E94DE0A882369F329813A818D819E811C
:1021A000BE016E5D7F4F820F931F0E9418161E8323
:1021B0000D83DFCF012B39F0E981FA81309719F0D7
:1021C0008081813421F0C7010E94D20A89CFC701E2
:1021D0000E94D20A6DE770E080E090E00E94010268
:1021E0000E9434028B0183E48093160189ED90E014
:1021F0000E94700481E00E942E0A0E94980343E12D
:1022000066E673E386E60E9477030E94EF060E946B
:102210003402601B710B683E7340CCF386ED90E096
:102220000E94700481E00E942E0A81E00E946903EE
:10223000FC011082118212820E94EF060E94340279
:10224000601B710B603D7740CCF383ED90E00E9402
:10225000700481E00E942E0A80E00E946903FC0164
:102260001082118212820E94EF060E943402601BCB
:10227000710B683B7B40CCF30E94340260938E016B
:1022800070938F01809390019093910182E48093E9
:10229000160181E090E00E947A0942E350E060E09C
:1022A00070E08CE298E00E94400284E00E946903A2
:1022B000FC011082118212820E94EF066EE170E032
:1022C0008EE190E00E946D0562E778E080E090E0AA
:1022D0000E94DE0962EE7FEF82EE9FEF0E946D05A5
:1022E00062E778E080E090E00E94DE0962EE7FEF36
:1022F0008EE190E00E946D056FE976E080E090E06D
:102300000E948E096EE170E082EE9FEF0E946D05E3
:102310006FE976E080E090E00E948E090E94AE0AAC
:102320000E94AE0A8AE58093160183E00E942E0A7D
:1023300010E0812F0E946903FC018081811111C08E
:10234000818181110EC0828181110BC01F5F173006
:1023500081F743E166E673E386E60E9477030E9415
:10236000EF0640910E0150910F0160910C017091A8
:102370000D0180910801909109010E9414048C01C3
:1023800088279927801B910B17FD8C014091120122
:1023900050911301609110017091110180910A0117
:1023A00090910B010E94140422273327281B390B1C
:1023B00097FDC9012091860030918700D801081748
:1023C00019070CF4DC010E94201428EE33E040E0F1
:1023D00050E00E94AF1329013DA72CA70E94A80638
:1023E000C0900A01D0900B010091100110911101D1
:1023F0004091120150911301B801C6010E941404CA
:102400005C01E0900801F090090120900C013090EF
:102410000D0140910E0150910F01B101C7010E94C1
:1024200014044C0180910701811130C08091160184
:10243000813461F184EE90E00E94A101852D8595A3
:1024400085950E94870484E0559447948A95E1F726
:10245000842D0E94870493E0692E712CC401B3017E
:102460000E940414862F0E94870480E00E94870443
:10247000C501B3010E940414862F0E94870480E0E6
:102480000E9487048AE090E00E949C010E9434022E
:102490006AAB7BAB8CAB9DAB8FE097E290939401E2
:1024A00080939301809186009091870064EF71E0A2
:1024B0000E94F0132701FF0C660877088CA59DA5E4
:1024C000092E000CAA0BBB0B8EA79FA7A8ABB9AB1C
:1024D000C101032C000CAA0BBB0B9C01AD012419FC
:1024E0003509460957092EAB3FAB48AF59AF0D2C04
:1024F000000CEE08FF08C801012E000CAA0BBB0B54
:102500009C01AD012C193D094E095F0928A739A787
:102510004AA75BA74CA55DA5641775070CF059C0C9
:102520004B01770FAA08BB082EA93FA948AD59ADAA
:10253000C501B4010E94E0132EA53FA548A959A9E1
:102540000E944E13DA01C901840D951DA61DB71D09
:102550008CA39DA3AEA3BFA328A539A54AA55BA5BF
:10256000C501B4010E94E0132EA53FA548A959A9B1
:102570000E944E1349015A018C0C9D1CAE1CBF1CBD
:10258000ACA1BDA1B0930901A093080190920B01E9
:1025900080920A01CD010E947A0AC4010E945D0A5C
:1025A00080919301909194018C3C90415CF40E9445
:1025B0009E0A60E177E280E090E00E9401020E94C2
:1025C000EA05F7CF0E943402EAA9FBA96E1B7F0B34
:1025D000A1CF309209012092080110930B010093C2
:1025E0000A01C1010E947A0AC8010E945D0A0E9484
:1025F0009E0A0E94A806DDCF1F93FC019927882719
:10260000BC01E89411911032E9F3193010F01E303A
:10261000C8F31B3251F01D3249F4689406C00E9481
:102620003113610F711D811D911D119110531A30CD
:10263000B0F33EF490958095709561957F4F8F4FE4
:102640009F4F1F910895FB01DC014150504030F035
:102650008D910590801919F40020B9F7881B990B0A
:102660000895592F482F372F262F660F771F881F61
:10267000991F660F771F881F991F620F731F841F92
:10268000951F660F771F881F991F0895F999FECF30
:1026900092BD81BDF89A992780B50895052E97FBC4
:1026A0001EF400940E94651357FD07D00E94AF13DB
:1026B00007FC03D04EF40C9465135095409530956B
:1026C00021953F4F4F4F5F4F08959095809570959E
:1026D00061957F4F8F4F9F4F08950E94D113A59F03
:1026E000900DB49F900DA49F800D911D112408950D
:1026F0002F923F924F925F926F927F928F929F9212
:10270000AF92BF92CF92DF92EF92FF920F931F93FF
:10271000CF93DF93CDB7DEB7CA1BDB0B0FB6F894B0
:10272000DEBF0FBECDBF09942A88398848885F84F0
:102730006E847D848C849B84AA84B984C884DF8061
:10274000EE80FD800C811B81AA81B981CE0FD11D45
:102750000FB6F894DEBF0FBECDBFED010895A1E224
:102760001A2EAA1BBB1BFD010DC0AA1FBB1FEE1F0B
:10277000FF1FA217B307E407F50720F0A21BB30B56
:10278000E40BF50B661F771F881F991F1A9469F7D2
:1027900060957095809590959B01AC01BD01CF012E
:1027A0000895A29FB001B39FC001A39F700D811D2A
:1027B0001124911DB29F700D811D1124911D08954A
:1027C000DB018F939F930E946D13BF91AF91A29FE6
:1027D000800D911DA39F900DB29F900D112408951F
:1027E000AA1BBB1B51E107C0AA1FBB1FA617B70737
:1027F00010F0A61BB70B881F991F5A95A9F7809553
:102800009095BC01CD01089597FB072E16F4009416
:1028100007D077FD09D00E94F01307FC05D03EF4E5
:10282000909581959F4F0895709561957F4F08957C
:102830000E94D113332312F48A1B9B0B0C94221495
:102840000E94D113B7FF0895821B930B0895EE0FDA
:10285000FF1F0590F491E02D09940F931F93CF93E0
:10286000DF938230910510F482E090E0E0913C0229
:10287000F0913D0230E020E0B0E0A0E0309799F424
:102880002115310509F44AC0281B390B24303105C4
:10289000D8F58A819B816115710589F1FB019383CC
:1028A0008283FE0111C0408151810281138148174A
:1028B0005907E0F04817590799F4109761F01296FC
:1028C0000C93129713961C933296CF01DF91CF9100
:1028D0001F910F91089500933C0210933D02F4CF95
:1028E0002115310551F04217530738F0A901DB01DA
:1028F0009A01BD01DF01F801C1CFEF01F9CF90933B
:102900003D0280933C02CDCFFE01E20FF31F819385
:1029100091932250310939832883D7CF20913A02ED
:1029200030913B02232B41F420911B0130911C017B
:1029300030933B0220933A022091190130911A0101
:102940002115310541F42DB73EB740911D0150913D
:102950001E01241B350BE0913A02F0913B02E21775
:10296000F307A0F42E1B3F0B2817390778F0AC01B2
:102970004E5F5F4F2417350748F04E0F5F1F50938F
:102980003B0240933A02819391939FCFF0E0E0E0C5
:102990009CCFCF93DF930097E9F0FC01329713822D
:1029A0001282A0913C02B0913D02ED0130E020E0A6
:1029B0001097A1F420813181820F931F20913A0258
:1029C00030913B022817390709F061C0F0933B02B0
:1029D000E0933A02DF91CF910895EA01CE17DF0725
:1029E000E8F54A815B819E0141155105B1F7E90186
:1029F000FB83EA8349915991C40FD51FEC17FD075A
:102A000061F4808191810296840F951FE901998379
:102A10008883828193819B838A83F0E0E0E0129631
:102A20008D919C9113970097B9F52D913C91119739
:102A3000CD010296820F931F20913A0230913B0202
:102A40002817390739F6309751F510923D02109248
:102A50003C02B0933B02A0933A02BCCFD383C28323
:102A600040815181840F951FC817D90761F44E5FCB
:102A70005F4F88819981480F591F518340838A8114
:102A80009B81938382832115310509F0B0CFF093A8
:102A90003D02E0933C029ECFFD01DC01C0CF1382DA
:102AA0001282D7CFB0E0A0E0E8E5F5E10C947A130C
:102AB0008C01009751F4CB010E942D148C01C801A8
:102AC000CDB7DEB7E0E10C949613FC01E60FF71FDB
:102AD0009C0122503109E217F30708F49DC0D90187
:102AE000CD91DC911197C617D70798F0C530D10565
:102AF00030F3CE0104978617970708F3C61BD70B50
:102B00002297C193D1936D937C93CF010E94C914F6
:102B1000D6CF5B01AC1ABD0A4C018C0E9D1EA09154
:102B20003C02B0913D02512C412CF12CE12C10972C
:102B300031F580913A0290913B028815990509F090
:102B40005CC04616570608F058C080911901909154
:102B50001A01009741F48DB79EB740911D01509125
:102B60001E01841B950BE817F90708F055C0F09378
:102B70003B02E0933A02F90171836083A0CF8D910B
:102B80009C91119712966C90129713967C901397C4
:102B9000A815B90559F56C0142E0C40ED11CCA1440
:102BA000DB0420F1AC014A195B09DA011296159792
:102BB00080F06282738251834083D9016D937C934C
:102BC000E114F10471F0D7011396FC93EE93129780
:102BD00076CF22968C0F9D1FF90191838083F3019C
:102BE000EFCFF0933D02E0933C0269CF48165906BF
:102BF00008F42C017D01D3019ACFCB010E942D1442
:102C00007C01009749F0AE01B8010E940F16C8017F
:102C10000E94C914870153CF10E000E050CFFB01A0
:102C2000DC0102C001900D9241505040D8F7089548
:102C3000FB01DC0101900D920020E1F70895FB01FA
:102C4000DC014150504048F001900D920020C9F73E
:102C500001C01D9241505040E0F70895F894FFCF15
:102C60002D05012D05C5000100000000D007E80377
:102C7000E803D007FFFF412D0500003E0280008CD5
:102C800004C5040000000001FF000000004F01AF78
:102C900000DC00BC010D01EB00FF000D0A00FB0190
:102CA000DC0102C001900D9241505040D8F70895C8
:102CB000FB01DC0101900D920020E1F70895FB017A
:102CC000DC014150504048F001900D920020C9F7BE
:102CD00001C01D9241505040E0F70895F894FFCF95
:102CE0002D05012D05C5000100000000D007E803F7
:102CF000E803D007FFFF412D0500003E0280008C55
:00000001FF
