:100000000C9476000C949E000C949E000C94960D1B
:100010000C948E0D0C94860D0C949E000C944D0D3A
:100020000C949E000C949E000C949E000C949E00D8
:100030000C949E000C949E000C940A0D0C94C70C1A
:100040000C947D0C0C949E000C944B0C0C94250C81
:100050000C949E000C949E000C949E000C949E00A8
:100060000C949E000C949E00071626374858677F14
:1000700097A6B5C7D8E7F6422050200042204C2072
:1000800000FFFF0000204E00005C20BE023018C3BD
:1000900000F60F3B00A10A1500600708005C05048C
:1000A000001104020035030100000041542B4E41B1
:1000B0004D45004C65616E626F7420004C4200FE3D
:1000C000FDF77FBFFB0600010203040500040302E5
:1000D00001060543310043320043330000040001B0
:1000E00041200000422047200000BD0D11241FBE0A
:1000F000CFEFD8E0DEBFCDBF11E0A0E0B1E0E4EC8F
:10010000FCE202C005900D92A837B107D9F722E0B2
:10011000A8E7B1E001C01D92A837B207E1F710E0EF
:10012000C6E7D0E004C02197FE010E945914C537EC
:10013000D107C9F70E94EE0D0C9460160C940000D4
:10014000CF92DF92EF92FF92209108013091090146
:10015000E0910E01F0910F01C0900C01D0900D01C3
:10016000CE16DF065CF52F5F3F4FCC0CDD1CCE1AA0
:10017000DF0A0D2C000CEE08FF08032E000C440BC8
:10018000550B2C193D094E095F09A4EBB0E00E9404
:100190009F139F01FF0F440B550B2C193D094E096E
:1001A0005F090E948013DA01C9018A559109A109EA
:1001B000B109FF90EF90DF90CF9008952150310961
:1001C000D4CFCF92DF92EF92FF9220910A0130912B
:1001D0000B01E0911201F0911301C0901001D09039
:1001E0001101CE16DF065CF52F5F3F4FCC0CDD1CF6
:1001F000CE1ADF0A0D2C000CEE08FF08032E000CAF
:10020000440B550B2C193D094E095F09A4EBB0E0D6
:100210000E949F139F01FF0F440B550B2C193D09A2
:100220004E095F090E948013DA01C9018A559109BC
:10023000A109B109FF90EF90DF90CF900895215070
:100240003109D4CF96B588E026B5291304C0815072
:1002500000000000F9CF8093990190939A010895CE
:100260000895AF92BF92CF92DF92EF92FF920F93D9
:100270001F93CF93DF936C017B018B01040F151F3C
:10028000EB015E01AE18BF08C017D10759F06991A4
:10029000D601ED91FC910190F081E02DC601099508
:1002A000892B79F7C501DF91CF911F910F91FF90B5
:1002B000EF90DF90CF90BF90AF900895FC01538DE9
:1002C000448D252F30E0842F90E0821B930B541730
:1002D00010F0CF96089501970895FC01918D828DBD
:1002E000981761F0A28DAE0FBF2FB11D5D968C9156
:1002F000928D9F5F9F73928F90E008958FEF9FEF95
:100300000895FC01918D828D981731F0828DE80F50
:10031000F11D858D90E008958FEF9FEF0895FC010A
:10032000918D228D892F90E0805C9F4F821B9109D7
:100330008F739927089585ED91E00E948F0121E048
:10034000892B09F420E0822F089580E090E0892B2A
:1003500029F00E949B0181110C9400000895FC017A
:10036000A48DA80FB92FB11DA35ABF4F2C91848D16
:1003700090E001968F739927848FA689B7892C9373
:10038000A089B1898C91837080648C93938D848DC6
:10039000981306C00288F389E02D80818F7D8083C9
:1003A0000895EF92FF920F931F93CF93DF93EC0189
:1003B00081E0888F9B8D8C8D98131AC0E889F9890C
:1003C000808185FF15C09FB7F894EE89FF8960830F
:1003D000E889F98980818370806480839FBF81E090
:1003E00090E0DF91CF911F910F91FF90EF900895D2
:1003F000F62E0B8D10E00F5F1F4F0F731127E02EAD
:100400008C8D8E110CC00FB607FCFACFE889F989E4
:10041000808185FFF5CFCE010E94AF01F1CFEB8D3A
:10042000EC0FFD2FF11DE35AFF4FF0829FB7F894B8
:100430000B8FEA89FB8980818062CFCF682F85EDA1
:1004400091E00C94D1010F931F93CF93DF938C0114
:10045000D0E0C0E0F801EC0FFD1F6491662341F08D
:1004600085ED91E00E94D101892B11F02196F2CF08
:10047000CE01DF91CF911F910F910895CF93DF931C
:10048000EC01888D8823B9F0AA89BB89E889F989AC
:100490008C9185FD03C0808186FD0DC00FB607FCE1
:1004A000F7CF8C9185FFF2CF808185FFEDCFCE0114
:1004B0000E94AF01E9CFDF91CF9108953FB7F89443
:1004C0008091870190918801A0918901B0918A0162
:1004D00026B5A89B05C02F3F19F00196A11DB11D9F
:1004E0003FBFBA2FA92F982F8827BC01CD01620FDB
:1004F000711D811D911D42E0660F771F881F991F96
:100500004A95D1F708958F929F92AF92BF92CF9262
:10051000DF92EF92FF926B017C010E945E024B0121
:100520005C01C114D104E104F104B9F00E945E023F
:10053000681979098A099B09683E7340810591050C
:1005400080F321E0C21AD108E108F10888EE880E94
:1005500083E0981EA11CB11CE4CFFF90EF90DF90C8
:10056000CF90BF90AF909F908F9008952FB7F89441
:100570006091830170918401809185019091860141
:100580002FBF0895CF92DF92EF92FF926A017B0115
:10059000239A9C0150E040E060E472E48FE090E038
:1005A0000E94801382E091E1332361F03695279514
:1005B000492F417002C0369527954A95E2F79695E6
:1005C0008F5FF2CF1092700092E49093B00080930E
:1005D000B10021502093B300C114D104E104F1040F
:1005E00089F00E94B602C60ED71EE81EF91EC09200
:1005F000D101D092D201E092D301F092D40182E0F5
:1006000080937000FF90EF90DF90CF9008950F934C
:100610001F930E94B6026093DD017093DE01809308
:10062000DF019093E00185ED91E00E946D0197FF5D
:100630001DC00E94B6020091DD011091DE012091E3
:10064000DF013091E001601B710B820B930B009175
:10065000D9011091DA012091DB013091DC016017A2
:10066000710782079307F8F28FEF9FEF1F910F91A9
:100670000895CF93DF93D62F24B5237039F020EA65
:1006800024BD23E025BD2AB1206F2AB9F8949C012E
:10069000C9B197FF04C0319521953109C095211545
:1006A00088E0380710F02FEF37E02F31310510F4D4
:1006B0002FE130E0C90196958795A0E0805C9D4BC5
:1006C000A04FBC018A2F90E050E040E00E94E1136F
:1006D000C90160919B016111C095CD2311F0C90141
:1006E0009058DF91CF9108950F931F93CF93DF938D
:1006F000EC0145BD8A819B81AC81BD818A179B0736
:1007000011F13981432F50E0440F551F4D575F4F72
:10071000FA0105911491FA01A817B90708F03DC034
:10072000329645915491801B910B012B09F4CA011B
:10073000A817B90708F4DC014A175B0708F03E5F09
:100740003983BB83AA83B7FF07C080E88B0FB9F159
:100750008D8369B9A0E0B3E02E813F81488589B1DE
:100760006823A9F12150310941092E833F8348872D
:1007700088818A0F9B2F911D282F2370288396959F
:10078000879596958795803410F48068906899874E
:10079000DF91CF911F910F91089532974591549118
:1007A000800F911F012B09F4CA018A179B0708F4D7
:1007B000DC01A417B50708F4C3CF3250C1CFF894B9
:1007C00080916E00282320936E007894C5CF2F5F10
:1007D0003F4F4F4FCACFE0910501F0910601E80F5E
:1007E000F11DE49123E0E29FC001112482569E4F47
:1007F0000895CF92DF92EF920F931F93CF936B01E7
:10080000E82EC0E0042F10E040FF07C08C2F0E94AC
:10081000EB03FC01C082D182E282A8015595479585
:10082000CF5F4111EFCFCF911F910F91EF90DF90EC
:10083000CF9008954FE760E070E080E00C94F903FA
:10084000F8948091B9019091BA01A091BB01B09147
:10085000BC01789420919B01222339F0B095A0959A
:10086000909581959F4FAF4FBF4F692F7A2F8B2F58
:10087000992787FD9A950895F8948091C3019091E6
:10088000C401A091C501B091C601789420919B014B
:10089000222339F0B095A095909581959F4FAF4F49
:1008A000BF4F692F7A2F8B2F992787FD9A9508952F
:1008B000CF92DF92EF92FF920E943C046B017C0189
:1008C0000E942004A7019601261B370B480B590BE9
:1008D000CA01B901FF90EF90DF90CF900895CF92B9
:1008E000DF92EF92FF920E943C046B017C010E9418
:1008F00020046C0D7D1D8E1D9F1DFF90EF90DF90DD
:10090000CF90089597B19C6097B998B1937F492F84
:10091000486028E034E087FF07C048B936B9880F3F
:100920002150C9F798B9089598B9F8CF0E945E028E
:10093000189B05C07093D0016093CF010895109269
:100940006B002091CF013091D001621B730BF2CF6D
:100950000E94B6022091780130917901AB01421BCF
:10096000530B57FD08C06C597F4F7093790160930A
:10097000780181E0089580E00895CF93DF9320917E
:10098000070121110EC0EC010E94A804882349F040
:10099000CE010E9423028AE090E0DF91CF910C9477
:1009A0001E02DF91CF9108958F7390E0C0960C9452
:1009B0001E02CF93DF93D0918101DD2379F18CE783
:1009C00090E00E9423028091B301869586950E9453
:1009D000D404C0E08C2F0E94EB03FC01808186953B
:1009E00086950E94D4048C2F0E94EB03FC01818128
:1009F000869586950E94D4048C2F0E94EB03FC01FF
:100A00008281869586950E94D404CF5FC73011F706
:100A10008AE090E00E941E02109281018D2FDF91EA
:100A2000CF910895CF93DF93209114013091150158
:100A30002F3F320769F1AFEFBFE00E94031425E0BA
:100A400033E440E050E00E948013E9012115304179
:100A500010F0CFEFDFE087E790E00E942302CE01A5
:100A600026E0969587952A95E1F70E94D4048C2F6D
:100A70000E94D4048AE090E00E941E028FEF9FEF54
:100A8000909315018093140181E0DF91CF91089537
:100A900080E0FBCFFF920F931F93CF93DF93F62E4F
:100AA000C72F082F10E0869586950E94D404D0E0C9
:100AB00084E0000F111F8A95E1F7CE0124E095959F
:100AC00087952A95E1F7802B0E94D404CC0FDD1F77
:100AD000CC0FDD1F8F2D82958695869583708C2B8C
:100AE0000E94D4048F2DDF91CF911F910F91FF9021
:100AF0000C94D404189580917A00806480937A00D5
:100B000080917A0086FDFCCF8091780090917900E9
:100B100008950F931F93CF93DF93CCE7D0E08EE43B
:100B200088830E947B050E947B050E947B050E94B2
:100B30007B050E947B058C0118828EE088830E94D1
:100B40007B050E947B050E947B050E947B050E941D
:100B50007B0518829C01A4EEBCE00E94031498015E
:100B600050E040E00E94E113C901DF91CF911F9155
:100B70000F9108958F929F92AF92BF92CF92DF9282
:100B8000EF92FF920F931F93CF93DF938C0126EF89
:100B900037E0DB010E9452142CE3822E912CA12C11
:100BA000B12CA50194010E9480136901E90126EF8F
:100BB00037E0D8010E945214A50194010E948013CD
:100BC00080E090E82115310521F060E8C9010E941C
:100BD00039039093C3018093C20180916E008260BB
:100BE00080936E00789480E090E8CD2B21F060E156
:100BF000C6010E9439039093B9018093B801809196
:100C00006E00846080936E007894DF91CF911F9185
:100C10000F91FF90EF90DF90CF90BF90AF909F909B
:100C20008F9008951092020187E080937C0080915C
:100C30007A00806480937A0080917A0086FDFCCFF0
:100C40009091780080917900892798278927969537
:100C5000879596958795982FE8E6F0E080E02491B7
:100C6000921720F08F5F31968F30C9F70895CF9299
:100C7000DF92EF92FF921F93CF93DF9300D000D0CB
:100C8000CDB7DEB7809107018111A3C01091160185
:100C9000113409F49EC00E94A804882309F499C065
:100CA000612F85ED91E00E94D10180E290E00E94E9
:100CB0001E020E943C046B017C010E9420043FE064
:100CC000CC0CDD1CEE1CFF1C3A95D1F7CC2420E89F
:100CD000D2222FE3F2227F7788279927C62AD72AA4
:100CE000E82AF92A8F2D0E94D404C701B6010E9478
:100CF0004A0580E290E00E941E020E94B602C09067
:100D0000C801D090C901E090CA01F090CB019B01CD
:100D1000AC012C193D094E095F0969017A018F2D3B
:100D20000E94D404C701B6010E944A0580E290E007
:100D30000E941E0280917B010E94D40410927B01CC
:100D40000E9412060E94D4048AE090E00E941E02D3
:100D500080911F0190912001A0912101B091220169
:100D600089839A83AB83BC8380917A0190E001965A
:100D70008170992780937A01880F991FE1E0F0E054
:100D8000EC0FFD1FE80FF91F0190F081E02D099590
:100D900081111FC080917A0190E00196817099279E
:100DA00080937A01880F991F41E050E04C0F5D1F3E
:100DB000840F951FDC01ED91FC910F900F900F9027
:100DC0000F90DF91CF911F91FF90EF90DF90CF9028
:100DD00009940F900F900F900F90DF91CF911F917A
:100DE000FF90EF90DF90CF900895CF93DF932898F6
:100DF000209A81E083B9E3E2F0E03197F1F783B91B
:100E0000209826E934E030931801209317018BBB1A
:100E10009091680091609093680080936B000E94AD
:100E20005E02EB01C158D64E80916B00882379F0A9
:100E30000E945E026C1B7D0B64367105A8F7109250
:100E40006B0088EA9EED9093D0018093CF01809152
:100E50001601813451F08091CF019091D00190938F
:100E60001501809314010E9437068091CF01909163
:100E7000D001DF91CF910895AF92BF92DF92EF92B0
:100E8000FF920F931F93CF93DF93C091B3010E9402
:100E90005E0200917D0110917E0120917F013091D1
:100EA0008001601B710B820B930B6A3F71058105FA
:100EB000910568F30E945E0260937D0170937E014C
:100EC00080937F01909380010E945E0220917202C4
:100ED00030917302621B730B6A307105A8F3F894AA
:100EE000E0919C01F0919D0175B1706265B16F7DDB
:100EF00065B9259A81E08C0F118123E030E090E004
:100F0000A7E0AA2EB12CD501092FC92FD92FF92E70
:100F1000492F592F51811127889451115C0F08F4E2
:100F20005FEFC195889480FD150F1795889481FD1A
:100F3000150F1795889482FD150F1795889483FDDA
:100F4000150F1795889484FD150F1795889485FDC6
:100F5000150F1795889486FD150F1795889487FDB2
:100F6000150F17958894052F8111012FC90F102F88
:100F7000002C75B900C017FF65B95081002788940F
:100F800000C000C0002C65B951115D0F00C0002CDD
:100F900075B900C016FF65B908F45FEFD195889464
:100FA00000C000C0002C65B980FD050F00C0002CFA
:100FB00075B900C015FF65B90795889481FD050FC7
:100FC00000C000C0002C65B90795889400C0002CB3
:100FD00075B900C014FF65B982FD050F07958894A7
:100FE00000C000C0002C65B983FD050F00C0002CB7
:100FF00075B900C013FF65B90795889484FD050F86
:1010000000C000C0002C65B90795889400C0002C72
:1010100075B900C012FF65B985FD050F0795889465
:1010200000C000C0002C65B986FD050F00C0002C73
:1010300075B900C011FF65B90795889487FD050F44
:1010400000C000C0002C65B90795889400C0002C32
:1010500075B900C010FF65B9152F8111102FD90F78
:1010600000C000C0002C65B900C000C0002C75B9DC
:1010700000C017FF65B952810027889400C000C0E6
:10108000002C65B951115F0D00C0002C75B900C06E
:1010900016FF65B908F45FEFE20FF31F00C000C050
:1010A000002C65B980FD050F00C0002C75B900C08B
:1010B00015FF65B90795889481FD050F00C000C034
:1010C000002C65B90795889400C0002C75B900C044
:1010D00014FF65B982FD050F0795889400C000C014
:1010E000002C65B983FD050F00C0002C75B900C048
:1010F00013FF65B90795889484FD050F00C000C0F3
:10110000002C65B90795889400C0002C75B900C003
:1011100012FF65B985FD050F0795889400C000C0D2
:10112000002C65B986FD050F00C0002C75B900C004
:1011300011FF65B90795889487FD050F00C000C0B1
:10114000002C65B90795889400C0002C75B900C0C3
:1011500010FF65B9152F8111102FF19400C000C048
:10116000002C65B9F90E00C000C075B900C017FFAA
:1011700065B951810027889400C000C0002C65B972
:1011800051115C0F00C0002C75B900C016FF65B985
:1011900008F45FEFC195889400C000C0002C65B9C9
:1011A00080FD050F00C0002C75B900C015FF65B9A2
:1011B0000795889481FD050F00C000C0002C65B91B
:1011C0000795889400C0002C75B900C014FF65B95C
:1011D00082FD050F0795889400C000C0002C65B9FA
:1011E00083FD050F00C0002C75B900C013FF65B961
:1011F0000795889484FD050F00C000C0002C65B9D8
:101200000795889400C0002C75B900C012FF65B91D
:1012100085FD050F0795889400C000C0002C65B9B6
:1012200086FD050F00C0002C75B900C011FF65B91F
:101230000795889487FD050F00C000C0002C65B994
:101240000795889400C0002C75B900C010FF65B9DF
:10125000152F8111102FC90F00C000C0002C65B9D7
:10126000119709F086CE30E020E0C9016AE9A69E18
:101270000A0C811DB69E800D911D11248B0D911DB0
:10128000B0E0A0E0AC01BD014E525F4F6F4F7F4F09
:10129000493E53406105710508F434C086519340BE
:1012A000A109B10942E0B695A795979587954A950A
:1012B000D1F747E0849F080E211D949F200D311D1A
:1012C0001124290F311D40917C0150E0840F951F9E
:1012D000280F391F8091830190918401A09185018D
:1012E000B0918601432F5527840F951FA11DB11D75
:1012F0008093830190938401A0938501B09386012C
:1013000020937C0178940E945E0270937302609334
:10131000720280911601813471F081E08093810125
:10132000DF91CF911F910F91FF90EF90DF90BF90D1
:10133000AF900C943706DF91CF911F910F91FF90E2
:10134000EF90DF90BF90AF900895CF93DF93EC01C3
:101350000E943C078AB1806F8AB99E01220F331F19
:10136000220F331F255031098FEF9FE740E650EFE2
:1013700049B959B9C230D10518F0F9013197F1F7DF
:101380008C1B9D0B97FFF4CFDF91CF910895CF93E6
:10139000DF93EC010E943706209751F061E070E086
:1013A00080E090E00E9483020E9437062197F4CFEC
:1013B000DF91CF9108958F929F92AF92BF92CF927B
:1013C000DF92EF92FF926B017C010E9458044B0167
:1013D0005C01C601D701B7FF07C0B095A0959095F5
:1013E00081959F4FAF4FBF4F6C017D01CC0CDD1C31
:1013F000EE1CFF1C0E945804681979098A099B0990
:10140000161617061806190694F40E945804DC01F3
:10141000CB0188199909AA09BB098C159D05AE0550
:10142000BF0584F481E090E00E94C709E3CF0E94E9
:101430005804A5019401261B370B480B590BDA0100
:10144000C901EBCFFF90EF90DF90CF90BF90AF90AE
:101450009F908F9008958F929F92AF92BF92CF925C
:10146000DF92EF92FF926B017C010E946F044B01AF
:101470005C01C601D701B7FF07C0B095A095909554
:1014800081959F4FAF4FBF4F6C017D01CC0CDD1C90
:10149000EE1CFF1C0E946F04681979098A099B09D8
:1014A000161617061806190694F40E946F04DC013C
:1014B000CB0188199909AA09BB098C159D05AE05B0
:1014C000BF0584F481E090E00E94C709E3CF0E9449
:1014D0006F04A5019401261B370B480B590BDA0149
:1014E000C901EBCFFF90EF90DF90CF90BF90AF900E
:1014F0009F908F900895CF93DF93D82FC0E086E917
:1015000090E00E94C70942E350E060E070E080EEA6
:1015100096E00E94C202CF5FDC13F1CFDF91CF9142
:1015200008950E9489052091CD013091CE01A90135
:10153000481B590BCA011816190644F4959587954E
:10154000281B390B3093CE012093CD0190E080E031
:101550000C94C709009761F0813629E0920714F0D6
:1015600080E699E0883522E0920714F488E592E05D
:1015700022EB20938000909389008093880080E282
:1015800086BBB59903C00E94910AFBCF08950097CE
:1015900061F0813629E0920714F080E699E0883501
:1015A00042E0940714F488E592E02091860030919F
:1015B0008700A901481B590B20EB20938000509312
:1015C0008B0040938A0081E086BBB09903C00E94E3
:1015D000910AFBCF089590E080E00E94C70A90E056
:1015E00080E00C94AA0AFC0101900020E9F73197F1
:1015F000AF01481B590BBC0185ED91E00C94310102
:10160000FC0180819181009711F00C94FB140895E6
:101610008BE891E00C94000B20E030E83093C3019C
:101620002093C20180916E00826080936E00789456
:101630003093B9012093B80180916E00846080934B
:101640006E0078948091C101803821F48091B701B7
:10165000803829F081E090E00E94C709F3CF089517
:101660000F931F93CF93DF93EC01888199810097AB
:1016700059F02A813B812617370730F081E0DF914E
:10168000CF911F910F9108958B016F5F7F4F0E9443
:101690008415009759F0998388831B830A832C81D2
:1016A0003D81232B59F7FC011082E8CF80E0E7CF82
:1016B000EF92FF920F931F93CF93DF9300D0CDB79C
:1016C000DEB78C01FC011182108213821282158216
:1016D000148270E060E00E94300BF80120813181BB
:1016E000811132C02115310519F0C9010E94FB1486
:1016F000F8011182108215821482138212820E94D4
:10170000070397FD29C08A30910531F189831A8238
:10171000F801E480F580FFEFEF1AFF0AB701C80176
:101720000E94300B882359F3F80120813181848194
:101730009581BE016F5F7F4F820F931F0E944A16F3
:10174000F801F582E482DBCF158214826DE371E04B
:10175000C9010E944A16D3CFC8010F900F90DF91A4
:10176000CF911F910F91FF90EF9008951F93CF930A
:10177000DF93EC010E947813182FCE0101960E948E
:101780007813912FDF91CF911F9108959F92AF927F
:10179000BF92CF92DF92EF92FF920F931F93CF935E
:1017A000DF935C01D62E972EC42EC0E0D2E0CE018E
:1017B0000E94B60BA816B90639F06096C11584E0F0
:1017C000D807A9F780E035C0F12CE12C02EA1EE72A
:1017D000CE018E0D9F1D0E947813082788E0902F60
:1017E000917016950795992321F091E0092790EAC9
:1017F00019278150A1F7EFEFEE1AFE0AFEE0EF166F
:10180000F10431F7CE010E960E94B60B80179107B6
:10181000A1F62296FD2C0D2D192DCE010E947813D4
:10182000F80181938F0121968E2F8F198C15A8F3C3
:1018300081E0DF91CF911F910F91FF90EF90DF90AA
:10184000CF90BF90AF909F9008951F920F920FB6C8
:101850000F9211242F933F934F935F936F937F9336
:101860008F939F93AF93BF93EF93FF9385ED91E099
:101870000E94AF01FF91EF91BF91AF919F918F9126
:101880007F916F915F914F913F912F910F900FBE7C
:101890000F901F9018951F920F920FB60F92112460
:1018A0002F938F939F93EF93FF93E091E501F09136
:1018B000E6018081E091EB01F091EC0182FD1BC01B
:1018C00090818091EE018F5F8F732091EF018217DD
:1018D00041F0E091EE01F0E0EB52FE4F958F8093E6
:1018E000EE01FF91EF919F918F912F910F900FBE7D
:1018F0000F901F9018958081F4CF1F920F920FB612
:101900000F9211242F933F938F939F93AF93BF9385
:101910008091830190918401A0918501B09186010D
:101920003091820123E0230F2D3758F50196A11D38
:10193000B11D209382018093830190938401A09331
:101940008501B09386018091870190918801A091D3
:101950008901B0918A010196A11DB11D8093870173
:1019600090938801A0938901B0938A01BF91AF91B0
:101970009F918F913F912F910F900FBE0F901F90CD
:10198000189526E8230F0296A11DB11DD2CF789499
:101990001F920F920FB60F9211242F933F934F93E4
:1019A0005F936F937F938F939F93AF93BF93EF93C7
:1019B000FF9304B405FC0AC02BEF43E460E184EB21
:1019C00091E00E94740398B5890F88BD8091BD0194
:1019D000982F9F77D1F498B5890F88BD90E1F8943E
:1019E00084B58F7C892B84BDFF91EF91BF91AF911E
:1019F0009F918F917F916F915F914F913F912F9127
:101A00000F900FBE0F901F90189581508093BD01CD
:101A100090E2E5CF78941F920F920FB60F921124A7
:101A20002F933F934F935F936F937F938F939F93E6
:101A3000AF93BF93EF93FF9304B407FC0AC02DEF5D
:101A400043E860E88EEB91E00E94740397B5890F3C
:101A500087BD8091C701982F9F77D1F497B5890FE3
:101A600087BD90E4F89484B58F73892B84BDFF9172
:101A7000EF91BF91AF919F918F917F916F915F9106
:101A80004F913F912F910F900FBE0F901F9018957F
:101A900081508093C70190E8E5CF1F920F920FB657
:101AA0000F9211244F935F936F937F938F939F9324
:101AB000AF93BF9340918301509184016091850160
:101AC000709186018091D1019091D201A091D301B2
:101AD000B091D401481759076A077B0750F010925C
:101AE00070001092B30081E08093B00084E0809396
:101AF000B100BF91AF919F918F917F916F915F9155
:101B00004F910F900FBE0F901F901895EF93FF937A
:101B1000E0910001F09101010C949C0DEF93FF9373
:101B2000E0910301F09104010C949C0DEF93FF935D
:101B3000E0911701F09118011F920F920FB60F92CA
:101B400011242F933F934F935F936F937F938F93C2
:101B50009F93AF93BF930995BF91AF919F918F9141
:101B60007F916F915F914F913F912F910F900FBE99
:101B70000F901F90FF91EF911895E5EDF1E0138222
:101B8000128288EE93E0A0E0B0E084839583A68380
:101B9000B7838DE291E09183808385EC90E0958717
:101BA000848784EC90E09787868780EC90E0918B27
:101BB000808B81EC90E0938B828B82EC90E0958B14
:101BC000848B86EC90E0978B868B118E128E138E11
:101BD000148E10927302109272020895CF93DF93C5
:101BE000CDB7DEB7E7970FB6F894DEBF0FBECDBF17
:101BF000789484B5826084BD84B5816084BD85B5E8
:101C0000826085BD85B5816085BD80916E008160F3
:101C100080936E0010928100809181008260809399
:101C2000810080918100816080938100809180009B
:101C30008160809380008091B10084608093B100C6
:101C40008091B00081608093B00080917A008460C0
:101C500080937A0080917A00826080937A008091EC
:101C60007A00816080937A0080917A008068809306
:101C70007A001092C100E091E501F091E60182E066
:101C80008083E091E101F091E2011082E091E301B3
:101C9000F091E40180E180831092ED01E091E9018F
:101CA000F091EA0186E08083E091E701F091E8019C
:101CB000808180618083E091E701F091E80180817B
:101CC00088608083E091E701F091E801808180687D
:101CD0008083E091E701F091E80180818F7D80832E
:101CE0008BE391E00E94F30A62E370E080E090E011
:101CF0000E9483028BEA90E00E9423028BE391E032
:101D00000E94F30A8091910181110FC010928C0101
:101D100010928B0110928E0110928D011092900101
:101D200010928F0181E0809391016CE170E08BE86B
:101D300091E00E94300B9E012F5F3F4F7901C90156
:101D40000E94580B80918B0190918C01009709F4AF
:101D50007FC169817A816115710509F477C140916C
:101D60008D0150918E012D813E814217530708F459
:101D70006DC10E944A168D819E819093900180933F
:101D80008F011E821D82C7010E94000B1A821982D8
:101D90001C821B821E821D8200918B0110918C017E
:101DA00001151105C1F0C0908F01D0909001B601CE
:101DB000C7010E94300B29813A81811160C1211530
:101DC000310519F0C9010E94FB141A8219821E8282
:101DD0001D821C821B824D815E8141155105B9F027
:101DE000BA014630510510F066E070E089819A81B1
:101DF000461B570B5E834D83680F791F0E94511657
:101E0000E981FA818D819E81E80FF91F1082098195
:101E10001A8148E050E063EB70E0C8010E9455135E
:101E20006FE3862E62E4962E6FE0A62EB12C892BEE
:101E300031F4C80108960E942E134B015C01C701C2
:101E40000E94000B8CEB90E00E94230219A28E01ED
:101E50000F5D1F4F5AE0452E512C612C712CC5018E
:101E6000B401A30192010E94E11349015A01605D8E
:101E7000D8016E938D0181149104A104B10479F706
:101E8000109719F0CD010E94F30A8BE391E00E94B4
:101E9000F30AEFEBF0E084910E94820485ED91E07B
:101EA0000E943E02F89486B596B58917E9F39CE046
:101EB00096B990916E009E7F90936E0092E0980F7D
:101EC0008E5980939A0186B59813FDCF87B1837F91
:101ED00087B98CE086B922E231E030930401209387
:101EE000030182E08BBB8091680082608093680070
:101EF00084E080936C00789486B5891B8036E0F38B
:101F000010926C00F89480916E00816080936E0056
:101F1000789480919A01809199018FEC0E948204BB
:101F20008CE086B90E9412066AE070E080E090E0E2
:101F30000E94830286E0E3E2F1E0D70101900D9276
:101F40008A95E1F746E0B70184EE9BEF0E94C60B4D
:101F500081119CC08CEC90E0909306018093050168
:101F600088E0F70111928A95E9F748E0B70186E227
:101F700091E30E94C60B6AEF70E080E090E00E945F
:101F8000830287E69BE2909387008093860082EB32
:101F90008093800082E18093810084B1866084B95F
:101FA00080910C0190910D0190930901809308019B
:101FB0000E94C70A68EC70E080E090E00E94830213
:101FC000809110019091110190930B0180930A016F
:101FD0000E94AA0A68EC70E080E090E00E94830210
:101FE0000E94EB0A8EE991E090939D0180939C0101
:101FF00080E38093B3010E941A040E943C0708EE1C
:1020000013E041E250E060E070E08CEB92E00E946F
:10201000C202C8010E94A5090E941A04C8010E94B8
:10202000A5094FE76FEF7FEF8FEF0E94F9030E9442
:1020300089058C339F4008F09CC0C80134E0969518
:1020400087953A95E1F7081B190BDBCF0E94FB142B
:1020500089819A8190938C0180938B018B819C81E3
:1020600090938E0180938D018D819E81909390013C
:1020700080938F011A8219821C821B8282CEDE829B
:10208000CD82B801C9010E944A16A5CE0C81002E4E
:10209000000C110B065A1F4F7B80CA800C2C000CC1
:1020A000DD08BAE5CB0ED11C2981022E000C330BC2
:1020B000A8E1BCEF0E944A144AE5842E912CA12C81
:1020C000B12CA50194010E9480132053384F4F4F2B
:1020D0005F4F30930D0120930C019601A8E1BCEFF6
:1020E0000E944A14A50194010E9480132053384F86
:1020F0004F4F5F4F30930F0120930E01A72D770CA8
:10210000BB0B28EE33E00E945214A50194010E94FB
:10211000801328513C4F4F4F5F4F30931101209354
:10212000100128EE33E0D8010E945214A501940159
:102130000E94801328513C4F4F4F5F4F3093130143
:10214000209312018D81813051F0823079F081E04D
:102150009E81973709F080E080939B0101CF8CEC42
:1021600090E09093060180930501F1CF85EC90E01B
:10217000F8CF0E941A0420E030E83093C301209386
:10218000C20180916E00826080936E0078943093DB
:10219000B9012093B80180916E00846080936E0035
:1021A000789481E48093160181E08093070182E0B6
:1021B0000E947B0A06E623E3D22E1091CC011F5F1A
:1021C0001093CC010E941A04E12FE695E695E37086
:1021D000F0E0E452FF4F84910E94EB03FC01008386
:1021E000D18202830E943C076DE770E080E090E0BE
:1021F0000E94830280910701811110C00E94A804EF
:10220000882361F080EE90E00E94230283EE90E04C
:102210000E9423028AE090E00E941E020E941206A1
:102220008C30D9F085ED91E00E948F01892B29F245
:10223000C7010E94580B8D819E81892B39F0E9815D
:10224000FA81309719F08081813421F0C7010E9412
:10225000000BB3CFC7010E94000B6DE770E080E078
:1022600090E00E9483020E94B6028B0183E4809377
:10227000160189ED90E00E94BD0481E00E947B0A76
:102280000E941A0443E166E673E386E60E94F903BE
:102290000E943C070E94B602601B710B683E7340AF
:1022A000CCF386ED90E00E94BD0481E00E947B0AA1
:1022B00081E00E94EB03FC011082118212820E94D5
:1022C0003C070E94B602601B710B603D7740CCF367
:1022D00083ED90E00E94BD0481E00E947B0A80E0D3
:1022E0000E94EB03FC011082118212820E943C07C3
:1022F0000E94B602601B710B683B7B40CCF30E94CE
:10230000B6026093C8017093C9018093CA0190938B
:10231000CB0182E48093160181E090E00E94C7091E
:1023200042E350E060E070E08CE298E00E94C2027C
:1023300084E00E94EB03FC011082118212820E9451
:102340003C078EE391E00E94F30A8BE391E00E9448
:10235000F30A6EE170E08EE190E00E94BA0562E758
:1023600078E080E090E00E942B0A62EE7FEF82EE40
:102370009FEF0E94BA0562E778E080E090E00E945B
:102380002B0A62EE7FEF8EE190E00E94BA056FE9C2
:1023900076E080E090E00E94DB096EE170E082EE82
:1023A0009FEF0E94BA056FE976E080E090E00E941E
:1023B000DB090E940C0B8AE591E00E94F30A8BE393
:1023C00091E00E94F30A0E940C0B8AE580931601AB
:1023D00083E00E947B0A10E0812F0E94EB03FC0146
:1023E0008081811111C0818181110EC08281811192
:1023F0000BC01F5F173081F743E166E673E386E6A3
:102400000E94F9030E943C070E94A00000271127A8
:10241000081B190B97FF8C010E94E10044275527E8
:10242000481B590B97FFAC01209186003091870023
:10243000D801041715070CF4DA010E94521428EE93
:1024400033E040E050E00E94E11349013FA32EA396
:102450000E94F5060E94E1008C010E94A0007C0110
:1024600080910701811130C080911601813461F1A2
:1024700084EE90E00E942302892D859585950E9427
:10248000D40484E0959487948A95E1F7882D0E947E
:10249000D40493E0C92ED12CC701B6010E94361492
:1024A000862F0E94D40480E00E94D404C801B601A3
:1024B0000E943614862F0E94D40480E00E94D40427
:1024C0008AE090E00E941E0280900801909009012D
:1024D000A0910A01B0910B01BBA3AAA320900C010B
:1024E00030900D012101032C000C66087708009143
:1024F0001001109111016801012E000CEE08FF0877
:102500000E94B6026CA77DA78EA79FA78FE097E2D7
:102510009093CE018093CD018091860090918700A9
:1025200064EF71E00E942214092C000CAA08BB0879
:102530008EA19FA1092E000CAA0BBB0B88A799A7FF
:10254000AAA7BBA7D301C20188199909AA09BB0987
:1025500088AB99ABAAABBBABAAA1BBA12D01BB0FAA
:1025600066087708D701C60184199509A609B70935
:102570008CAB9DABAEABBFABAEA1BFA16A177B0767
:102580000CF059C06B01770FEE08FF0828A939A994
:102590004AA95BA9C701B6010E94121428A539A552
:1025A0004AA55BA50E948013DA01C901880D991D17
:1025B000AA1DBB1D8AA39BA3ACA3BDA32CA93DA9A7
:1025C0004EA95FA9C701B6010E94121428A539A51A
:1025D0004AA55BA50E94801369017A01C40CD51C31
:1025E000E61CF71CAAA1BBA1B0930901A0930801A6
:1025F000D0920B01C0920A01CD010E94C70AC60108
:102600000E94AA0A8091CD019091CE018C3C90410C
:102610005CF40E94EB0A60E177E280E090E00E94C7
:1026200083020E943706F7CF0E94B602ECA5FDA5F3
:102630006E1B7F0BA1CF30920901209208011093ED
:102640000B0100930A01C1010E94C70AC8010E9440
:10265000AA0A0E94EB0A0E94F506DDCF1F93FC0137
:1026600099278827BC01E89411911032E9F31930B9
:1026700010F01E30C8F31B3251F01D3249F468943B
:1026800006C00E946313610F711D811D911D119180
:1026900010531A30B0F33EF4909580957095619583
:1026A0007F4F8F4F9F4F1F910895FB01DC014150D9
:1026B000504030F08D910590801919F40020B9F741
:1026C000881B990B0895592F482F372F262F660FF7
:1026D000771F881F991F660F771F881F991F620F2A
:1026E000731F841F951F660F771F881F991F0895FA
:1026F000F999FECF92BD81BDF89A992780B50895CA
:10270000052E97FB1EF400940E94971357FD07D0E7
:102710000E94E11307FC03D04EF40C9497135095DC
:102720004095309521953F4F4F4F5F4F08959095BD
:102730008095709561957F4F8F4F9F4F08950E94B0
:102740000314A59F900DB49F900DA49F800D911D23
:10275000112408952F923F924F925F926F927F9231
:102760008F929F92AF92BF92CF92DF92EF92FF92A1
:102770000F931F93CF93DF93CDB7DEB7CA1BDB0B4D
:102780000FB6F894DEBF0FBECDBF09942A883988F2
:1027900048885F846E847D848C849B84AA84B984F9
:1027A000C884DF80EE80FD800C811B81AA81B98105
:1027B000CE0FD11D0FB6F894DEBF0FBECDBFED0119
:1027C0000895A1E21A2EAA1BBB1BFD010DC0AA1F72
:1027D000BB1FEE1FFF1FA217B307E407F50720F08A
:1027E000A21BB30BE40BF50B661F771F881F991F05
:1027F0001A9469F760957095809590959B01AC014E
:10280000BD01CF010895A29FB001B39FC001A39F56
:10281000700D811D1124911DB29F700D811D112419
:10282000911D0895DB018F939F930E949F13BF9189
:10283000AF91A29F800D911DA39F900DB29F900D0F
:1028400011240895AA1BBB1B51E107C0AA1FBB1F7F
:10285000A617B70710F0A61BB70B881F991F5A952C
:10286000A9F780959095BC01CD01089597FB072E9F
:1028700016F4009407D077FD09D00E94221407FCBB
:1028800005D03EF4909581959F4F08957095619580
:102890007F4F08950E940314332312F48A1B9B0B6D
:1028A0000C9454140E940314B7FF0895821B930BD9
:1028B0000895EE0FFF1F0590F491E02D09940F93FA
:1028C0001F93CF93DF938230910510F482E090E064
:1028D000E0917602F091770230E020E0B0E0A0E0F5
:1028E000309799F42115310509F44AC0281B390B9A
:1028F00024303105D8F58A819B816115710589F1F4
:10290000FB0193838283FE0111C0408151810281CA
:10291000138148175907E0F04817590799F41097A1
:1029200061F012960C93129713961C933296CF0176
:10293000DF91CF911F910F9108950093760210932C
:102940007702F4CF2115310551F04217530738F0C3
:10295000A901DB019A01BD01DF01F801C1CFEF013F
:10296000F9CF9093770280937602CDCFFE01E20FEC
:10297000F31F819391932250310939832883D7CF54
:102980002091740230917502232B41F420911B0198
:1029900030911C013093750220937402209119012B
:1029A00030911A012115310541F42DB73EB7409100
:1029B0001D0150911E01241B350BE0917402F09112
:1029C0007502E217F307A0F42E1B3F0B28173907F7
:1029D00078F0AC014E5F5F4F2417350748F04E0F7B
:1029E0005F1F5093750240937402819391939FCF20
:1029F000F0E0E0E09CCFCF93DF930097E9F0FC019B
:102A0000329713821282A0917602B0917702ED0183
:102A100030E020E01097A1F420813181820F931FD4
:102A200020917402309175022817390709F061C0AE
:102A3000F0937502E0937402DF91CF910895EA015B
:102A4000CE17DF07E8F54A815B819E0141155105EC
:102A5000B1F7E901FB83EA8349915991C40FD51F6E
:102A6000EC17FD0761F4808191810296840F951F18
:102A7000E90199838883828193819B838A83F0E033
:102A8000E0E012968D919C9113970097B9F52D91E6
:102A90003C911197CD010296820F931F20917402F1
:102AA000309175022817390739F6309751F5109291
:102AB000770210927602B0937502A0937402BCCF95
:102AC000D383C28340815181840F951FC817D907D2
:102AD00061F44E5F5F4F88819981480F591F518380
:102AE00040838A819B81938382832115310509F07C
:102AF000B0CFF0937702E09376029ECFFD01DC0128
:102B0000C0CF13821282D7CFB0E0A0E0EAE8F5E1AF
:102B10000C94AC138C01009751F4CB010E945F140C
:102B20008C01C801CDB7DEB7E0E10C94C813FC01FD
:102B3000E60FF71F9C0122503109E217F30708F452
:102B40009DC0D901CD91DC911197C617D70798F098
:102B5000C530D10530F3CE0104978617970708F3E7
:102B6000C61BD70B2297C193D1936D937C93CF0152
:102B70000E94FB14D6CF5B01AC1ABD0A4C018C0E2F
:102B80009D1EA0917602B0917702512C412CF12C20
:102B9000E12C109731F5809174029091750288159F
:102BA000990509F05CC04616570608F058C0809198
:102BB000190190911A01009741F48DB79EB7409189
:102BC0001D0150911E01841B950BE817F90708F0B1
:102BD00055C0F0937502E0937402F901718360832C
:102BE000A0CF8D919C91119712966C90129713968D
:102BF0007C901397A815B90559F56C0142E0C40EF5
:102C0000D11CCA14DB0420F1AC014A195B09DA01BA
:102C10001296159780F06282738251834083D901A6
:102C20006D937C93E114F10471F0D7011396FC933A
:102C3000EE93129776CF22968C0F9D1FF901918308
:102C40008083F301EFCFF0937702E093760269CFB0
:102C50004816590608F42C017D01D3019ACFCB0107
:102C60000E945F147C01009749F0AE01B8010E94F8
:102C70004116C8010E94FB14870153CF10E000E009
:102C800050CFFB01DC0102C001900D924150504039
:102C9000D8F70895FB01DC0101900D920020E1F7C7
:102CA0000895FB01DC014150504048F001900D9225
:102CB0000020C9F701C01D9241505040E0F708952F
:102CC000F894FFCF7A05017A05C5000100000000E5
:102CD000D007E803E803D007FFFF417A050000783A
:102CE000028000D90412050000000001FF0000006E
:102CF00000D10131015E013E028F016D0181010DA4
:102D00000A0052756E6E696E67204D6F74696F6E42
:102D10002064656D6F2070726F6772616D00436F24
:102D20006D706C65746564204D6F74696F6E20649E
:102D3000656D6F2070726F6772616D00E0F70895C6
:102D4000F894FFCF7A05017A05C500010000000064
:102D5000D007E803E803D007FFFF417A05000078B9
:102D6000028000D90412050000000001FF000000ED
:102D700000D10131015E013E028F016D0181010D23
:00000001FF
